{"abi":[{"inputs":[{"internalType":"string","name":"ideaDesc","type":"string"},{"internalType":"uint256","name":"minimum","type":"uint256"},{"internalType":"address","name":"creator","type":"address"}],"stateMutability":"nonpayable","type":"constructor"},{"inputs":[{"internalType":"uint256","name":"index","type":"uint256"}],"name":"approveRequest","outputs":[],"stateMutability":"nonpayable","type":"function"},{"inputs":[],"name":"contribute","outputs":[],"stateMutability":"payable","type":"function"},{"inputs":[{"internalType":"address","name":"","type":"address"}],"name":"contributers","outputs":[{"internalType":"bool","name":"","type":"bool"}],"stateMutability":"view","type":"function"},{"inputs":[],"name":"contributersCount","outputs":[{"internalType":"uint256","name":"","type":"uint256"}],"stateMutability":"view","type":"function"},{"inputs":[{"internalType":"string","name":"description","type":"string"},{"internalType":"uint256","name":"value","type":"uint256"},{"internalType":"address","name":"recipient","type":"address"}],"name":"createRequest","outputs":[],"stateMutability":"nonpayable","type":"function"},{"inputs":[{"internalType":"uint256","name":"index","type":"uint256"}],"name":"finalizeRequest","outputs":[],"stateMutability":"nonpayable","type":"function"},{"inputs":[],"name":"getRequestcount","outputs":[{"internalType":"uint256","name":"","type":"uint256"}],"stateMutability":"view","type":"function"},{"inputs":[],"name":"getSummary","outputs":[{"internalType":"uint256","name":"","type":"uint256"},{"internalType":"uint256","name":"","type":"uint256"},{"internalType":"uint256","name":"","type":"uint256"},{"internalType":"uint256","name":"","type":"uint256"},{"internalType":"address","name":"","type":"address"},{"internalType":"string","name":"","type":"string"}],"stateMutability":"view","type":"function"},{"inputs":[],"name":"ideaDescription","outputs":[{"internalType":"string","name":"","type":"string"}],"stateMutability":"view","type":"function"},{"inputs":[],"name":"manager","outputs":[{"internalType":"address","name":"","type":"address"}],"stateMutability":"view","type":"function"},{"inputs":[],"name":"minimumContribution","outputs":[{"internalType":"uint256","name":"","type":"uint256"}],"stateMutability":"view","type":"function"},{"inputs":[{"internalType":"uint256","name":"","type":"uint256"}],"name":"requests","outputs":[{"internalType":"string","name":"description","type":"string"},{"internalType":"uint256","name":"value","type":"uint256"},{"internalType":"address payable","name":"recipient","type":"address"},{"internalType":"bool","name":"complete","type":"bool"},{"internalType":"uint256","name":"approvalCount","type":"uint256"}],"stateMutability":"view","type":"function"}],"devdoc":{"kind":"dev","methods":{},"version":1},"evm":{"assembly":"    /* \"Campaign.sol\":470:3365  contract Idea {... */\n  mstore(0x40, 0x80)\n    /* \"Campaign.sol\":1054:1242  constructor (string memory ideaDesc, uint minimum, address creator) public {... */\n  callvalue\n  dup1\n  iszero\n  tag_1\n  jumpi\n  0x00\n  dup1\n  revert\ntag_1:\n  pop\n  mload(0x40)\n  sub(codesize, bytecodeSize)\n  dup1\n  bytecodeSize\n  dup4\n  codecopy\n  dup2\n  dup2\n  add\n  0x40\n  mstore\n  dup2\n  add\n  swap1\n  tag_2\n  swap2\n  swap1\n  tag_3\n  jump\t// in\ntag_2:\n    /* \"Campaign.sol\":1150:1157  creator */\n  dup1\n    /* \"Campaign.sol\":1140:1147  manager */\n  0x01\n  0x00\n    /* \"Campaign.sol\":1140:1157  manager = creator */\n  0x0100\n  exp\n  dup2\n  sload\n  dup2\n  0xffffffffffffffffffffffffffffffffffffffff\n  mul\n  not\n  and\n  swap1\n  dup4\n  0xffffffffffffffffffffffffffffffffffffffff\n  and\n  mul\n  or\n  swap1\n  sstore\n  pop\n    /* \"Campaign.sol\":1186:1194  ideaDesc */\n  dup3\n    /* \"Campaign.sol\":1168:1183  ideaDescription */\n  0x02\n    /* \"Campaign.sol\":1168:1194  ideaDescription = ideaDesc */\n  swap1\n  dup2\n  tag_6\n  swap2\n  swap1\n  tag_7\n  jump\t// in\ntag_6:\n  pop\n    /* \"Campaign.sol\":1227:1234  minimum */\n  dup2\n    /* \"Campaign.sol\":1205:1224  minimumContribution */\n  0x03\n    /* \"Campaign.sol\":1205:1234  minimumContribution = minimum */\n  dup2\n  swap1\n  sstore\n  pop\n    /* \"Campaign.sol\":1054:1242  constructor (string memory ideaDesc, uint minimum, address creator) public {... */\n  pop\n  pop\n  pop\n    /* \"Campaign.sol\":470:3365  contract Idea {... */\n  jump(tag_8)\n    /* \"#utility.yul\":7:82   */\ntag_9:\n    /* \"#utility.yul\":40:46   */\n  0x00\n    /* \"#utility.yul\":73:75   */\n  0x40\n    /* \"#utility.yul\":67:76   */\n  mload\n    /* \"#utility.yul\":57:76   */\n  swap1\n  pop\n    /* \"#utility.yul\":7:82   */\n  swap1\n  jump\t// out\n    /* \"#utility.yul\":88:205   */\ntag_10:\n    /* \"#utility.yul\":197:198   */\n  0x00\n    /* \"#utility.yul\":194:195   */\n  dup1\n    /* \"#utility.yul\":187:199   */\n  revert\n    /* \"#utility.yul\":211:328   */\ntag_11:\n    /* \"#utility.yul\":320:321   */\n  0x00\n    /* \"#utility.yul\":317:318   */\n  dup1\n    /* \"#utility.yul\":310:322   */\n  revert\n    /* \"#utility.yul\":334:451   */\ntag_12:\n    /* \"#utility.yul\":443:444   */\n  0x00\n    /* \"#utility.yul\":440:441   */\n  dup1\n    /* \"#utility.yul\":433:445   */\n  revert\n    /* \"#utility.yul\":457:574   */\ntag_13:\n    /* \"#utility.yul\":566:567   */\n  0x00\n    /* \"#utility.yul\":563:564   */\n  dup1\n    /* \"#utility.yul\":556:568   */\n  revert\n    /* \"#utility.yul\":580:682   */\ntag_14:\n    /* \"#utility.yul\":621:627   */\n  0x00\n    /* \"#utility.yul\":672:674   */\n  0x1f\n    /* \"#utility.yul\":668:675   */\n  not\n    /* \"#utility.yul\":663:665   */\n  0x1f\n    /* \"#utility.yul\":656:661   */\n  dup4\n    /* \"#utility.yul\":652:666   */\n  add\n    /* \"#utility.yul\":648:676   */\n  and\n    /* \"#utility.yul\":638:676   */\n  swap1\n  pop\n    /* \"#utility.yul\":580:682   */\n  swap2\n  swap1\n  pop\n  jump\t// out\n    /* \"#utility.yul\":688:868   */\ntag_15:\n    /* \"#utility.yul\":736:813   */\n  0x4e487b7100000000000000000000000000000000000000000000000000000000\n    /* \"#utility.yul\":733:734   */\n  0x00\n    /* \"#utility.yul\":726:814   */\n  mstore\n    /* \"#utility.yul\":833:837   */\n  0x41\n    /* \"#utility.yul\":830:831   */\n  0x04\n    /* \"#utility.yul\":823:838   */\n  mstore\n    /* \"#utility.yul\":857:861   */\n  0x24\n    /* \"#utility.yul\":854:855   */\n  0x00\n    /* \"#utility.yul\":847:862   */\n  revert\n    /* \"#utility.yul\":874:1155   */\ntag_16:\n    /* \"#utility.yul\":957:984   */\n  tag_56\n    /* \"#utility.yul\":979:983   */\n  dup3\n    /* \"#utility.yul\":957:984   */\n  tag_14\n  jump\t// in\ntag_56:\n    /* \"#utility.yul\":949:955   */\n  dup2\n    /* \"#utility.yul\":945:985   */\n  add\n    /* \"#utility.yul\":1087:1093   */\n  dup2\n    /* \"#utility.yul\":1075:1085   */\n  dup2\n    /* \"#utility.yul\":1072:1094   */\n  lt\n    /* \"#utility.yul\":1051:1069   */\n  0xffffffffffffffff\n    /* \"#utility.yul\":1039:1049   */\n  dup3\n    /* \"#utility.yul\":1036:1070   */\n  gt\n    /* \"#utility.yul\":1033:1095   */\n  or\n    /* \"#utility.yul\":1030:1118   */\n  iszero\n  tag_57\n  jumpi\n    /* \"#utility.yul\":1098:1116   */\n  tag_58\n  tag_15\n  jump\t// in\ntag_58:\n    /* \"#utility.yul\":1030:1118   */\ntag_57:\n    /* \"#utility.yul\":1138:1148   */\n  dup1\n    /* \"#utility.yul\":1134:1136   */\n  0x40\n    /* \"#utility.yul\":1127:1149   */\n  mstore\n    /* \"#utility.yul\":917:1155   */\n  pop\n    /* \"#utility.yul\":874:1155   */\n  pop\n  pop\n  jump\t// out\n    /* \"#utility.yul\":1161:1290   */\ntag_17:\n    /* \"#utility.yul\":1195:1201   */\n  0x00\n    /* \"#utility.yul\":1222:1242   */\n  tag_60\n  tag_9\n  jump\t// in\ntag_60:\n    /* \"#utility.yul\":1212:1242   */\n  swap1\n  pop\n    /* \"#utility.yul\":1251:1284   */\n  tag_61\n    /* \"#utility.yul\":1279:1283   */\n  dup3\n    /* \"#utility.yul\":1271:1277   */\n  dup3\n    /* \"#utility.yul\":1251:1284   */\n  tag_16\n  jump\t// in\ntag_61:\n    /* \"#utility.yul\":1161:1290   */\n  swap2\n  swap1\n  pop\n  jump\t// out\n    /* \"#utility.yul\":1296:1604   */\ntag_18:\n    /* \"#utility.yul\":1358:1362   */\n  0x00\n    /* \"#utility.yul\":1448:1466   */\n  0xffffffffffffffff\n    /* \"#utility.yul\":1440:1446   */\n  dup3\n    /* \"#utility.yul\":1437:1467   */\n  gt\n    /* \"#utility.yul\":1434:1490   */\n  iszero\n  tag_63\n  jumpi\n    /* \"#utility.yul\":1470:1488   */\n  tag_64\n  tag_15\n  jump\t// in\ntag_64:\n    /* \"#utility.yul\":1434:1490   */\ntag_63:\n    /* \"#utility.yul\":1508:1537   */\n  tag_65\n    /* \"#utility.yul\":1530:1536   */\n  dup3\n    /* \"#utility.yul\":1508:1537   */\n  tag_14\n  jump\t// in\ntag_65:\n    /* \"#utility.yul\":1500:1537   */\n  swap1\n  pop\n    /* \"#utility.yul\":1592:1596   */\n  0x20\n    /* \"#utility.yul\":1586:1590   */\n  dup2\n    /* \"#utility.yul\":1582:1597   */\n  add\n    /* \"#utility.yul\":1574:1597   */\n  swap1\n  pop\n    /* \"#utility.yul\":1296:1604   */\n  swap2\n  swap1\n  pop\n  jump\t// out\n    /* \"#utility.yul\":1610:1917   */\ntag_19:\n    /* \"#utility.yul\":1678:1679   */\n  0x00\n    /* \"#utility.yul\":1688:1801   */\ntag_67:\n    /* \"#utility.yul\":1702:1708   */\n  dup4\n    /* \"#utility.yul\":1699:1700   */\n  dup2\n    /* \"#utility.yul\":1696:1709   */\n  lt\n    /* \"#utility.yul\":1688:1801   */\n  iszero\n  tag_69\n  jumpi\n    /* \"#utility.yul\":1787:1788   */\n  dup1\n    /* \"#utility.yul\":1782:1785   */\n  dup3\n    /* \"#utility.yul\":1778:1789   */\n  add\n    /* \"#utility.yul\":1772:1790   */\n  mload\n    /* \"#utility.yul\":1768:1769   */\n  dup2\n    /* \"#utility.yul\":1763:1766   */\n  dup5\n    /* \"#utility.yul\":1759:1770   */\n  add\n    /* \"#utility.yul\":1752:1791   */\n  mstore\n    /* \"#utility.yul\":1724:1726   */\n  0x20\n    /* \"#utility.yul\":1721:1722   */\n  dup2\n    /* \"#utility.yul\":1717:1727   */\n  add\n    /* \"#utility.yul\":1712:1727   */\n  swap1\n  pop\n    /* \"#utility.yul\":1688:1801   */\n  jump(tag_67)\ntag_69:\n    /* \"#utility.yul\":1819:1825   */\n  dup4\n    /* \"#utility.yul\":1816:1817   */\n  dup2\n    /* \"#utility.yul\":1813:1826   */\n  gt\n    /* \"#utility.yul\":1810:1911   */\n  iszero\n  tag_70\n  jumpi\n    /* \"#utility.yul\":1899:1900   */\n  0x00\n    /* \"#utility.yul\":1890:1896   */\n  dup5\n    /* \"#utility.yul\":1885:1888   */\n  dup5\n    /* \"#utility.yul\":1881:1897   */\n  add\n    /* \"#utility.yul\":1874:1901   */\n  mstore\n    /* \"#utility.yul\":1810:1911   */\ntag_70:\n    /* \"#utility.yul\":1659:1917   */\n  pop\n    /* \"#utility.yul\":1610:1917   */\n  pop\n  pop\n  pop\n  jump\t// out\n    /* \"#utility.yul\":1923:2344   */\ntag_20:\n    /* \"#utility.yul\":2012:2017   */\n  0x00\n    /* \"#utility.yul\":2037:2103   */\n  tag_72\n    /* \"#utility.yul\":2053:2102   */\n  tag_73\n    /* \"#utility.yul\":2095:2101   */\n  dup5\n    /* \"#utility.yul\":2053:2102   */\n  tag_18\n  jump\t// in\ntag_73:\n    /* \"#utility.yul\":2037:2103   */\n  tag_17\n  jump\t// in\ntag_72:\n    /* \"#utility.yul\":2028:2103   */\n  swap1\n  pop\n    /* \"#utility.yul\":2126:2132   */\n  dup3\n    /* \"#utility.yul\":2119:2124   */\n  dup2\n    /* \"#utility.yul\":2112:2133   */\n  mstore\n    /* \"#utility.yul\":2164:2168   */\n  0x20\n    /* \"#utility.yul\":2157:2162   */\n  dup2\n    /* \"#utility.yul\":2153:2169   */\n  add\n    /* \"#utility.yul\":2202:2205   */\n  dup5\n    /* \"#utility.yul\":2193:2199   */\n  dup5\n    /* \"#utility.yul\":2188:2191   */\n  dup5\n    /* \"#utility.yul\":2184:2200   */\n  add\n    /* \"#utility.yul\":2181:2206   */\n  gt\n    /* \"#utility.yul\":2178:2290   */\n  iszero\n  tag_74\n  jumpi\n    /* \"#utility.yul\":2209:2288   */\n  tag_75\n  tag_13\n  jump\t// in\ntag_75:\n    /* \"#utility.yul\":2178:2290   */\ntag_74:\n    /* \"#utility.yul\":2299:2338   */\n  tag_76\n    /* \"#utility.yul\":2331:2337   */\n  dup5\n    /* \"#utility.yul\":2326:2329   */\n  dup3\n    /* \"#utility.yul\":2321:2324   */\n  dup6\n    /* \"#utility.yul\":2299:2338   */\n  tag_19\n  jump\t// in\ntag_76:\n    /* \"#utility.yul\":2018:2344   */\n  pop\n    /* \"#utility.yul\":1923:2344   */\n  swap4\n  swap3\n  pop\n  pop\n  pop\n  jump\t// out\n    /* \"#utility.yul\":2364:2719   */\ntag_21:\n    /* \"#utility.yul\":2431:2436   */\n  0x00\n    /* \"#utility.yul\":2480:2483   */\n  dup3\n    /* \"#utility.yul\":2473:2477   */\n  0x1f\n    /* \"#utility.yul\":2465:2471   */\n  dup4\n    /* \"#utility.yul\":2461:2478   */\n  add\n    /* \"#utility.yul\":2457:2484   */\n  slt\n    /* \"#utility.yul\":2447:2569   */\n  tag_78\n  jumpi\n    /* \"#utility.yul\":2488:2567   */\n  tag_79\n  tag_12\n  jump\t// in\ntag_79:\n    /* \"#utility.yul\":2447:2569   */\ntag_78:\n    /* \"#utility.yul\":2598:2604   */\n  dup2\n    /* \"#utility.yul\":2592:2605   */\n  mload\n    /* \"#utility.yul\":2623:2713   */\n  tag_80\n    /* \"#utility.yul\":2709:2712   */\n  dup5\n    /* \"#utility.yul\":2701:2707   */\n  dup3\n    /* \"#utility.yul\":2694:2698   */\n  0x20\n    /* \"#utility.yul\":2686:2692   */\n  dup7\n    /* \"#utility.yul\":2682:2699   */\n  add\n    /* \"#utility.yul\":2623:2713   */\n  tag_20\n  jump\t// in\ntag_80:\n    /* \"#utility.yul\":2614:2713   */\n  swap2\n  pop\n    /* \"#utility.yul\":2437:2719   */\n  pop\n    /* \"#utility.yul\":2364:2719   */\n  swap3\n  swap2\n  pop\n  pop\n  jump\t// out\n    /* \"#utility.yul\":2725:2802   */\ntag_22:\n    /* \"#utility.yul\":2762:2769   */\n  0x00\n    /* \"#utility.yul\":2791:2796   */\n  dup2\n    /* \"#utility.yul\":2780:2796   */\n  swap1\n  pop\n    /* \"#utility.yul\":2725:2802   */\n  swap2\n  swap1\n  pop\n  jump\t// out\n    /* \"#utility.yul\":2808:2930   */\ntag_23:\n    /* \"#utility.yul\":2881:2905   */\n  tag_83\n    /* \"#utility.yul\":2899:2904   */\n  dup2\n    /* \"#utility.yul\":2881:2905   */\n  tag_22\n  jump\t// in\ntag_83:\n    /* \"#utility.yul\":2874:2879   */\n  dup2\n    /* \"#utility.yul\":2871:2906   */\n  eq\n    /* \"#utility.yul\":2861:2924   */\n  tag_84\n  jumpi\n    /* \"#utility.yul\":2920:2921   */\n  0x00\n    /* \"#utility.yul\":2917:2918   */\n  dup1\n    /* \"#utility.yul\":2910:2922   */\n  revert\n    /* \"#utility.yul\":2861:2924   */\ntag_84:\n    /* \"#utility.yul\":2808:2930   */\n  pop\n  jump\t// out\n    /* \"#utility.yul\":2936:3079   */\ntag_24:\n    /* \"#utility.yul\":2993:2998   */\n  0x00\n    /* \"#utility.yul\":3024:3030   */\n  dup2\n    /* \"#utility.yul\":3018:3031   */\n  mload\n    /* \"#utility.yul\":3009:3031   */\n  swap1\n  pop\n    /* \"#utility.yul\":3040:3073   */\n  tag_86\n    /* \"#utility.yul\":3067:3072   */\n  dup2\n    /* \"#utility.yul\":3040:3073   */\n  tag_23\n  jump\t// in\ntag_86:\n    /* \"#utility.yul\":2936:3079   */\n  swap3\n  swap2\n  pop\n  pop\n  jump\t// out\n    /* \"#utility.yul\":3085:3211   */\ntag_25:\n    /* \"#utility.yul\":3122:3129   */\n  0x00\n    /* \"#utility.yul\":3162:3204   */\n  0xffffffffffffffffffffffffffffffffffffffff\n    /* \"#utility.yul\":3155:3160   */\n  dup3\n    /* \"#utility.yul\":3151:3205   */\n  and\n    /* \"#utility.yul\":3140:3205   */\n  swap1\n  pop\n    /* \"#utility.yul\":3085:3211   */\n  swap2\n  swap1\n  pop\n  jump\t// out\n    /* \"#utility.yul\":3217:3313   */\ntag_26:\n    /* \"#utility.yul\":3254:3261   */\n  0x00\n    /* \"#utility.yul\":3283:3307   */\n  tag_89\n    /* \"#utility.yul\":3301:3306   */\n  dup3\n    /* \"#utility.yul\":3283:3307   */\n  tag_25\n  jump\t// in\ntag_89:\n    /* \"#utility.yul\":3272:3307   */\n  swap1\n  pop\n    /* \"#utility.yul\":3217:3313   */\n  swap2\n  swap1\n  pop\n  jump\t// out\n    /* \"#utility.yul\":3319:3441   */\ntag_27:\n    /* \"#utility.yul\":3392:3416   */\n  tag_91\n    /* \"#utility.yul\":3410:3415   */\n  dup2\n    /* \"#utility.yul\":3392:3416   */\n  tag_26\n  jump\t// in\ntag_91:\n    /* \"#utility.yul\":3385:3390   */\n  dup2\n    /* \"#utility.yul\":3382:3417   */\n  eq\n    /* \"#utility.yul\":3372:3435   */\n  tag_92\n  jumpi\n    /* \"#utility.yul\":3431:3432   */\n  0x00\n    /* \"#utility.yul\":3428:3429   */\n  dup1\n    /* \"#utility.yul\":3421:3433   */\n  revert\n    /* \"#utility.yul\":3372:3435   */\ntag_92:\n    /* \"#utility.yul\":3319:3441   */\n  pop\n  jump\t// out\n    /* \"#utility.yul\":3447:3590   */\ntag_28:\n    /* \"#utility.yul\":3504:3509   */\n  0x00\n    /* \"#utility.yul\":3535:3541   */\n  dup2\n    /* \"#utility.yul\":3529:3542   */\n  mload\n    /* \"#utility.yul\":3520:3542   */\n  swap1\n  pop\n    /* \"#utility.yul\":3551:3584   */\n  tag_94\n    /* \"#utility.yul\":3578:3583   */\n  dup2\n    /* \"#utility.yul\":3551:3584   */\n  tag_27\n  jump\t// in\ntag_94:\n    /* \"#utility.yul\":3447:3590   */\n  swap3\n  swap2\n  pop\n  pop\n  jump\t// out\n    /* \"#utility.yul\":3596:4432   */\ntag_3:\n    /* \"#utility.yul\":3694:3700   */\n  0x00\n    /* \"#utility.yul\":3702:3708   */\n  dup1\n    /* \"#utility.yul\":3710:3716   */\n  0x00\n    /* \"#utility.yul\":3759:3761   */\n  0x60\n    /* \"#utility.yul\":3747:3756   */\n  dup5\n    /* \"#utility.yul\":3738:3745   */\n  dup7\n    /* \"#utility.yul\":3734:3757   */\n  sub\n    /* \"#utility.yul\":3730:3762   */\n  slt\n    /* \"#utility.yul\":3727:3846   */\n  iszero\n  tag_96\n  jumpi\n    /* \"#utility.yul\":3765:3844   */\n  tag_97\n  tag_10\n  jump\t// in\ntag_97:\n    /* \"#utility.yul\":3727:3846   */\ntag_96:\n    /* \"#utility.yul\":3906:3907   */\n  0x00\n    /* \"#utility.yul\":3895:3904   */\n  dup5\n    /* \"#utility.yul\":3891:3908   */\n  add\n    /* \"#utility.yul\":3885:3909   */\n  mload\n    /* \"#utility.yul\":3936:3954   */\n  0xffffffffffffffff\n    /* \"#utility.yul\":3928:3934   */\n  dup2\n    /* \"#utility.yul\":3925:3955   */\n  gt\n    /* \"#utility.yul\":3922:4039   */\n  iszero\n  tag_98\n  jumpi\n    /* \"#utility.yul\":3958:4037   */\n  tag_99\n  tag_11\n  jump\t// in\ntag_99:\n    /* \"#utility.yul\":3922:4039   */\ntag_98:\n    /* \"#utility.yul\":4063:4137   */\n  tag_100\n    /* \"#utility.yul\":4129:4136   */\n  dup7\n    /* \"#utility.yul\":4120:4126   */\n  dup3\n    /* \"#utility.yul\":4109:4118   */\n  dup8\n    /* \"#utility.yul\":4105:4127   */\n  add\n    /* \"#utility.yul\":4063:4137   */\n  tag_21\n  jump\t// in\ntag_100:\n    /* \"#utility.yul\":4053:4137   */\n  swap4\n  pop\n    /* \"#utility.yul\":3856:4147   */\n  pop\n    /* \"#utility.yul\":4186:4188   */\n  0x20\n    /* \"#utility.yul\":4212:4276   */\n  tag_101\n    /* \"#utility.yul\":4268:4275   */\n  dup7\n    /* \"#utility.yul\":4259:4265   */\n  dup3\n    /* \"#utility.yul\":4248:4257   */\n  dup8\n    /* \"#utility.yul\":4244:4266   */\n  add\n    /* \"#utility.yul\":4212:4276   */\n  tag_24\n  jump\t// in\ntag_101:\n    /* \"#utility.yul\":4202:4276   */\n  swap3\n  pop\n    /* \"#utility.yul\":4157:4286   */\n  pop\n    /* \"#utility.yul\":4325:4327   */\n  0x40\n    /* \"#utility.yul\":4351:4415   */\n  tag_102\n    /* \"#utility.yul\":4407:4414   */\n  dup7\n    /* \"#utility.yul\":4398:4404   */\n  dup3\n    /* \"#utility.yul\":4387:4396   */\n  dup8\n    /* \"#utility.yul\":4383:4405   */\n  add\n    /* \"#utility.yul\":4351:4415   */\n  tag_28\n  jump\t// in\ntag_102:\n    /* \"#utility.yul\":4341:4415   */\n  swap2\n  pop\n    /* \"#utility.yul\":4296:4425   */\n  pop\n    /* \"#utility.yul\":3596:4432   */\n  swap3\n  pop\n  swap3\n  pop\n  swap3\n  jump\t// out\n    /* \"#utility.yul\":4438:4537   */\ntag_29:\n    /* \"#utility.yul\":4490:4496   */\n  0x00\n    /* \"#utility.yul\":4524:4529   */\n  dup2\n    /* \"#utility.yul\":4518:4530   */\n  mload\n    /* \"#utility.yul\":4508:4530   */\n  swap1\n  pop\n    /* \"#utility.yul\":4438:4537   */\n  swap2\n  swap1\n  pop\n  jump\t// out\n    /* \"#utility.yul\":4543:4723   */\ntag_30:\n    /* \"#utility.yul\":4591:4668   */\n  0x4e487b7100000000000000000000000000000000000000000000000000000000\n    /* \"#utility.yul\":4588:4589   */\n  0x00\n    /* \"#utility.yul\":4581:4669   */\n  mstore\n    /* \"#utility.yul\":4688:4692   */\n  0x22\n    /* \"#utility.yul\":4685:4686   */\n  0x04\n    /* \"#utility.yul\":4678:4693   */\n  mstore\n    /* \"#utility.yul\":4712:4716   */\n  0x24\n    /* \"#utility.yul\":4709:4710   */\n  0x00\n    /* \"#utility.yul\":4702:4717   */\n  revert\n    /* \"#utility.yul\":4729:5049   */\ntag_31:\n    /* \"#utility.yul\":4773:4779   */\n  0x00\n    /* \"#utility.yul\":4810:4811   */\n  0x02\n    /* \"#utility.yul\":4804:4808   */\n  dup3\n    /* \"#utility.yul\":4800:4812   */\n  div\n    /* \"#utility.yul\":4790:4812   */\n  swap1\n  pop\n    /* \"#utility.yul\":4857:4858   */\n  0x01\n    /* \"#utility.yul\":4851:4855   */\n  dup3\n    /* \"#utility.yul\":4847:4859   */\n  and\n    /* \"#utility.yul\":4878:4896   */\n  dup1\n    /* \"#utility.yul\":4868:4949   */\n  tag_106\n  jumpi\n    /* \"#utility.yul\":4934:4938   */\n  0x7f\n    /* \"#utility.yul\":4926:4932   */\n  dup3\n    /* \"#utility.yul\":4922:4939   */\n  and\n    /* \"#utility.yul\":4912:4939   */\n  swap2\n  pop\n    /* \"#utility.yul\":4868:4949   */\ntag_106:\n    /* \"#utility.yul\":4996:4998   */\n  0x20\n    /* \"#utility.yul\":4988:4994   */\n  dup3\n    /* \"#utility.yul\":4985:4999   */\n  lt\n    /* \"#utility.yul\":4965:4983   */\n  dup2\n    /* \"#utility.yul\":4962:5000   */\n  sub\n    /* \"#utility.yul\":4959:5043   */\n  tag_107\n  jumpi\n    /* \"#utility.yul\":5015:5033   */\n  tag_108\n  tag_30\n  jump\t// in\ntag_108:\n    /* \"#utility.yul\":4959:5043   */\ntag_107:\n    /* \"#utility.yul\":4780:5049   */\n  pop\n    /* \"#utility.yul\":4729:5049   */\n  swap2\n  swap1\n  pop\n  jump\t// out\n    /* \"#utility.yul\":5055:5196   */\ntag_32:\n    /* \"#utility.yul\":5104:5108   */\n  0x00\n    /* \"#utility.yul\":5127:5130   */\n  dup2\n    /* \"#utility.yul\":5119:5130   */\n  swap1\n  pop\n    /* \"#utility.yul\":5150:5153   */\n  dup2\n    /* \"#utility.yul\":5147:5148   */\n  0x00\n    /* \"#utility.yul\":5140:5154   */\n  mstore\n    /* \"#utility.yul\":5184:5188   */\n  0x20\n    /* \"#utility.yul\":5181:5182   */\n  0x00\n    /* \"#utility.yul\":5171:5189   */\n  keccak256\n    /* \"#utility.yul\":5163:5189   */\n  swap1\n  pop\n    /* \"#utility.yul\":5055:5196   */\n  swap2\n  swap1\n  pop\n  jump\t// out\n    /* \"#utility.yul\":5202:5295   */\ntag_33:\n    /* \"#utility.yul\":5239:5245   */\n  0x00\n    /* \"#utility.yul\":5286:5288   */\n  0x20\n    /* \"#utility.yul\":5281:5283   */\n  0x1f\n    /* \"#utility.yul\":5274:5279   */\n  dup4\n    /* \"#utility.yul\":5270:5284   */\n  add\n    /* \"#utility.yul\":5266:5289   */\n  div\n    /* \"#utility.yul\":5256:5289   */\n  swap1\n  pop\n    /* \"#utility.yul\":5202:5295   */\n  swap2\n  swap1\n  pop\n  jump\t// out\n    /* \"#utility.yul\":5301:5408   */\ntag_34:\n    /* \"#utility.yul\":5345:5353   */\n  0x00\n    /* \"#utility.yul\":5395:5400   */\n  dup3\n    /* \"#utility.yul\":5389:5393   */\n  dup3\n    /* \"#utility.yul\":5385:5401   */\n  shl\n    /* \"#utility.yul\":5364:5401   */\n  swap1\n  pop\n    /* \"#utility.yul\":5301:5408   */\n  swap3\n  swap2\n  pop\n  pop\n  jump\t// out\n    /* \"#utility.yul\":5414:5807   */\ntag_35:\n    /* \"#utility.yul\":5483:5489   */\n  0x00\n    /* \"#utility.yul\":5533:5534   */\n  0x08\n    /* \"#utility.yul\":5521:5531   */\n  dup4\n    /* \"#utility.yul\":5517:5535   */\n  mul\n    /* \"#utility.yul\":5556:5653   */\n  tag_113\n    /* \"#utility.yul\":5586:5652   */\n  0xffffffffffffffffffffffffffffffffffffffffffffffffffffffffffffffff\n    /* \"#utility.yul\":5575:5584   */\n  dup3\n    /* \"#utility.yul\":5556:5653   */\n  tag_34\n  jump\t// in\ntag_113:\n    /* \"#utility.yul\":5674:5713   */\n  tag_114\n    /* \"#utility.yul\":5704:5712   */\n  dup7\n    /* \"#utility.yul\":5693:5702   */\n  dup4\n    /* \"#utility.yul\":5674:5713   */\n  tag_34\n  jump\t// in\ntag_114:\n    /* \"#utility.yul\":5662:5713   */\n  swap6\n  pop\n    /* \"#utility.yul\":5746:5750   */\n  dup1\n    /* \"#utility.yul\":5742:5751   */\n  not\n    /* \"#utility.yul\":5735:5740   */\n  dup5\n    /* \"#utility.yul\":5731:5752   */\n  and\n    /* \"#utility.yul\":5722:5752   */\n  swap4\n  pop\n    /* \"#utility.yul\":5795:5799   */\n  dup1\n    /* \"#utility.yul\":5785:5793   */\n  dup7\n    /* \"#utility.yul\":5781:5800   */\n  and\n    /* \"#utility.yul\":5774:5779   */\n  dup5\n    /* \"#utility.yul\":5771:5801   */\n  or\n    /* \"#utility.yul\":5761:5801   */\n  swap3\n  pop\n    /* \"#utility.yul\":5490:5807   */\n  pop\n  pop\n    /* \"#utility.yul\":5414:5807   */\n  swap4\n  swap3\n  pop\n  pop\n  pop\n  jump\t// out\n    /* \"#utility.yul\":5813:5873   */\ntag_36:\n    /* \"#utility.yul\":5841:5844   */\n  0x00\n    /* \"#utility.yul\":5862:5867   */\n  dup2\n    /* \"#utility.yul\":5855:5867   */\n  swap1\n  pop\n    /* \"#utility.yul\":5813:5873   */\n  swap2\n  swap1\n  pop\n  jump\t// out\n    /* \"#utility.yul\":5879:6021   */\ntag_37:\n    /* \"#utility.yul\":5929:5938   */\n  0x00\n    /* \"#utility.yul\":5962:6015   */\n  tag_117\n    /* \"#utility.yul\":5980:6014   */\n  tag_118\n    /* \"#utility.yul\":5989:6013   */\n  tag_119\n    /* \"#utility.yul\":6007:6012   */\n  dup5\n    /* \"#utility.yul\":5989:6013   */\n  tag_22\n  jump\t// in\ntag_119:\n    /* \"#utility.yul\":5980:6014   */\n  tag_36\n  jump\t// in\ntag_118:\n    /* \"#utility.yul\":5962:6015   */\n  tag_22\n  jump\t// in\ntag_117:\n    /* \"#utility.yul\":5949:6015   */\n  swap1\n  pop\n    /* \"#utility.yul\":5879:6021   */\n  swap2\n  swap1\n  pop\n  jump\t// out\n    /* \"#utility.yul\":6027:6102   */\ntag_38:\n    /* \"#utility.yul\":6070:6073   */\n  0x00\n    /* \"#utility.yul\":6091:6096   */\n  dup2\n    /* \"#utility.yul\":6084:6096   */\n  swap1\n  pop\n    /* \"#utility.yul\":6027:6102   */\n  swap2\n  swap1\n  pop\n  jump\t// out\n    /* \"#utility.yul\":6108:6377   */\ntag_39:\n    /* \"#utility.yul\":6218:6257   */\n  tag_122\n    /* \"#utility.yul\":6249:6256   */\n  dup4\n    /* \"#utility.yul\":6218:6257   */\n  tag_37\n  jump\t// in\ntag_122:\n    /* \"#utility.yul\":6279:6370   */\n  tag_123\n    /* \"#utility.yul\":6328:6369   */\n  tag_124\n    /* \"#utility.yul\":6352:6368   */\n  dup3\n    /* \"#utility.yul\":6328:6369   */\n  tag_38\n  jump\t// in\ntag_124:\n    /* \"#utility.yul\":6320:6326   */\n  dup5\n    /* \"#utility.yul\":6313:6317   */\n  dup5\n    /* \"#utility.yul\":6307:6318   */\n  sload\n    /* \"#utility.yul\":6279:6370   */\n  tag_35\n  jump\t// in\ntag_123:\n    /* \"#utility.yul\":6273:6277   */\n  dup3\n    /* \"#utility.yul\":6266:6371   */\n  sstore\n    /* \"#utility.yul\":6184:6377   */\n  pop\n    /* \"#utility.yul\":6108:6377   */\n  pop\n  pop\n  pop\n  jump\t// out\n    /* \"#utility.yul\":6383:6456   */\ntag_40:\n    /* \"#utility.yul\":6428:6431   */\n  0x00\n    /* \"#utility.yul\":6383:6456   */\n  swap1\n  jump\t// out\n    /* \"#utility.yul\":6462:6651   */\ntag_41:\n    /* \"#utility.yul\":6539:6571   */\n  tag_127\n  tag_40\n  jump\t// in\ntag_127:\n    /* \"#utility.yul\":6580:6645   */\n  tag_128\n    /* \"#utility.yul\":6638:6644   */\n  dup2\n    /* \"#utility.yul\":6630:6636   */\n  dup5\n    /* \"#utility.yul\":6624:6628   */\n  dup5\n    /* \"#utility.yul\":6580:6645   */\n  tag_39\n  jump\t// in\ntag_128:\n    /* \"#utility.yul\":6515:6651   */\n  pop\n    /* \"#utility.yul\":6462:6651   */\n  pop\n  pop\n  jump\t// out\n    /* \"#utility.yul\":6657:6843   */\ntag_42:\n    /* \"#utility.yul\":6717:6837   */\ntag_130:\n    /* \"#utility.yul\":6734:6737   */\n  dup2\n    /* \"#utility.yul\":6727:6732   */\n  dup2\n    /* \"#utility.yul\":6724:6738   */\n  lt\n    /* \"#utility.yul\":6717:6837   */\n  iszero\n  tag_132\n  jumpi\n    /* \"#utility.yul\":6788:6827   */\n  tag_133\n    /* \"#utility.yul\":6825:6826   */\n  0x00\n    /* \"#utility.yul\":6818:6823   */\n  dup3\n    /* \"#utility.yul\":6788:6827   */\n  tag_41\n  jump\t// in\ntag_133:\n    /* \"#utility.yul\":6761:6762   */\n  0x01\n    /* \"#utility.yul\":6754:6759   */\n  dup2\n    /* \"#utility.yul\":6750:6763   */\n  add\n    /* \"#utility.yul\":6741:6763   */\n  swap1\n  pop\n    /* \"#utility.yul\":6717:6837   */\n  jump(tag_130)\ntag_132:\n    /* \"#utility.yul\":6657:6843   */\n  pop\n  pop\n  jump\t// out\n    /* \"#utility.yul\":6849:7392   */\ntag_43:\n    /* \"#utility.yul\":6950:6952   */\n  0x1f\n    /* \"#utility.yul\":6945:6948   */\n  dup3\n    /* \"#utility.yul\":6942:6953   */\n  gt\n    /* \"#utility.yul\":6939:7385   */\n  iszero\n  tag_135\n  jumpi\n    /* \"#utility.yul\":6984:7022   */\n  tag_136\n    /* \"#utility.yul\":7016:7021   */\n  dup2\n    /* \"#utility.yul\":6984:7022   */\n  tag_32\n  jump\t// in\ntag_136:\n    /* \"#utility.yul\":7068:7097   */\n  tag_137\n    /* \"#utility.yul\":7086:7096   */\n  dup5\n    /* \"#utility.yul\":7068:7097   */\n  tag_33\n  jump\t// in\ntag_137:\n    /* \"#utility.yul\":7058:7066   */\n  dup2\n    /* \"#utility.yul\":7054:7098   */\n  add\n    /* \"#utility.yul\":7251:7253   */\n  0x20\n    /* \"#utility.yul\":7239:7249   */\n  dup6\n    /* \"#utility.yul\":7236:7254   */\n  lt\n    /* \"#utility.yul\":7233:7282   */\n  iszero\n  tag_138\n  jumpi\n    /* \"#utility.yul\":7272:7280   */\n  dup2\n    /* \"#utility.yul\":7257:7280   */\n  swap1\n  pop\n    /* \"#utility.yul\":7233:7282   */\ntag_138:\n    /* \"#utility.yul\":7295:7375   */\n  tag_139\n    /* \"#utility.yul\":7351:7373   */\n  tag_140\n    /* \"#utility.yul\":7369:7372   */\n  dup6\n    /* \"#utility.yul\":7351:7373   */\n  tag_33\n  jump\t// in\ntag_140:\n    /* \"#utility.yul\":7341:7349   */\n  dup4\n    /* \"#utility.yul\":7337:7374   */\n  add\n    /* \"#utility.yul\":7324:7335   */\n  dup3\n    /* \"#utility.yul\":7295:7375   */\n  tag_42\n  jump\t// in\ntag_139:\n    /* \"#utility.yul\":6954:7385   */\n  pop\n  pop\n    /* \"#utility.yul\":6939:7385   */\ntag_135:\n    /* \"#utility.yul\":6849:7392   */\n  pop\n  pop\n  pop\n  jump\t// out\n    /* \"#utility.yul\":7398:7515   */\ntag_44:\n    /* \"#utility.yul\":7452:7460   */\n  0x00\n    /* \"#utility.yul\":7502:7507   */\n  dup3\n    /* \"#utility.yul\":7496:7500   */\n  dup3\n    /* \"#utility.yul\":7492:7508   */\n  shr\n    /* \"#utility.yul\":7471:7508   */\n  swap1\n  pop\n    /* \"#utility.yul\":7398:7515   */\n  swap3\n  swap2\n  pop\n  pop\n  jump\t// out\n    /* \"#utility.yul\":7521:7690   */\ntag_45:\n    /* \"#utility.yul\":7565:7571   */\n  0x00\n    /* \"#utility.yul\":7598:7649   */\n  tag_143\n    /* \"#utility.yul\":7646:7647   */\n  0x00\n    /* \"#utility.yul\":7642:7648   */\n  not\n    /* \"#utility.yul\":7634:7639   */\n  dup5\n    /* \"#utility.yul\":7631:7632   */\n  0x08\n    /* \"#utility.yul\":7627:7640   */\n  mul\n    /* \"#utility.yul\":7598:7649   */\n  tag_44\n  jump\t// in\ntag_143:\n    /* \"#utility.yul\":7594:7650   */\n  not\n    /* \"#utility.yul\":7679:7683   */\n  dup1\n    /* \"#utility.yul\":7673:7677   */\n  dup4\n    /* \"#utility.yul\":7669:7684   */\n  and\n    /* \"#utility.yul\":7659:7684   */\n  swap2\n  pop\n    /* \"#utility.yul\":7572:7690   */\n  pop\n    /* \"#utility.yul\":7521:7690   */\n  swap3\n  swap2\n  pop\n  pop\n  jump\t// out\n    /* \"#utility.yul\":7695:7990   */\ntag_46:\n    /* \"#utility.yul\":7771:7775   */\n  0x00\n    /* \"#utility.yul\":7917:7946   */\n  tag_145\n    /* \"#utility.yul\":7942:7945   */\n  dup4\n    /* \"#utility.yul\":7936:7940   */\n  dup4\n    /* \"#utility.yul\":7917:7946   */\n  tag_45\n  jump\t// in\ntag_145:\n    /* \"#utility.yul\":7909:7946   */\n  swap2\n  pop\n    /* \"#utility.yul\":7979:7982   */\n  dup3\n    /* \"#utility.yul\":7976:7977   */\n  0x02\n    /* \"#utility.yul\":7972:7983   */\n  mul\n    /* \"#utility.yul\":7966:7970   */\n  dup3\n    /* \"#utility.yul\":7963:7984   */\n  or\n    /* \"#utility.yul\":7955:7984   */\n  swap1\n  pop\n    /* \"#utility.yul\":7695:7990   */\n  swap3\n  swap2\n  pop\n  pop\n  jump\t// out\n    /* \"#utility.yul\":7995:9390   */\ntag_7:\n    /* \"#utility.yul\":8112:8149   */\n  tag_147\n    /* \"#utility.yul\":8145:8148   */\n  dup3\n    /* \"#utility.yul\":8112:8149   */\n  tag_29\n  jump\t// in\ntag_147:\n    /* \"#utility.yul\":8214:8232   */\n  0xffffffffffffffff\n    /* \"#utility.yul\":8206:8212   */\n  dup2\n    /* \"#utility.yul\":8203:8233   */\n  gt\n    /* \"#utility.yul\":8200:8256   */\n  iszero\n  tag_148\n  jumpi\n    /* \"#utility.yul\":8236:8254   */\n  tag_149\n  tag_15\n  jump\t// in\ntag_149:\n    /* \"#utility.yul\":8200:8256   */\ntag_148:\n    /* \"#utility.yul\":8280:8318   */\n  tag_150\n    /* \"#utility.yul\":8312:8316   */\n  dup3\n    /* \"#utility.yul\":8306:8317   */\n  sload\n    /* \"#utility.yul\":8280:8318   */\n  tag_31\n  jump\t// in\ntag_150:\n    /* \"#utility.yul\":8365:8432   */\n  tag_151\n    /* \"#utility.yul\":8425:8431   */\n  dup3\n    /* \"#utility.yul\":8417:8423   */\n  dup3\n    /* \"#utility.yul\":8411:8415   */\n  dup6\n    /* \"#utility.yul\":8365:8432   */\n  tag_43\n  jump\t// in\ntag_151:\n    /* \"#utility.yul\":8459:8460   */\n  0x00\n    /* \"#utility.yul\":8483:8487   */\n  0x20\n    /* \"#utility.yul\":8470:8487   */\n  swap1\n  pop\n    /* \"#utility.yul\":8515:8517   */\n  0x1f\n    /* \"#utility.yul\":8507:8513   */\n  dup4\n    /* \"#utility.yul\":8504:8518   */\n  gt\n    /* \"#utility.yul\":8532:8533   */\n  0x01\n    /* \"#utility.yul\":8527:9145   */\n  dup2\n  eq\n  tag_153\n  jumpi\n    /* \"#utility.yul\":9189:9190   */\n  0x00\n    /* \"#utility.yul\":9206:9212   */\n  dup5\n    /* \"#utility.yul\":9203:9280   */\n  iszero\n  tag_154\n  jumpi\n    /* \"#utility.yul\":9255:9264   */\n  dup3\n    /* \"#utility.yul\":9250:9253   */\n  dup8\n    /* \"#utility.yul\":9246:9265   */\n  add\n    /* \"#utility.yul\":9240:9266   */\n  mload\n    /* \"#utility.yul\":9231:9266   */\n  swap1\n  pop\n    /* \"#utility.yul\":9203:9280   */\ntag_154:\n    /* \"#utility.yul\":9306:9373   */\n  tag_155\n    /* \"#utility.yul\":9366:9372   */\n  dup6\n    /* \"#utility.yul\":9359:9364   */\n  dup3\n    /* \"#utility.yul\":9306:9373   */\n  tag_46\n  jump\t// in\ntag_155:\n    /* \"#utility.yul\":9300:9304   */\n  dup7\n    /* \"#utility.yul\":9293:9374   */\n  sstore\n    /* \"#utility.yul\":9162:9384   */\n  pop\n    /* \"#utility.yul\":8497:9384   */\n  jump(tag_152)\n    /* \"#utility.yul\":8527:9145   */\ntag_153:\n    /* \"#utility.yul\":8579:8583   */\n  0x1f\n    /* \"#utility.yul\":8575:8584   */\n  not\n    /* \"#utility.yul\":8567:8573   */\n  dup5\n    /* \"#utility.yul\":8563:8585   */\n  and\n    /* \"#utility.yul\":8613:8650   */\n  tag_156\n    /* \"#utility.yul\":8645:8649   */\n  dup7\n    /* \"#utility.yul\":8613:8650   */\n  tag_32\n  jump\t// in\ntag_156:\n    /* \"#utility.yul\":8672:8673   */\n  0x00\n    /* \"#utility.yul\":8686:8894   */\ntag_157:\n    /* \"#utility.yul\":8700:8707   */\n  dup3\n    /* \"#utility.yul\":8697:8698   */\n  dup2\n    /* \"#utility.yul\":8694:8708   */\n  lt\n    /* \"#utility.yul\":8686:8894   */\n  iszero\n  tag_159\n  jumpi\n    /* \"#utility.yul\":8779:8788   */\n  dup5\n    /* \"#utility.yul\":8774:8777   */\n  dup10\n    /* \"#utility.yul\":8770:8789   */\n  add\n    /* \"#utility.yul\":8764:8790   */\n  mload\n    /* \"#utility.yul\":8756:8762   */\n  dup3\n    /* \"#utility.yul\":8749:8791   */\n  sstore\n    /* \"#utility.yul\":8830:8831   */\n  0x01\n    /* \"#utility.yul\":8822:8828   */\n  dup3\n    /* \"#utility.yul\":8818:8832   */\n  add\n    /* \"#utility.yul\":8808:8832   */\n  swap2\n  pop\n    /* \"#utility.yul\":8877:8879   */\n  0x20\n    /* \"#utility.yul\":8866:8875   */\n  dup6\n    /* \"#utility.yul\":8862:8880   */\n  add\n    /* \"#utility.yul\":8849:8880   */\n  swap5\n  pop\n    /* \"#utility.yul\":8723:8727   */\n  0x20\n    /* \"#utility.yul\":8720:8721   */\n  dup2\n    /* \"#utility.yul\":8716:8728   */\n  add\n    /* \"#utility.yul\":8711:8728   */\n  swap1\n  pop\n    /* \"#utility.yul\":8686:8894   */\n  jump(tag_157)\ntag_159:\n    /* \"#utility.yul\":8922:8928   */\n  dup7\n    /* \"#utility.yul\":8913:8920   */\n  dup4\n    /* \"#utility.yul\":8910:8929   */\n  lt\n    /* \"#utility.yul\":8907:9086   */\n  iszero\n  tag_160\n  jumpi\n    /* \"#utility.yul\":8980:8989   */\n  dup5\n    /* \"#utility.yul\":8975:8978   */\n  dup10\n    /* \"#utility.yul\":8971:8990   */\n  add\n    /* \"#utility.yul\":8965:8991   */\n  mload\n    /* \"#utility.yul\":9023:9071   */\n  tag_161\n    /* \"#utility.yul\":9065:9069   */\n  0x1f\n    /* \"#utility.yul\":9057:9063   */\n  dup10\n    /* \"#utility.yul\":9053:9070   */\n  and\n    /* \"#utility.yul\":9042:9051   */\n  dup3\n    /* \"#utility.yul\":9023:9071   */\n  tag_45\n  jump\t// in\ntag_161:\n    /* \"#utility.yul\":9015:9021   */\n  dup4\n    /* \"#utility.yul\":9008:9072   */\n  sstore\n    /* \"#utility.yul\":8930:9086   */\n  pop\n    /* \"#utility.yul\":8907:9086   */\ntag_160:\n    /* \"#utility.yul\":9132:9133   */\n  0x01\n    /* \"#utility.yul\":9128:9129   */\n  0x02\n    /* \"#utility.yul\":9120:9126   */\n  dup9\n    /* \"#utility.yul\":9116:9130   */\n  mul\n    /* \"#utility.yul\":9112:9134   */\n  add\n    /* \"#utility.yul\":9106:9110   */\n  dup9\n    /* \"#utility.yul\":9099:9135   */\n  sstore\n    /* \"#utility.yul\":8534:9145   */\n  pop\n  pop\n  pop\n    /* \"#utility.yul\":8497:9384   */\ntag_152:\n  pop\n    /* \"#utility.yul\":8087:9390   */\n  pop\n  pop\n  pop\n    /* \"#utility.yul\":7995:9390   */\n  pop\n  pop\n  jump\t// out\n    /* \"Campaign.sol\":470:3365  contract Idea {... */\ntag_8:\n  dataSize(sub_0)\n  dup1\n  dataOffset(sub_0)\n  0x00\n  codecopy\n  0x00\n  return\nstop\n\nsub_0: assembly {\n        /* \"Campaign.sol\":470:3365  contract Idea {... */\n      mstore(0x40, 0x80)\n      jumpi(tag_1, lt(calldatasize, 0x04))\n      shr(0xe0, calldataload(0x00))\n      dup1\n      0x8a9cfd55\n      gt\n      tag_14\n      jumpi\n      dup1\n      0x8a9cfd55\n      eq\n      tag_8\n      jumpi\n      dup1\n      0x937e09b1\n      eq\n      tag_9\n      jumpi\n      dup1\n      0xb59d7685\n      eq\n      tag_10\n      jumpi\n      dup1\n      0xd7bb99ba\n      eq\n      tag_11\n      jumpi\n      dup1\n      0xd7d1bbdb\n      eq\n      tag_12\n      jumpi\n      dup1\n      0xe9f146a3\n      eq\n      tag_13\n      jumpi\n      jump(tag_1)\n    tag_14:\n      dup1\n      0x03441006\n      eq\n      tag_2\n      jumpi\n      dup1\n      0x34b66460\n      eq\n      tag_3\n      jumpi\n      dup1\n      0x4051ddac\n      eq\n      tag_4\n      jumpi\n      dup1\n      0x481c6a75\n      eq\n      tag_5\n      jumpi\n      dup1\n      0x6af7c375\n      eq\n      tag_6\n      jumpi\n      dup1\n      0x81d12c58\n      eq\n      tag_7\n      jumpi\n    tag_1:\n      0x00\n      dup1\n      revert\n        /* \"Campaign.sol\":2371:2919  function finalizeRequest(uint index) public restricted {... */\n    tag_2:\n      callvalue\n      dup1\n      iszero\n      tag_15\n      jumpi\n      0x00\n      dup1\n      revert\n    tag_15:\n      pop\n      tag_16\n      0x04\n      dup1\n      calldatasize\n      sub\n      dup2\n      add\n      swap1\n      tag_17\n      swap2\n      swap1\n      tag_18\n      jump\t// in\n    tag_17:\n      tag_19\n      jump\t// in\n    tag_16:\n      stop\n        /* \"Campaign.sol\":902:946  mapping(address => bool) public contributers */\n    tag_3:\n      callvalue\n      dup1\n      iszero\n      tag_20\n      jumpi\n      0x00\n      dup1\n      revert\n    tag_20:\n      pop\n      tag_21\n      0x04\n      dup1\n      calldatasize\n      sub\n      dup2\n      add\n      swap1\n      tag_22\n      swap2\n      swap1\n      tag_23\n      jump\t// in\n    tag_22:\n      tag_24\n      jump\t// in\n    tag_21:\n      mload(0x40)\n      tag_25\n      swap2\n      swap1\n      tag_26\n      jump\t// in\n    tag_25:\n      mload(0x40)\n      dup1\n      swap2\n      sub\n      swap1\n      return\n        /* \"Campaign.sol\":2927:3255  function getSummary() public view returns (... */\n    tag_4:\n      callvalue\n      dup1\n      iszero\n      tag_27\n      jumpi\n      0x00\n      dup1\n      revert\n    tag_27:\n      pop\n      tag_28\n      tag_29\n      jump\t// in\n    tag_28:\n      mload(0x40)\n      tag_30\n      swap7\n      swap6\n      swap5\n      swap4\n      swap3\n      swap2\n      swap1\n      tag_31\n      jump\t// in\n    tag_30:\n      mload(0x40)\n      dup1\n      swap2\n      sub\n      swap1\n      return\n        /* \"Campaign.sol\":748:772  address   public manager */\n    tag_5:\n      callvalue\n      dup1\n      iszero\n      tag_32\n      jumpi\n      0x00\n      dup1\n      revert\n    tag_32:\n      pop\n      tag_33\n      tag_34\n      jump\t// in\n    tag_33:\n      mload(0x40)\n      tag_35\n      swap2\n      swap1\n      tag_36\n      jump\t// in\n    tag_35:\n      mload(0x40)\n      dup1\n      swap2\n      sub\n      swap1\n      return\n        /* \"Campaign.sol\":779:811  string    public ideaDescription */\n    tag_6:\n      callvalue\n      dup1\n      iszero\n      tag_37\n      jumpi\n      0x00\n      dup1\n      revert\n    tag_37:\n      pop\n      tag_38\n      tag_39\n      jump\t// in\n    tag_38:\n      mload(0x40)\n      tag_40\n      swap2\n      swap1\n      tag_41\n      jump\t// in\n    tag_40:\n      mload(0x40)\n      dup1\n      swap2\n      sub\n      swap1\n      return\n        /* \"Campaign.sol\":716:741  Request[] public requests */\n    tag_7:\n      callvalue\n      dup1\n      iszero\n      tag_42\n      jumpi\n      0x00\n      dup1\n      revert\n    tag_42:\n      pop\n      tag_43\n      0x04\n      dup1\n      calldatasize\n      sub\n      dup2\n      add\n      swap1\n      tag_44\n      swap2\n      swap1\n      tag_18\n      jump\t// in\n    tag_44:\n      tag_45\n      jump\t// in\n    tag_43:\n      mload(0x40)\n      tag_46\n      swap6\n      swap5\n      swap4\n      swap3\n      swap2\n      swap1\n      tag_47\n      jump\t// in\n    tag_46:\n      mload(0x40)\n      dup1\n      swap2\n      sub\n      swap1\n      return\n        /* \"Campaign.sol\":1427:1808  function createRequest (string calldata description, uint value, address recipient)  public restricted {... */\n    tag_8:\n      callvalue\n      dup1\n      iszero\n      tag_48\n      jumpi\n      0x00\n      dup1\n      revert\n    tag_48:\n      pop\n      tag_49\n      0x04\n      dup1\n      calldatasize\n      sub\n      dup2\n      add\n      swap1\n      tag_50\n      swap2\n      swap1\n      tag_51\n      jump\t// in\n    tag_50:\n      tag_52\n      jump\t// in\n    tag_49:\n      stop\n        /* \"Campaign.sol\":818:854  uint      public minimumContribution */\n    tag_9:\n      callvalue\n      dup1\n      iszero\n      tag_53\n      jumpi\n      0x00\n      dup1\n      revert\n    tag_53:\n      pop\n      tag_54\n      tag_55\n      jump\t// in\n    tag_54:\n      mload(0x40)\n      tag_56\n      swap2\n      swap1\n      tag_57\n      jump\t// in\n    tag_56:\n      mload(0x40)\n      dup1\n      swap2\n      sub\n      swap1\n      return\n        /* \"Campaign.sol\":3263:3358  function getRequestcount() public view returns (uint) {... */\n    tag_10:\n      callvalue\n      dup1\n      iszero\n      tag_58\n      jumpi\n      0x00\n      dup1\n      revert\n    tag_58:\n      pop\n      tag_59\n      tag_60\n      jump\t// in\n    tag_59:\n      mload(0x40)\n      tag_61\n      swap2\n      swap1\n      tag_57\n      jump\t// in\n    tag_61:\n      mload(0x40)\n      dup1\n      swap2\n      sub\n      swap1\n      return\n        /* \"Campaign.sol\":1250:1419  function contribute() public payable {... */\n    tag_11:\n      tag_62\n      tag_63\n      jump\t// in\n    tag_62:\n      stop\n        /* \"Campaign.sol\":1816:2361  function approveRequest(uint index) public {... */\n    tag_12:\n      callvalue\n      dup1\n      iszero\n      tag_64\n      jumpi\n      0x00\n      dup1\n      revert\n    tag_64:\n      pop\n      tag_65\n      0x04\n      dup1\n      calldatasize\n      sub\n      dup2\n      add\n      swap1\n      tag_66\n      swap2\n      swap1\n      tag_18\n      jump\t// in\n    tag_66:\n      tag_67\n      jump\t// in\n    tag_65:\n      stop\n        /* \"Campaign.sol\":861:895  uint      public contributersCount */\n    tag_13:\n      callvalue\n      dup1\n      iszero\n      tag_68\n      jumpi\n      0x00\n      dup1\n      revert\n    tag_68:\n      pop\n      tag_69\n      tag_70\n      jump\t// in\n    tag_69:\n      mload(0x40)\n      tag_71\n      swap2\n      swap1\n      tag_57\n      jump\t// in\n    tag_71:\n      mload(0x40)\n      dup1\n      swap2\n      sub\n      swap1\n      return\n        /* \"Campaign.sol\":2371:2919  function finalizeRequest(uint index) public restricted {... */\n    tag_19:\n        /* \"Campaign.sol\":1010:1017  manager */\n      0x01\n      0x00\n      swap1\n      sload\n      swap1\n      0x0100\n      exp\n      swap1\n      div\n      0xffffffffffffffffffffffffffffffffffffffff\n      and\n        /* \"Campaign.sol\":996:1017  msg.sender == manager */\n      0xffffffffffffffffffffffffffffffffffffffff\n      and\n        /* \"Campaign.sol\":996:1006  msg.sender */\n      caller\n        /* \"Campaign.sol\":996:1017  msg.sender == manager */\n      0xffffffffffffffffffffffffffffffffffffffff\n      and\n      eq\n        /* \"Campaign.sol\":988:1018  require(msg.sender == manager) */\n      tag_73\n      jumpi\n      0x00\n      dup1\n      revert\n    tag_73:\n        /* \"Campaign.sol\":2437:2460  Request storage request */\n      0x00\n        /* \"Campaign.sol\":2463:2471  requests */\n      dup1\n        /* \"Campaign.sol\":2472:2477  index */\n      dup3\n        /* \"Campaign.sol\":2463:2478  requests[index] */\n      dup2\n      sload\n      dup2\n      lt\n      tag_75\n      jumpi\n      tag_76\n      tag_77\n      jump\t// in\n    tag_76:\n    tag_75:\n      swap1\n      0x00\n      mstore\n      keccak256(0x00, 0x20)\n      swap1\n      0x05\n      mul\n      add\n        /* \"Campaign.sol\":2437:2478  Request storage request = requests[index] */\n      swap1\n      pop\n        /* \"Campaign.sol\":2544:2545  2 */\n      0x02\n        /* \"Campaign.sol\":2524:2541  contributersCount */\n      sload(0x04)\n        /* \"Campaign.sol\":2524:2545  contributersCount / 2 */\n      tag_79\n      swap2\n      swap1\n      tag_80\n      jump\t// in\n    tag_79:\n        /* \"Campaign.sol\":2499:2506  request */\n      dup2\n        /* \"Campaign.sol\":2499:2520  request.approvalCount */\n      0x03\n      add\n      sload\n        /* \"Campaign.sol\":2499:2546  request.approvalCount > (contributersCount / 2) */\n      gt\n        /* \"Campaign.sol\":2491:2547  require(request.approvalCount > (contributersCount / 2)) */\n      tag_81\n      jumpi\n      0x00\n      dup1\n      revert\n    tag_81:\n        /* \"Campaign.sol\":2567:2574  request */\n      dup1\n        /* \"Campaign.sol\":2567:2583  request.complete */\n      0x02\n      add\n      0x14\n      swap1\n      sload\n      swap1\n      0x0100\n      exp\n      swap1\n      div\n      0xff\n      and\n        /* \"Campaign.sol\":2566:2583  !request.complete */\n      iszero\n        /* \"Campaign.sol\":2558:2584  require(!request.complete) */\n      tag_82\n      jumpi\n      0x00\n      dup1\n      revert\n    tag_82:\n        /* \"Campaign.sol\":2614:2618  true */\n      0x01\n        /* \"Campaign.sol\":2595:2602  request */\n      dup2\n        /* \"Campaign.sol\":2595:2611  request.complete */\n      0x02\n      add\n      0x14\n        /* \"Campaign.sol\":2595:2618  request.complete = true */\n      0x0100\n      exp\n      dup2\n      sload\n      dup2\n      0xff\n      mul\n      not\n      and\n      swap1\n      dup4\n      iszero\n      iszero\n      mul\n      or\n      swap1\n      sstore\n      pop\n        /* \"Campaign.sol\":2629:2636  request */\n      dup1\n        /* \"Campaign.sol\":2629:2646  request.recipient */\n      0x02\n      add\n      0x00\n      swap1\n      sload\n      swap1\n      0x0100\n      exp\n      swap1\n      div\n      0xffffffffffffffffffffffffffffffffffffffff\n      and\n        /* \"Campaign.sol\":2629:2655  request.recipient.transfer */\n      0xffffffffffffffffffffffffffffffffffffffff\n      and\n        /* \"Campaign.sol\":2629:2670  request.recipient.transfer(request.value) */\n      0x08fc\n        /* \"Campaign.sol\":2656:2663  request */\n      dup3\n        /* \"Campaign.sol\":2656:2669  request.value */\n      0x01\n      add\n      sload\n        /* \"Campaign.sol\":2629:2670  request.recipient.transfer(request.value) */\n      swap1\n      dup2\n      iszero\n      mul\n      swap1\n      mload(0x40)\n      0x00\n      mload(0x40)\n      dup1\n      dup4\n      sub\n      dup2\n      dup6\n      dup9\n      dup9\n      call\n      swap4\n      pop\n      pop\n      pop\n      pop\n      iszero\n      dup1\n      iszero\n      tag_84\n      jumpi\n      returndatasize\n      0x00\n      dup1\n      returndatacopy\n      revert(0x00, returndatasize)\n    tag_84:\n      pop\n        /* \"Campaign.sol\":2426:2919  {... */\n      pop\n        /* \"Campaign.sol\":2371:2919  function finalizeRequest(uint index) public restricted {... */\n      pop\n      jump\t// out\n        /* \"Campaign.sol\":902:946  mapping(address => bool) public contributers */\n    tag_24:\n      mstore(0x20, 0x05)\n      dup1\n      0x00\n      mstore\n      keccak256(0x00, 0x40)\n      0x00\n      swap2\n      pop\n      sload\n      swap1\n      0x0100\n      exp\n      swap1\n      div\n      0xff\n      and\n      dup2\n      jump\t// out\n        /* \"Campaign.sol\":2927:3255  function getSummary() public view returns (... */\n    tag_29:\n        /* \"Campaign.sol\":2980:2984  uint */\n      0x00\n        /* \"Campaign.sol\":2986:2990  uint */\n      dup1\n        /* \"Campaign.sol\":2992:2996  uint */\n      0x00\n        /* \"Campaign.sol\":2998:3002  uint */\n      dup1\n        /* \"Campaign.sol\":3004:3011  address */\n      0x00\n        /* \"Campaign.sol\":3013:3026  string memory */\n      0x60\n        /* \"Campaign.sol\":3067:3086  minimumContribution */\n      sload(0x03)\n        /* \"Campaign.sol\":3101:3122  address(this).balance */\n      selfbalance\n        /* \"Campaign.sol\":3137:3145  requests */\n      0x00\n        /* \"Campaign.sol\":3137:3152  requests.length */\n      dup1\n      sload\n      swap1\n      pop\n        /* \"Campaign.sol\":3167:3184  contributersCount */\n      sload(0x04)\n        /* \"Campaign.sol\":3199:3206  manager */\n      0x01\n      0x00\n      swap1\n      sload\n      swap1\n      0x0100\n      exp\n      swap1\n      div\n      0xffffffffffffffffffffffffffffffffffffffff\n      and\n        /* \"Campaign.sol\":3221:3236  ideaDescription */\n      0x02\n        /* \"Campaign.sol\":3045:3247  return (... */\n      dup1\n      dup1\n      sload\n      tag_86\n      swap1\n      tag_87\n      jump\t// in\n    tag_86:\n      dup1\n      0x1f\n      add\n      0x20\n      dup1\n      swap2\n      div\n      mul\n      0x20\n      add\n      mload(0x40)\n      swap1\n      dup2\n      add\n      0x40\n      mstore\n      dup1\n      swap3\n      swap2\n      swap1\n      dup2\n      dup2\n      mstore\n      0x20\n      add\n      dup3\n      dup1\n      sload\n      tag_88\n      swap1\n      tag_87\n      jump\t// in\n    tag_88:\n      dup1\n      iszero\n      tag_89\n      jumpi\n      dup1\n      0x1f\n      lt\n      tag_90\n      jumpi\n      0x0100\n      dup1\n      dup4\n      sload\n      div\n      mul\n      dup4\n      mstore\n      swap2\n      0x20\n      add\n      swap2\n      jump(tag_89)\n    tag_90:\n      dup3\n      add\n      swap2\n      swap1\n      0x00\n      mstore\n      keccak256(0x00, 0x20)\n      swap1\n    tag_91:\n      dup2\n      sload\n      dup2\n      mstore\n      swap1\n      0x01\n      add\n      swap1\n      0x20\n      add\n      dup1\n      dup4\n      gt\n      tag_91\n      jumpi\n      dup3\n      swap1\n      sub\n      0x1f\n      and\n      dup3\n      add\n      swap2\n    tag_89:\n      pop\n      pop\n      pop\n      pop\n      pop\n      swap1\n      pop\n      swap6\n      pop\n      swap6\n      pop\n      swap6\n      pop\n      swap6\n      pop\n      swap6\n      pop\n      swap6\n      pop\n        /* \"Campaign.sol\":2927:3255  function getSummary() public view returns (... */\n      swap1\n      swap2\n      swap3\n      swap4\n      swap5\n      swap6\n      jump\t// out\n        /* \"Campaign.sol\":748:772  address   public manager */\n    tag_34:\n      0x01\n      0x00\n      swap1\n      sload\n      swap1\n      0x0100\n      exp\n      swap1\n      div\n      0xffffffffffffffffffffffffffffffffffffffff\n      and\n      dup2\n      jump\t// out\n        /* \"Campaign.sol\":779:811  string    public ideaDescription */\n    tag_39:\n      0x02\n      dup1\n      sload\n      tag_92\n      swap1\n      tag_87\n      jump\t// in\n    tag_92:\n      dup1\n      0x1f\n      add\n      0x20\n      dup1\n      swap2\n      div\n      mul\n      0x20\n      add\n      mload(0x40)\n      swap1\n      dup2\n      add\n      0x40\n      mstore\n      dup1\n      swap3\n      swap2\n      swap1\n      dup2\n      dup2\n      mstore\n      0x20\n      add\n      dup3\n      dup1\n      sload\n      tag_93\n      swap1\n      tag_87\n      jump\t// in\n    tag_93:\n      dup1\n      iszero\n      tag_94\n      jumpi\n      dup1\n      0x1f\n      lt\n      tag_95\n      jumpi\n      0x0100\n      dup1\n      dup4\n      sload\n      div\n      mul\n      dup4\n      mstore\n      swap2\n      0x20\n      add\n      swap2\n      jump(tag_94)\n    tag_95:\n      dup3\n      add\n      swap2\n      swap1\n      0x00\n      mstore\n      keccak256(0x00, 0x20)\n      swap1\n    tag_96:\n      dup2\n      sload\n      dup2\n      mstore\n      swap1\n      0x01\n      add\n      swap1\n      0x20\n      add\n      dup1\n      dup4\n      gt\n      tag_96\n      jumpi\n      dup3\n      swap1\n      sub\n      0x1f\n      and\n      dup3\n      add\n      swap2\n    tag_94:\n      pop\n      pop\n      pop\n      pop\n      pop\n      dup2\n      jump\t// out\n        /* \"Campaign.sol\":716:741  Request[] public requests */\n    tag_45:\n      0x00\n      dup2\n      dup2\n      sload\n      dup2\n      lt\n      tag_97\n      jumpi\n      0x00\n      dup1\n      revert\n    tag_97:\n      swap1\n      0x00\n      mstore\n      keccak256(0x00, 0x20)\n      swap1\n      0x05\n      mul\n      add\n      0x00\n      swap2\n      pop\n      swap1\n      pop\n      dup1\n      0x00\n      add\n      dup1\n      sload\n      tag_99\n      swap1\n      tag_87\n      jump\t// in\n    tag_99:\n      dup1\n      0x1f\n      add\n      0x20\n      dup1\n      swap2\n      div\n      mul\n      0x20\n      add\n      mload(0x40)\n      swap1\n      dup2\n      add\n      0x40\n      mstore\n      dup1\n      swap3\n      swap2\n      swap1\n      dup2\n      dup2\n      mstore\n      0x20\n      add\n      dup3\n      dup1\n      sload\n      tag_100\n      swap1\n      tag_87\n      jump\t// in\n    tag_100:\n      dup1\n      iszero\n      tag_101\n      jumpi\n      dup1\n      0x1f\n      lt\n      tag_102\n      jumpi\n      0x0100\n      dup1\n      dup4\n      sload\n      div\n      mul\n      dup4\n      mstore\n      swap2\n      0x20\n      add\n      swap2\n      jump(tag_101)\n    tag_102:\n      dup3\n      add\n      swap2\n      swap1\n      0x00\n      mstore\n      keccak256(0x00, 0x20)\n      swap1\n    tag_103:\n      dup2\n      sload\n      dup2\n      mstore\n      swap1\n      0x01\n      add\n      swap1\n      0x20\n      add\n      dup1\n      dup4\n      gt\n      tag_103\n      jumpi\n      dup3\n      swap1\n      sub\n      0x1f\n      and\n      dup3\n      add\n      swap2\n    tag_101:\n      pop\n      pop\n      pop\n      pop\n      pop\n      swap1\n      dup1\n      0x01\n      add\n      sload\n      swap1\n      dup1\n      0x02\n      add\n      0x00\n      swap1\n      sload\n      swap1\n      0x0100\n      exp\n      swap1\n      div\n      0xffffffffffffffffffffffffffffffffffffffff\n      and\n      swap1\n      dup1\n      0x02\n      add\n      0x14\n      swap1\n      sload\n      swap1\n      0x0100\n      exp\n      swap1\n      div\n      0xff\n      and\n      swap1\n      dup1\n      0x03\n      add\n      sload\n      swap1\n      pop\n      dup6\n      jump\t// out\n        /* \"Campaign.sol\":1427:1808  function createRequest (string calldata description, uint value, address recipient)  public restricted {... */\n    tag_52:\n        /* \"Campaign.sol\":1010:1017  manager */\n      0x01\n      0x00\n      swap1\n      sload\n      swap1\n      0x0100\n      exp\n      swap1\n      div\n      0xffffffffffffffffffffffffffffffffffffffff\n      and\n        /* \"Campaign.sol\":996:1017  msg.sender == manager */\n      0xffffffffffffffffffffffffffffffffffffffff\n      and\n        /* \"Campaign.sol\":996:1006  msg.sender */\n      caller\n        /* \"Campaign.sol\":996:1017  msg.sender == manager */\n      0xffffffffffffffffffffffffffffffffffffffff\n      and\n      eq\n        /* \"Campaign.sol\":988:1018  require(msg.sender == manager) */\n      tag_105\n      jumpi\n      0x00\n      dup1\n      revert\n    tag_105:\n        /* \"Campaign.sol\":1541:1564  Request storage request */\n      0x00\n        /* \"Campaign.sol\":1567:1575  requests */\n      dup1\n        /* \"Campaign.sol\":1567:1582  requests.push() */\n      0x01\n      dup2\n      0x01\n      dup2\n      sload\n      add\n      dup1\n      dup3\n      sstore\n      dup1\n      swap2\n      pop\n      pop\n      sub\n      swap1\n      0x00\n      mstore\n      keccak256(0x00, 0x20)\n      swap1\n      0x05\n      mul\n      add\n        /* \"Campaign.sol\":1541:1582  Request storage request = requests.push() */\n      swap1\n      pop\n        /* \"Campaign.sol\":1621:1632  description */\n      dup5\n      dup5\n        /* \"Campaign.sol\":1599:1606  request */\n      dup3\n        /* \"Campaign.sol\":1599:1618  request.description */\n      0x00\n      add\n        /* \"Campaign.sol\":1599:1632  request.description = description */\n      swap2\n      dup3\n      tag_108\n      swap3\n      swap2\n      swap1\n      tag_109\n      jump\t// in\n    tag_108:\n      pop\n        /* \"Campaign.sol\":1663:1668  value */\n      dup3\n        /* \"Campaign.sol\":1647:1654  request */\n      dup2\n        /* \"Campaign.sol\":1647:1660  request.value */\n      0x01\n      add\n        /* \"Campaign.sol\":1647:1668  request.value = value */\n      dup2\n      swap1\n      sstore\n      pop\n        /* \"Campaign.sol\":1711:1720  recipient */\n      dup2\n        /* \"Campaign.sol\":1683:1690  request */\n      dup2\n        /* \"Campaign.sol\":1683:1700  request.recipient */\n      0x02\n      add\n      0x00\n        /* \"Campaign.sol\":1683:1721  request.recipient = payable(recipient) */\n      0x0100\n      exp\n      dup2\n      sload\n      dup2\n      0xffffffffffffffffffffffffffffffffffffffff\n      mul\n      not\n      and\n      swap1\n      dup4\n      0xffffffffffffffffffffffffffffffffffffffff\n      and\n      mul\n      or\n      swap1\n      sstore\n      pop\n        /* \"Campaign.sol\":1755:1760  false */\n      0x00\n        /* \"Campaign.sol\":1736:1743  request */\n      dup2\n        /* \"Campaign.sol\":1736:1752  request.complete */\n      0x02\n      add\n      0x14\n        /* \"Campaign.sol\":1736:1760  request.complete = false */\n      0x0100\n      exp\n      dup2\n      sload\n      dup2\n      0xff\n      mul\n      not\n      and\n      swap1\n      dup4\n      iszero\n      iszero\n      mul\n      or\n      swap1\n      sstore\n      pop\n        /* \"Campaign.sol\":1799:1800  0 */\n      0x00\n        /* \"Campaign.sol\":1775:1782  request */\n      dup2\n        /* \"Campaign.sol\":1775:1796  request.approvalCount */\n      0x03\n      add\n        /* \"Campaign.sol\":1775:1800  request.approvalCount = 0 */\n      dup2\n      swap1\n      sstore\n      pop\n        /* \"Campaign.sol\":1530:1808  {... */\n      pop\n        /* \"Campaign.sol\":1427:1808  function createRequest (string calldata description, uint value, address recipient)  public restricted {... */\n      pop\n      pop\n      pop\n      pop\n      jump\t// out\n        /* \"Campaign.sol\":818:854  uint      public minimumContribution */\n    tag_55:\n      sload(0x03)\n      dup2\n      jump\t// out\n        /* \"Campaign.sol\":3263:3358  function getRequestcount() public view returns (uint) {... */\n    tag_60:\n        /* \"Campaign.sol\":3311:3315  uint */\n      0x00\n        /* \"Campaign.sol\":3335:3343  requests */\n      dup1\n        /* \"Campaign.sol\":3335:3350  requests.length */\n      dup1\n      sload\n      swap1\n      pop\n        /* \"Campaign.sol\":3328:3350  return requests.length */\n      swap1\n      pop\n        /* \"Campaign.sol\":3263:3358  function getRequestcount() public view returns (uint) {... */\n      swap1\n      jump\t// out\n        /* \"Campaign.sol\":1250:1419  function contribute() public payable {... */\n    tag_63:\n        /* \"Campaign.sol\":1319:1338  minimumContribution */\n      sload(0x03)\n        /* \"Campaign.sol\":1306:1315  msg.value */\n      callvalue\n        /* \"Campaign.sol\":1306:1338  msg.value >= minimumContribution */\n      lt\n      iszero\n        /* \"Campaign.sol\":1298:1339  require(msg.value >= minimumContribution) */\n      tag_112\n      jumpi\n      0x00\n      dup1\n      revert\n    tag_112:\n        /* \"Campaign.sol\":1377:1381  true */\n      0x01\n        /* \"Campaign.sol\":1350:1362  contributers */\n      0x05\n        /* \"Campaign.sol\":1350:1374  contributers[msg.sender] */\n      0x00\n        /* \"Campaign.sol\":1363:1373  msg.sender */\n      caller\n        /* \"Campaign.sol\":1350:1374  contributers[msg.sender] */\n      0xffffffffffffffffffffffffffffffffffffffff\n      and\n      0xffffffffffffffffffffffffffffffffffffffff\n      and\n      dup2\n      mstore\n      0x20\n      add\n      swap1\n      dup2\n      mstore\n      0x20\n      add\n      0x00\n      keccak256\n      0x00\n        /* \"Campaign.sol\":1350:1381  contributers[msg.sender] = true */\n      0x0100\n      exp\n      dup2\n      sload\n      dup2\n      0xff\n      mul\n      not\n      and\n      swap1\n      dup4\n      iszero\n      iszero\n      mul\n      or\n      swap1\n      sstore\n      pop\n        /* \"Campaign.sol\":1392:1409  contributersCount */\n      0x04\n      0x00\n        /* \"Campaign.sol\":1392:1411  contributersCount++ */\n      dup2\n      sload\n      dup1\n      swap3\n      swap2\n      swap1\n      tag_113\n      swap1\n      tag_114\n      jump\t// in\n    tag_113:\n      swap2\n      swap1\n      pop\n      sstore\n      pop\n        /* \"Campaign.sol\":1250:1419  function contribute() public payable {... */\n      jump\t// out\n        /* \"Campaign.sol\":1816:2361  function approveRequest(uint index) public {... */\n    tag_67:\n        /* \"Campaign.sol\":1870:1893  Request storage request */\n      0x00\n        /* \"Campaign.sol\":1896:1904  requests */\n      dup1\n        /* \"Campaign.sol\":1905:1910  index */\n      dup3\n        /* \"Campaign.sol\":1896:1911  requests[index] */\n      dup2\n      sload\n      dup2\n      lt\n      tag_116\n      jumpi\n      tag_117\n      tag_77\n      jump\t// in\n    tag_117:\n    tag_116:\n      swap1\n      0x00\n      mstore\n      keccak256(0x00, 0x20)\n      swap1\n      0x05\n      mul\n      add\n        /* \"Campaign.sol\":1870:1911  Request storage request = requests[index] */\n      swap1\n      pop\n        /* \"Campaign.sol\":1932:1944  contributers */\n      0x05\n        /* \"Campaign.sol\":1932:1956  contributers[msg.sender] */\n      0x00\n        /* \"Campaign.sol\":1945:1955  msg.sender */\n      caller\n        /* \"Campaign.sol\":1932:1956  contributers[msg.sender] */\n      0xffffffffffffffffffffffffffffffffffffffff\n      and\n      0xffffffffffffffffffffffffffffffffffffffff\n      and\n      dup2\n      mstore\n      0x20\n      add\n      swap1\n      dup2\n      mstore\n      0x20\n      add\n      0x00\n      keccak256\n      0x00\n      swap1\n      sload\n      swap1\n      0x0100\n      exp\n      swap1\n      div\n      0xff\n      and\n        /* \"Campaign.sol\":1924:1957  require(contributers[msg.sender]) */\n      tag_119\n      jumpi\n      0x00\n      dup1\n      revert\n    tag_119:\n        /* \"Campaign.sol\":2047:2054  request */\n      dup1\n        /* \"Campaign.sol\":2047:2064  request.approvals */\n      0x04\n      add\n        /* \"Campaign.sol\":2047:2076  request.approvals[msg.sender] */\n      0x00\n        /* \"Campaign.sol\":2065:2075  msg.sender */\n      caller\n        /* \"Campaign.sol\":2047:2076  request.approvals[msg.sender] */\n      0xffffffffffffffffffffffffffffffffffffffff\n      and\n      0xffffffffffffffffffffffffffffffffffffffff\n      and\n      dup2\n      mstore\n      0x20\n      add\n      swap1\n      dup2\n      mstore\n      0x20\n      add\n      0x00\n      keccak256\n      0x00\n      swap1\n      sload\n      swap1\n      0x0100\n      exp\n      swap1\n      div\n      0xff\n      and\n        /* \"Campaign.sol\":2046:2076  !request.approvals[msg.sender] */\n      iszero\n        /* \"Campaign.sol\":2038:2077  require(!request.approvals[msg.sender]) */\n      tag_120\n      jumpi\n      0x00\n      dup1\n      revert\n    tag_120:\n        /* \"Campaign.sol\":2199:2203  true */\n      0x01\n        /* \"Campaign.sol\":2167:2174  request */\n      dup2\n        /* \"Campaign.sol\":2167:2184  request.approvals */\n      0x04\n      add\n        /* \"Campaign.sol\":2167:2196  request.approvals[msg.sender] */\n      0x00\n        /* \"Campaign.sol\":2185:2195  msg.sender */\n      caller\n        /* \"Campaign.sol\":2167:2196  request.approvals[msg.sender] */\n      0xffffffffffffffffffffffffffffffffffffffff\n      and\n      0xffffffffffffffffffffffffffffffffffffffff\n      and\n      dup2\n      mstore\n      0x20\n      add\n      swap1\n      dup2\n      mstore\n      0x20\n      add\n      0x00\n      keccak256\n      0x00\n        /* \"Campaign.sol\":2167:2203  request.approvals[msg.sender] = true */\n      0x0100\n      exp\n      dup2\n      sload\n      dup2\n      0xff\n      mul\n      not\n      and\n      swap1\n      dup4\n      iszero\n      iszero\n      mul\n      or\n      swap1\n      sstore\n      pop\n        /* \"Campaign.sol\":2275:2282  request */\n      dup1\n        /* \"Campaign.sol\":2275:2296  request.approvalCount */\n      0x03\n      add\n      0x00\n        /* \"Campaign.sol\":2275:2298  request.approvalCount++ */\n      dup2\n      sload\n      dup1\n      swap3\n      swap2\n      swap1\n      tag_121\n      swap1\n      tag_114\n      jump\t// in\n    tag_121:\n      swap2\n      swap1\n      pop\n      sstore\n      pop\n        /* \"Campaign.sol\":1859:2361  {... */\n      pop\n        /* \"Campaign.sol\":1816:2361  function approveRequest(uint index) public {... */\n      pop\n      jump\t// out\n        /* \"Campaign.sol\":861:895  uint      public contributersCount */\n    tag_70:\n      sload(0x04)\n      dup2\n      jump\t// out\n        /* \"#utility.yul\":88:205   */\n    tag_123:\n        /* \"#utility.yul\":197:198   */\n      0x00\n        /* \"#utility.yul\":194:195   */\n      dup1\n        /* \"#utility.yul\":187:199   */\n      revert\n        /* \"#utility.yul\":211:328   */\n    tag_124:\n        /* \"#utility.yul\":320:321   */\n      0x00\n        /* \"#utility.yul\":317:318   */\n      dup1\n        /* \"#utility.yul\":310:322   */\n      revert\n        /* \"#utility.yul\":334:411   */\n    tag_125:\n        /* \"#utility.yul\":371:378   */\n      0x00\n        /* \"#utility.yul\":400:405   */\n      dup2\n        /* \"#utility.yul\":389:405   */\n      swap1\n      pop\n        /* \"#utility.yul\":334:411   */\n      swap2\n      swap1\n      pop\n      jump\t// out\n        /* \"#utility.yul\":417:539   */\n    tag_126:\n        /* \"#utility.yul\":490:514   */\n      tag_173\n        /* \"#utility.yul\":508:513   */\n      dup2\n        /* \"#utility.yul\":490:514   */\n      tag_125\n      jump\t// in\n    tag_173:\n        /* \"#utility.yul\":483:488   */\n      dup2\n        /* \"#utility.yul\":480:515   */\n      eq\n        /* \"#utility.yul\":470:533   */\n      tag_174\n      jumpi\n        /* \"#utility.yul\":529:530   */\n      0x00\n        /* \"#utility.yul\":526:527   */\n      dup1\n        /* \"#utility.yul\":519:531   */\n      revert\n        /* \"#utility.yul\":470:533   */\n    tag_174:\n        /* \"#utility.yul\":417:539   */\n      pop\n      jump\t// out\n        /* \"#utility.yul\":545:684   */\n    tag_127:\n        /* \"#utility.yul\":591:596   */\n      0x00\n        /* \"#utility.yul\":629:635   */\n      dup2\n        /* \"#utility.yul\":616:636   */\n      calldataload\n        /* \"#utility.yul\":607:636   */\n      swap1\n      pop\n        /* \"#utility.yul\":645:678   */\n      tag_176\n        /* \"#utility.yul\":672:677   */\n      dup2\n        /* \"#utility.yul\":645:678   */\n      tag_126\n      jump\t// in\n    tag_176:\n        /* \"#utility.yul\":545:684   */\n      swap3\n      swap2\n      pop\n      pop\n      jump\t// out\n        /* \"#utility.yul\":690:1019   */\n    tag_18:\n        /* \"#utility.yul\":749:755   */\n      0x00\n        /* \"#utility.yul\":798:800   */\n      0x20\n        /* \"#utility.yul\":786:795   */\n      dup3\n        /* \"#utility.yul\":777:784   */\n      dup5\n        /* \"#utility.yul\":773:796   */\n      sub\n        /* \"#utility.yul\":769:801   */\n      slt\n        /* \"#utility.yul\":766:885   */\n      iszero\n      tag_178\n      jumpi\n        /* \"#utility.yul\":804:883   */\n      tag_179\n      tag_123\n      jump\t// in\n    tag_179:\n        /* \"#utility.yul\":766:885   */\n    tag_178:\n        /* \"#utility.yul\":924:925   */\n      0x00\n        /* \"#utility.yul\":949:1002   */\n      tag_180\n        /* \"#utility.yul\":994:1001   */\n      dup5\n        /* \"#utility.yul\":985:991   */\n      dup3\n        /* \"#utility.yul\":974:983   */\n      dup6\n        /* \"#utility.yul\":970:992   */\n      add\n        /* \"#utility.yul\":949:1002   */\n      tag_127\n      jump\t// in\n    tag_180:\n        /* \"#utility.yul\":939:1002   */\n      swap2\n      pop\n        /* \"#utility.yul\":895:1012   */\n      pop\n        /* \"#utility.yul\":690:1019   */\n      swap3\n      swap2\n      pop\n      pop\n      jump\t// out\n        /* \"#utility.yul\":1025:1151   */\n    tag_128:\n        /* \"#utility.yul\":1062:1069   */\n      0x00\n        /* \"#utility.yul\":1102:1144   */\n      0xffffffffffffffffffffffffffffffffffffffff\n        /* \"#utility.yul\":1095:1100   */\n      dup3\n        /* \"#utility.yul\":1091:1145   */\n      and\n        /* \"#utility.yul\":1080:1145   */\n      swap1\n      pop\n        /* \"#utility.yul\":1025:1151   */\n      swap2\n      swap1\n      pop\n      jump\t// out\n        /* \"#utility.yul\":1157:1253   */\n    tag_129:\n        /* \"#utility.yul\":1194:1201   */\n      0x00\n        /* \"#utility.yul\":1223:1247   */\n      tag_183\n        /* \"#utility.yul\":1241:1246   */\n      dup3\n        /* \"#utility.yul\":1223:1247   */\n      tag_128\n      jump\t// in\n    tag_183:\n        /* \"#utility.yul\":1212:1247   */\n      swap1\n      pop\n        /* \"#utility.yul\":1157:1253   */\n      swap2\n      swap1\n      pop\n      jump\t// out\n        /* \"#utility.yul\":1259:1381   */\n    tag_130:\n        /* \"#utility.yul\":1332:1356   */\n      tag_185\n        /* \"#utility.yul\":1350:1355   */\n      dup2\n        /* \"#utility.yul\":1332:1356   */\n      tag_129\n      jump\t// in\n    tag_185:\n        /* \"#utility.yul\":1325:1330   */\n      dup2\n        /* \"#utility.yul\":1322:1357   */\n      eq\n        /* \"#utility.yul\":1312:1375   */\n      tag_186\n      jumpi\n        /* \"#utility.yul\":1371:1372   */\n      0x00\n        /* \"#utility.yul\":1368:1369   */\n      dup1\n        /* \"#utility.yul\":1361:1373   */\n      revert\n        /* \"#utility.yul\":1312:1375   */\n    tag_186:\n        /* \"#utility.yul\":1259:1381   */\n      pop\n      jump\t// out\n        /* \"#utility.yul\":1387:1526   */\n    tag_131:\n        /* \"#utility.yul\":1433:1438   */\n      0x00\n        /* \"#utility.yul\":1471:1477   */\n      dup2\n        /* \"#utility.yul\":1458:1478   */\n      calldataload\n        /* \"#utility.yul\":1449:1478   */\n      swap1\n      pop\n        /* \"#utility.yul\":1487:1520   */\n      tag_188\n        /* \"#utility.yul\":1514:1519   */\n      dup2\n        /* \"#utility.yul\":1487:1520   */\n      tag_130\n      jump\t// in\n    tag_188:\n        /* \"#utility.yul\":1387:1526   */\n      swap3\n      swap2\n      pop\n      pop\n      jump\t// out\n        /* \"#utility.yul\":1532:1861   */\n    tag_23:\n        /* \"#utility.yul\":1591:1597   */\n      0x00\n        /* \"#utility.yul\":1640:1642   */\n      0x20\n        /* \"#utility.yul\":1628:1637   */\n      dup3\n        /* \"#utility.yul\":1619:1626   */\n      dup5\n        /* \"#utility.yul\":1615:1638   */\n      sub\n        /* \"#utility.yul\":1611:1643   */\n      slt\n        /* \"#utility.yul\":1608:1727   */\n      iszero\n      tag_190\n      jumpi\n        /* \"#utility.yul\":1646:1725   */\n      tag_191\n      tag_123\n      jump\t// in\n    tag_191:\n        /* \"#utility.yul\":1608:1727   */\n    tag_190:\n        /* \"#utility.yul\":1766:1767   */\n      0x00\n        /* \"#utility.yul\":1791:1844   */\n      tag_192\n        /* \"#utility.yul\":1836:1843   */\n      dup5\n        /* \"#utility.yul\":1827:1833   */\n      dup3\n        /* \"#utility.yul\":1816:1825   */\n      dup6\n        /* \"#utility.yul\":1812:1834   */\n      add\n        /* \"#utility.yul\":1791:1844   */\n      tag_131\n      jump\t// in\n    tag_192:\n        /* \"#utility.yul\":1781:1844   */\n      swap2\n      pop\n        /* \"#utility.yul\":1737:1854   */\n      pop\n        /* \"#utility.yul\":1532:1861   */\n      swap3\n      swap2\n      pop\n      pop\n      jump\t// out\n        /* \"#utility.yul\":1867:1957   */\n    tag_132:\n        /* \"#utility.yul\":1901:1908   */\n      0x00\n        /* \"#utility.yul\":1944:1949   */\n      dup2\n        /* \"#utility.yul\":1937:1950   */\n      iszero\n        /* \"#utility.yul\":1930:1951   */\n      iszero\n        /* \"#utility.yul\":1919:1951   */\n      swap1\n      pop\n        /* \"#utility.yul\":1867:1957   */\n      swap2\n      swap1\n      pop\n      jump\t// out\n        /* \"#utility.yul\":1963:2072   */\n    tag_133:\n        /* \"#utility.yul\":2044:2065   */\n      tag_195\n        /* \"#utility.yul\":2059:2064   */\n      dup2\n        /* \"#utility.yul\":2044:2065   */\n      tag_132\n      jump\t// in\n    tag_195:\n        /* \"#utility.yul\":2039:2042   */\n      dup3\n        /* \"#utility.yul\":2032:2066   */\n      mstore\n        /* \"#utility.yul\":1963:2072   */\n      pop\n      pop\n      jump\t// out\n        /* \"#utility.yul\":2078:2288   */\n    tag_26:\n        /* \"#utility.yul\":2165:2169   */\n      0x00\n        /* \"#utility.yul\":2203:2205   */\n      0x20\n        /* \"#utility.yul\":2192:2201   */\n      dup3\n        /* \"#utility.yul\":2188:2206   */\n      add\n        /* \"#utility.yul\":2180:2206   */\n      swap1\n      pop\n        /* \"#utility.yul\":2216:2281   */\n      tag_197\n        /* \"#utility.yul\":2278:2279   */\n      0x00\n        /* \"#utility.yul\":2267:2276   */\n      dup4\n        /* \"#utility.yul\":2263:2280   */\n      add\n        /* \"#utility.yul\":2254:2260   */\n      dup5\n        /* \"#utility.yul\":2216:2281   */\n      tag_133\n      jump\t// in\n    tag_197:\n        /* \"#utility.yul\":2078:2288   */\n      swap3\n      swap2\n      pop\n      pop\n      jump\t// out\n        /* \"#utility.yul\":2294:2412   */\n    tag_134:\n        /* \"#utility.yul\":2381:2405   */\n      tag_199\n        /* \"#utility.yul\":2399:2404   */\n      dup2\n        /* \"#utility.yul\":2381:2405   */\n      tag_125\n      jump\t// in\n    tag_199:\n        /* \"#utility.yul\":2376:2379   */\n      dup3\n        /* \"#utility.yul\":2369:2406   */\n      mstore\n        /* \"#utility.yul\":2294:2412   */\n      pop\n      pop\n      jump\t// out\n        /* \"#utility.yul\":2418:2536   */\n    tag_135:\n        /* \"#utility.yul\":2505:2529   */\n      tag_201\n        /* \"#utility.yul\":2523:2528   */\n      dup2\n        /* \"#utility.yul\":2505:2529   */\n      tag_129\n      jump\t// in\n    tag_201:\n        /* \"#utility.yul\":2500:2503   */\n      dup3\n        /* \"#utility.yul\":2493:2530   */\n      mstore\n        /* \"#utility.yul\":2418:2536   */\n      pop\n      pop\n      jump\t// out\n        /* \"#utility.yul\":2542:2641   */\n    tag_136:\n        /* \"#utility.yul\":2594:2600   */\n      0x00\n        /* \"#utility.yul\":2628:2633   */\n      dup2\n        /* \"#utility.yul\":2622:2634   */\n      mload\n        /* \"#utility.yul\":2612:2634   */\n      swap1\n      pop\n        /* \"#utility.yul\":2542:2641   */\n      swap2\n      swap1\n      pop\n      jump\t// out\n        /* \"#utility.yul\":2647:2816   */\n    tag_137:\n        /* \"#utility.yul\":2731:2742   */\n      0x00\n        /* \"#utility.yul\":2765:2771   */\n      dup3\n        /* \"#utility.yul\":2760:2763   */\n      dup3\n        /* \"#utility.yul\":2753:2772   */\n      mstore\n        /* \"#utility.yul\":2805:2809   */\n      0x20\n        /* \"#utility.yul\":2800:2803   */\n      dup3\n        /* \"#utility.yul\":2796:2810   */\n      add\n        /* \"#utility.yul\":2781:2810   */\n      swap1\n      pop\n        /* \"#utility.yul\":2647:2816   */\n      swap3\n      swap2\n      pop\n      pop\n      jump\t// out\n        /* \"#utility.yul\":2822:3129   */\n    tag_138:\n        /* \"#utility.yul\":2890:2891   */\n      0x00\n        /* \"#utility.yul\":2900:3013   */\n    tag_205:\n        /* \"#utility.yul\":2914:2920   */\n      dup4\n        /* \"#utility.yul\":2911:2912   */\n      dup2\n        /* \"#utility.yul\":2908:2921   */\n      lt\n        /* \"#utility.yul\":2900:3013   */\n      iszero\n      tag_207\n      jumpi\n        /* \"#utility.yul\":2999:3000   */\n      dup1\n        /* \"#utility.yul\":2994:2997   */\n      dup3\n        /* \"#utility.yul\":2990:3001   */\n      add\n        /* \"#utility.yul\":2984:3002   */\n      mload\n        /* \"#utility.yul\":2980:2981   */\n      dup2\n        /* \"#utility.yul\":2975:2978   */\n      dup5\n        /* \"#utility.yul\":2971:2982   */\n      add\n        /* \"#utility.yul\":2964:3003   */\n      mstore\n        /* \"#utility.yul\":2936:2938   */\n      0x20\n        /* \"#utility.yul\":2933:2934   */\n      dup2\n        /* \"#utility.yul\":2929:2939   */\n      add\n        /* \"#utility.yul\":2924:2939   */\n      swap1\n      pop\n        /* \"#utility.yul\":2900:3013   */\n      jump(tag_205)\n    tag_207:\n        /* \"#utility.yul\":3031:3037   */\n      dup4\n        /* \"#utility.yul\":3028:3029   */\n      dup2\n        /* \"#utility.yul\":3025:3038   */\n      gt\n        /* \"#utility.yul\":3022:3123   */\n      iszero\n      tag_208\n      jumpi\n        /* \"#utility.yul\":3111:3112   */\n      0x00\n        /* \"#utility.yul\":3102:3108   */\n      dup5\n        /* \"#utility.yul\":3097:3100   */\n      dup5\n        /* \"#utility.yul\":3093:3109   */\n      add\n        /* \"#utility.yul\":3086:3113   */\n      mstore\n        /* \"#utility.yul\":3022:3123   */\n    tag_208:\n        /* \"#utility.yul\":2871:3129   */\n      pop\n        /* \"#utility.yul\":2822:3129   */\n      pop\n      pop\n      pop\n      jump\t// out\n        /* \"#utility.yul\":3135:3237   */\n    tag_139:\n        /* \"#utility.yul\":3176:3182   */\n      0x00\n        /* \"#utility.yul\":3227:3229   */\n      0x1f\n        /* \"#utility.yul\":3223:3230   */\n      not\n        /* \"#utility.yul\":3218:3220   */\n      0x1f\n        /* \"#utility.yul\":3211:3216   */\n      dup4\n        /* \"#utility.yul\":3207:3221   */\n      add\n        /* \"#utility.yul\":3203:3231   */\n      and\n        /* \"#utility.yul\":3193:3231   */\n      swap1\n      pop\n        /* \"#utility.yul\":3135:3237   */\n      swap2\n      swap1\n      pop\n      jump\t// out\n        /* \"#utility.yul\":3243:3607   */\n    tag_140:\n        /* \"#utility.yul\":3331:3334   */\n      0x00\n        /* \"#utility.yul\":3359:3398   */\n      tag_211\n        /* \"#utility.yul\":3392:3397   */\n      dup3\n        /* \"#utility.yul\":3359:3398   */\n      tag_136\n      jump\t// in\n    tag_211:\n        /* \"#utility.yul\":3414:3485   */\n      tag_212\n        /* \"#utility.yul\":3478:3484   */\n      dup2\n        /* \"#utility.yul\":3473:3476   */\n      dup6\n        /* \"#utility.yul\":3414:3485   */\n      tag_137\n      jump\t// in\n    tag_212:\n        /* \"#utility.yul\":3407:3485   */\n      swap4\n      pop\n        /* \"#utility.yul\":3494:3546   */\n      tag_213\n        /* \"#utility.yul\":3539:3545   */\n      dup2\n        /* \"#utility.yul\":3534:3537   */\n      dup6\n        /* \"#utility.yul\":3527:3531   */\n      0x20\n        /* \"#utility.yul\":3520:3525   */\n      dup7\n        /* \"#utility.yul\":3516:3532   */\n      add\n        /* \"#utility.yul\":3494:3546   */\n      tag_138\n      jump\t// in\n    tag_213:\n        /* \"#utility.yul\":3571:3600   */\n      tag_214\n        /* \"#utility.yul\":3593:3599   */\n      dup2\n        /* \"#utility.yul\":3571:3600   */\n      tag_139\n      jump\t// in\n    tag_214:\n        /* \"#utility.yul\":3566:3569   */\n      dup5\n        /* \"#utility.yul\":3562:3601   */\n      add\n        /* \"#utility.yul\":3555:3601   */\n      swap2\n      pop\n        /* \"#utility.yul\":3335:3607   */\n      pop\n        /* \"#utility.yul\":3243:3607   */\n      swap3\n      swap2\n      pop\n      pop\n      jump\t// out\n        /* \"#utility.yul\":3613:4479   */\n    tag_31:\n        /* \"#utility.yul\":3866:3870   */\n      0x00\n        /* \"#utility.yul\":3904:3907   */\n      0xc0\n        /* \"#utility.yul\":3893:3902   */\n      dup3\n        /* \"#utility.yul\":3889:3908   */\n      add\n        /* \"#utility.yul\":3881:3908   */\n      swap1\n      pop\n        /* \"#utility.yul\":3918:3989   */\n      tag_216\n        /* \"#utility.yul\":3986:3987   */\n      0x00\n        /* \"#utility.yul\":3975:3984   */\n      dup4\n        /* \"#utility.yul\":3971:3988   */\n      add\n        /* \"#utility.yul\":3962:3968   */\n      dup10\n        /* \"#utility.yul\":3918:3989   */\n      tag_134\n      jump\t// in\n    tag_216:\n        /* \"#utility.yul\":3999:4071   */\n      tag_217\n        /* \"#utility.yul\":4067:4069   */\n      0x20\n        /* \"#utility.yul\":4056:4065   */\n      dup4\n        /* \"#utility.yul\":4052:4070   */\n      add\n        /* \"#utility.yul\":4043:4049   */\n      dup9\n        /* \"#utility.yul\":3999:4071   */\n      tag_134\n      jump\t// in\n    tag_217:\n        /* \"#utility.yul\":4081:4153   */\n      tag_218\n        /* \"#utility.yul\":4149:4151   */\n      0x40\n        /* \"#utility.yul\":4138:4147   */\n      dup4\n        /* \"#utility.yul\":4134:4152   */\n      add\n        /* \"#utility.yul\":4125:4131   */\n      dup8\n        /* \"#utility.yul\":4081:4153   */\n      tag_134\n      jump\t// in\n    tag_218:\n        /* \"#utility.yul\":4163:4235   */\n      tag_219\n        /* \"#utility.yul\":4231:4233   */\n      0x60\n        /* \"#utility.yul\":4220:4229   */\n      dup4\n        /* \"#utility.yul\":4216:4234   */\n      add\n        /* \"#utility.yul\":4207:4213   */\n      dup7\n        /* \"#utility.yul\":4163:4235   */\n      tag_134\n      jump\t// in\n    tag_219:\n        /* \"#utility.yul\":4245:4318   */\n      tag_220\n        /* \"#utility.yul\":4313:4316   */\n      0x80\n        /* \"#utility.yul\":4302:4311   */\n      dup4\n        /* \"#utility.yul\":4298:4317   */\n      add\n        /* \"#utility.yul\":4289:4295   */\n      dup6\n        /* \"#utility.yul\":4245:4318   */\n      tag_135\n      jump\t// in\n    tag_220:\n        /* \"#utility.yul\":4366:4375   */\n      dup2\n        /* \"#utility.yul\":4360:4364   */\n      dup2\n        /* \"#utility.yul\":4356:4376   */\n      sub\n        /* \"#utility.yul\":4350:4353   */\n      0xa0\n        /* \"#utility.yul\":4339:4348   */\n      dup4\n        /* \"#utility.yul\":4335:4354   */\n      add\n        /* \"#utility.yul\":4328:4377   */\n      mstore\n        /* \"#utility.yul\":4394:4472   */\n      tag_221\n        /* \"#utility.yul\":4467:4471   */\n      dup2\n        /* \"#utility.yul\":4458:4464   */\n      dup5\n        /* \"#utility.yul\":4394:4472   */\n      tag_140\n      jump\t// in\n    tag_221:\n        /* \"#utility.yul\":4386:4472   */\n      swap1\n      pop\n        /* \"#utility.yul\":3613:4479   */\n      swap8\n      swap7\n      pop\n      pop\n      pop\n      pop\n      pop\n      pop\n      pop\n      jump\t// out\n        /* \"#utility.yul\":4485:4707   */\n    tag_36:\n        /* \"#utility.yul\":4578:4582   */\n      0x00\n        /* \"#utility.yul\":4616:4618   */\n      0x20\n        /* \"#utility.yul\":4605:4614   */\n      dup3\n        /* \"#utility.yul\":4601:4619   */\n      add\n        /* \"#utility.yul\":4593:4619   */\n      swap1\n      pop\n        /* \"#utility.yul\":4629:4700   */\n      tag_223\n        /* \"#utility.yul\":4697:4698   */\n      0x00\n        /* \"#utility.yul\":4686:4695   */\n      dup4\n        /* \"#utility.yul\":4682:4699   */\n      add\n        /* \"#utility.yul\":4673:4679   */\n      dup5\n        /* \"#utility.yul\":4629:4700   */\n      tag_135\n      jump\t// in\n    tag_223:\n        /* \"#utility.yul\":4485:4707   */\n      swap3\n      swap2\n      pop\n      pop\n      jump\t// out\n        /* \"#utility.yul\":4713:5026   */\n    tag_41:\n        /* \"#utility.yul\":4826:4830   */\n      0x00\n        /* \"#utility.yul\":4864:4866   */\n      0x20\n        /* \"#utility.yul\":4853:4862   */\n      dup3\n        /* \"#utility.yul\":4849:4867   */\n      add\n        /* \"#utility.yul\":4841:4867   */\n      swap1\n      pop\n        /* \"#utility.yul\":4913:4922   */\n      dup2\n        /* \"#utility.yul\":4907:4911   */\n      dup2\n        /* \"#utility.yul\":4903:4923   */\n      sub\n        /* \"#utility.yul\":4899:4900   */\n      0x00\n        /* \"#utility.yul\":4888:4897   */\n      dup4\n        /* \"#utility.yul\":4884:4901   */\n      add\n        /* \"#utility.yul\":4877:4924   */\n      mstore\n        /* \"#utility.yul\":4941:5019   */\n      tag_225\n        /* \"#utility.yul\":5014:5018   */\n      dup2\n        /* \"#utility.yul\":5005:5011   */\n      dup5\n        /* \"#utility.yul\":4941:5019   */\n      tag_140\n      jump\t// in\n    tag_225:\n        /* \"#utility.yul\":4933:5019   */\n      swap1\n      pop\n        /* \"#utility.yul\":4713:5026   */\n      swap3\n      swap2\n      pop\n      pop\n      jump\t// out\n        /* \"#utility.yul\":5032:5136   */\n    tag_141:\n        /* \"#utility.yul\":5077:5084   */\n      0x00\n        /* \"#utility.yul\":5106:5130   */\n      tag_227\n        /* \"#utility.yul\":5124:5129   */\n      dup3\n        /* \"#utility.yul\":5106:5130   */\n      tag_128\n      jump\t// in\n    tag_227:\n        /* \"#utility.yul\":5095:5130   */\n      swap1\n      pop\n        /* \"#utility.yul\":5032:5136   */\n      swap2\n      swap1\n      pop\n      jump\t// out\n        /* \"#utility.yul\":5142:5284   */\n    tag_142:\n        /* \"#utility.yul\":5245:5277   */\n      tag_229\n        /* \"#utility.yul\":5271:5276   */\n      dup2\n        /* \"#utility.yul\":5245:5277   */\n      tag_141\n      jump\t// in\n    tag_229:\n        /* \"#utility.yul\":5240:5243   */\n      dup3\n        /* \"#utility.yul\":5233:5278   */\n      mstore\n        /* \"#utility.yul\":5142:5284   */\n      pop\n      pop\n      jump\t// out\n        /* \"#utility.yul\":5290:6065   */\n    tag_47:\n        /* \"#utility.yul\":5525:5529   */\n      0x00\n        /* \"#utility.yul\":5563:5566   */\n      0xa0\n        /* \"#utility.yul\":5552:5561   */\n      dup3\n        /* \"#utility.yul\":5548:5567   */\n      add\n        /* \"#utility.yul\":5540:5567   */\n      swap1\n      pop\n        /* \"#utility.yul\":5613:5622   */\n      dup2\n        /* \"#utility.yul\":5607:5611   */\n      dup2\n        /* \"#utility.yul\":5603:5623   */\n      sub\n        /* \"#utility.yul\":5599:5600   */\n      0x00\n        /* \"#utility.yul\":5588:5597   */\n      dup4\n        /* \"#utility.yul\":5584:5601   */\n      add\n        /* \"#utility.yul\":5577:5624   */\n      mstore\n        /* \"#utility.yul\":5641:5719   */\n      tag_231\n        /* \"#utility.yul\":5714:5718   */\n      dup2\n        /* \"#utility.yul\":5705:5711   */\n      dup9\n        /* \"#utility.yul\":5641:5719   */\n      tag_140\n      jump\t// in\n    tag_231:\n        /* \"#utility.yul\":5633:5719   */\n      swap1\n      pop\n        /* \"#utility.yul\":5729:5801   */\n      tag_232\n        /* \"#utility.yul\":5797:5799   */\n      0x20\n        /* \"#utility.yul\":5786:5795   */\n      dup4\n        /* \"#utility.yul\":5782:5800   */\n      add\n        /* \"#utility.yul\":5773:5779   */\n      dup8\n        /* \"#utility.yul\":5729:5801   */\n      tag_134\n      jump\t// in\n    tag_232:\n        /* \"#utility.yul\":5811:5899   */\n      tag_233\n        /* \"#utility.yul\":5895:5897   */\n      0x40\n        /* \"#utility.yul\":5884:5893   */\n      dup4\n        /* \"#utility.yul\":5880:5898   */\n      add\n        /* \"#utility.yul\":5871:5877   */\n      dup7\n        /* \"#utility.yul\":5811:5899   */\n      tag_142\n      jump\t// in\n    tag_233:\n        /* \"#utility.yul\":5909:5975   */\n      tag_234\n        /* \"#utility.yul\":5971:5973   */\n      0x60\n        /* \"#utility.yul\":5960:5969   */\n      dup4\n        /* \"#utility.yul\":5956:5974   */\n      add\n        /* \"#utility.yul\":5947:5953   */\n      dup6\n        /* \"#utility.yul\":5909:5975   */\n      tag_133\n      jump\t// in\n    tag_234:\n        /* \"#utility.yul\":5985:6058   */\n      tag_235\n        /* \"#utility.yul\":6053:6056   */\n      0x80\n        /* \"#utility.yul\":6042:6051   */\n      dup4\n        /* \"#utility.yul\":6038:6057   */\n      add\n        /* \"#utility.yul\":6029:6035   */\n      dup5\n        /* \"#utility.yul\":5985:6058   */\n      tag_134\n      jump\t// in\n    tag_235:\n        /* \"#utility.yul\":5290:6065   */\n      swap7\n      swap6\n      pop\n      pop\n      pop\n      pop\n      pop\n      pop\n      jump\t// out\n        /* \"#utility.yul\":6071:6188   */\n    tag_143:\n        /* \"#utility.yul\":6180:6181   */\n      0x00\n        /* \"#utility.yul\":6177:6178   */\n      dup1\n        /* \"#utility.yul\":6170:6182   */\n      revert\n        /* \"#utility.yul\":6194:6311   */\n    tag_144:\n        /* \"#utility.yul\":6303:6304   */\n      0x00\n        /* \"#utility.yul\":6300:6301   */\n      dup1\n        /* \"#utility.yul\":6293:6305   */\n      revert\n        /* \"#utility.yul\":6317:6434   */\n    tag_145:\n        /* \"#utility.yul\":6426:6427   */\n      0x00\n        /* \"#utility.yul\":6423:6424   */\n      dup1\n        /* \"#utility.yul\":6416:6428   */\n      revert\n        /* \"#utility.yul\":6454:7007   */\n    tag_146:\n        /* \"#utility.yul\":6512:6520   */\n      0x00\n        /* \"#utility.yul\":6522:6528   */\n      dup1\n        /* \"#utility.yul\":6572:6575   */\n      dup4\n        /* \"#utility.yul\":6565:6569   */\n      0x1f\n        /* \"#utility.yul\":6557:6563   */\n      dup5\n        /* \"#utility.yul\":6553:6570   */\n      add\n        /* \"#utility.yul\":6549:6576   */\n      slt\n        /* \"#utility.yul\":6539:6661   */\n      tag_240\n      jumpi\n        /* \"#utility.yul\":6580:6659   */\n      tag_241\n      tag_143\n      jump\t// in\n    tag_241:\n        /* \"#utility.yul\":6539:6661   */\n    tag_240:\n        /* \"#utility.yul\":6693:6699   */\n      dup3\n        /* \"#utility.yul\":6680:6700   */\n      calldataload\n        /* \"#utility.yul\":6670:6700   */\n      swap1\n      pop\n        /* \"#utility.yul\":6723:6741   */\n      0xffffffffffffffff\n        /* \"#utility.yul\":6715:6721   */\n      dup2\n        /* \"#utility.yul\":6712:6742   */\n      gt\n        /* \"#utility.yul\":6709:6826   */\n      iszero\n      tag_242\n      jumpi\n        /* \"#utility.yul\":6745:6824   */\n      tag_243\n      tag_144\n      jump\t// in\n    tag_243:\n        /* \"#utility.yul\":6709:6826   */\n    tag_242:\n        /* \"#utility.yul\":6859:6863   */\n      0x20\n        /* \"#utility.yul\":6851:6857   */\n      dup4\n        /* \"#utility.yul\":6847:6864   */\n      add\n        /* \"#utility.yul\":6835:6864   */\n      swap2\n      pop\n        /* \"#utility.yul\":6913:6916   */\n      dup4\n        /* \"#utility.yul\":6905:6909   */\n      0x01\n        /* \"#utility.yul\":6897:6903   */\n      dup3\n        /* \"#utility.yul\":6893:6910   */\n      mul\n        /* \"#utility.yul\":6883:6891   */\n      dup4\n        /* \"#utility.yul\":6879:6911   */\n      add\n        /* \"#utility.yul\":6876:6917   */\n      gt\n        /* \"#utility.yul\":6873:7001   */\n      iszero\n      tag_244\n      jumpi\n        /* \"#utility.yul\":6920:6999   */\n      tag_245\n      tag_145\n      jump\t// in\n    tag_245:\n        /* \"#utility.yul\":6873:7001   */\n    tag_244:\n        /* \"#utility.yul\":6454:7007   */\n      swap3\n      pop\n      swap3\n      swap1\n      pop\n      jump\t// out\n        /* \"#utility.yul\":7013:7832   */\n    tag_51:\n        /* \"#utility.yul\":7102:7108   */\n      0x00\n        /* \"#utility.yul\":7110:7116   */\n      dup1\n        /* \"#utility.yul\":7118:7124   */\n      0x00\n        /* \"#utility.yul\":7126:7132   */\n      dup1\n        /* \"#utility.yul\":7175:7177   */\n      0x60\n        /* \"#utility.yul\":7163:7172   */\n      dup6\n        /* \"#utility.yul\":7154:7161   */\n      dup8\n        /* \"#utility.yul\":7150:7173   */\n      sub\n        /* \"#utility.yul\":7146:7178   */\n      slt\n        /* \"#utility.yul\":7143:7262   */\n      iszero\n      tag_247\n      jumpi\n        /* \"#utility.yul\":7181:7260   */\n      tag_248\n      tag_123\n      jump\t// in\n    tag_248:\n        /* \"#utility.yul\":7143:7262   */\n    tag_247:\n        /* \"#utility.yul\":7329:7330   */\n      0x00\n        /* \"#utility.yul\":7318:7327   */\n      dup6\n        /* \"#utility.yul\":7314:7331   */\n      add\n        /* \"#utility.yul\":7301:7332   */\n      calldataload\n        /* \"#utility.yul\":7359:7377   */\n      0xffffffffffffffff\n        /* \"#utility.yul\":7351:7357   */\n      dup2\n        /* \"#utility.yul\":7348:7378   */\n      gt\n        /* \"#utility.yul\":7345:7462   */\n      iszero\n      tag_249\n      jumpi\n        /* \"#utility.yul\":7381:7460   */\n      tag_250\n      tag_124\n      jump\t// in\n    tag_250:\n        /* \"#utility.yul\":7345:7462   */\n    tag_249:\n        /* \"#utility.yul\":7494:7559   */\n      tag_251\n        /* \"#utility.yul\":7551:7558   */\n      dup8\n        /* \"#utility.yul\":7542:7548   */\n      dup3\n        /* \"#utility.yul\":7531:7540   */\n      dup9\n        /* \"#utility.yul\":7527:7549   */\n      add\n        /* \"#utility.yul\":7494:7559   */\n      tag_146\n      jump\t// in\n    tag_251:\n        /* \"#utility.yul\":7476:7559   */\n      swap5\n      pop\n      swap5\n      pop\n        /* \"#utility.yul\":7272:7569   */\n      pop\n        /* \"#utility.yul\":7608:7610   */\n      0x20\n        /* \"#utility.yul\":7634:7687   */\n      tag_252\n        /* \"#utility.yul\":7679:7686   */\n      dup8\n        /* \"#utility.yul\":7670:7676   */\n      dup3\n        /* \"#utility.yul\":7659:7668   */\n      dup9\n        /* \"#utility.yul\":7655:7677   */\n      add\n        /* \"#utility.yul\":7634:7687   */\n      tag_127\n      jump\t// in\n    tag_252:\n        /* \"#utility.yul\":7624:7687   */\n      swap3\n      pop\n        /* \"#utility.yul\":7579:7697   */\n      pop\n        /* \"#utility.yul\":7736:7738   */\n      0x40\n        /* \"#utility.yul\":7762:7815   */\n      tag_253\n        /* \"#utility.yul\":7807:7814   */\n      dup8\n        /* \"#utility.yul\":7798:7804   */\n      dup3\n        /* \"#utility.yul\":7787:7796   */\n      dup9\n        /* \"#utility.yul\":7783:7805   */\n      add\n        /* \"#utility.yul\":7762:7815   */\n      tag_131\n      jump\t// in\n    tag_253:\n        /* \"#utility.yul\":7752:7815   */\n      swap2\n      pop\n        /* \"#utility.yul\":7707:7825   */\n      pop\n        /* \"#utility.yul\":7013:7832   */\n      swap3\n      swap6\n      swap2\n      swap5\n      pop\n      swap3\n      pop\n      jump\t// out\n        /* \"#utility.yul\":7838:8060   */\n    tag_57:\n        /* \"#utility.yul\":7931:7935   */\n      0x00\n        /* \"#utility.yul\":7969:7971   */\n      0x20\n        /* \"#utility.yul\":7958:7967   */\n      dup3\n        /* \"#utility.yul\":7954:7972   */\n      add\n        /* \"#utility.yul\":7946:7972   */\n      swap1\n      pop\n        /* \"#utility.yul\":7982:8053   */\n      tag_255\n        /* \"#utility.yul\":8050:8051   */\n      0x00\n        /* \"#utility.yul\":8039:8048   */\n      dup4\n        /* \"#utility.yul\":8035:8052   */\n      add\n        /* \"#utility.yul\":8026:8032   */\n      dup5\n        /* \"#utility.yul\":7982:8053   */\n      tag_134\n      jump\t// in\n    tag_255:\n        /* \"#utility.yul\":7838:8060   */\n      swap3\n      swap2\n      pop\n      pop\n      jump\t// out\n        /* \"#utility.yul\":8066:8246   */\n    tag_77:\n        /* \"#utility.yul\":8114:8191   */\n      0x4e487b7100000000000000000000000000000000000000000000000000000000\n        /* \"#utility.yul\":8111:8112   */\n      0x00\n        /* \"#utility.yul\":8104:8192   */\n      mstore\n        /* \"#utility.yul\":8211:8215   */\n      0x32\n        /* \"#utility.yul\":8208:8209   */\n      0x04\n        /* \"#utility.yul\":8201:8216   */\n      mstore\n        /* \"#utility.yul\":8235:8239   */\n      0x24\n        /* \"#utility.yul\":8232:8233   */\n      0x00\n        /* \"#utility.yul\":8225:8240   */\n      revert\n        /* \"#utility.yul\":8252:8432   */\n    tag_147:\n        /* \"#utility.yul\":8300:8377   */\n      0x4e487b7100000000000000000000000000000000000000000000000000000000\n        /* \"#utility.yul\":8297:8298   */\n      0x00\n        /* \"#utility.yul\":8290:8378   */\n      mstore\n        /* \"#utility.yul\":8397:8401   */\n      0x12\n        /* \"#utility.yul\":8394:8395   */\n      0x04\n        /* \"#utility.yul\":8387:8402   */\n      mstore\n        /* \"#utility.yul\":8421:8425   */\n      0x24\n        /* \"#utility.yul\":8418:8419   */\n      0x00\n        /* \"#utility.yul\":8411:8426   */\n      revert\n        /* \"#utility.yul\":8438:8618   */\n    tag_148:\n        /* \"#utility.yul\":8486:8563   */\n      0x4e487b7100000000000000000000000000000000000000000000000000000000\n        /* \"#utility.yul\":8483:8484   */\n      0x00\n        /* \"#utility.yul\":8476:8564   */\n      mstore\n        /* \"#utility.yul\":8583:8587   */\n      0x11\n        /* \"#utility.yul\":8580:8581   */\n      0x04\n        /* \"#utility.yul\":8573:8588   */\n      mstore\n        /* \"#utility.yul\":8607:8611   */\n      0x24\n        /* \"#utility.yul\":8604:8605   */\n      0x00\n        /* \"#utility.yul\":8597:8612   */\n      revert\n        /* \"#utility.yul\":8624:8809   */\n    tag_80:\n        /* \"#utility.yul\":8664:8665   */\n      0x00\n        /* \"#utility.yul\":8681:8701   */\n      tag_260\n        /* \"#utility.yul\":8699:8700   */\n      dup3\n        /* \"#utility.yul\":8681:8701   */\n      tag_125\n      jump\t// in\n    tag_260:\n        /* \"#utility.yul\":8676:8701   */\n      swap2\n      pop\n        /* \"#utility.yul\":8715:8735   */\n      tag_261\n        /* \"#utility.yul\":8733:8734   */\n      dup4\n        /* \"#utility.yul\":8715:8735   */\n      tag_125\n      jump\t// in\n    tag_261:\n        /* \"#utility.yul\":8710:8735   */\n      swap3\n      pop\n        /* \"#utility.yul\":8754:8755   */\n      dup3\n        /* \"#utility.yul\":8744:8779   */\n      tag_262\n      jumpi\n        /* \"#utility.yul\":8759:8777   */\n      tag_263\n      tag_147\n      jump\t// in\n    tag_263:\n        /* \"#utility.yul\":8744:8779   */\n    tag_262:\n        /* \"#utility.yul\":8801:8802   */\n      dup3\n        /* \"#utility.yul\":8798:8799   */\n      dup3\n        /* \"#utility.yul\":8794:8803   */\n      div\n        /* \"#utility.yul\":8789:8803   */\n      swap1\n      pop\n        /* \"#utility.yul\":8624:8809   */\n      swap3\n      swap2\n      pop\n      pop\n      jump\t// out\n        /* \"#utility.yul\":8815:8995   */\n    tag_149:\n        /* \"#utility.yul\":8863:8940   */\n      0x4e487b7100000000000000000000000000000000000000000000000000000000\n        /* \"#utility.yul\":8860:8861   */\n      0x00\n        /* \"#utility.yul\":8853:8941   */\n      mstore\n        /* \"#utility.yul\":8960:8964   */\n      0x22\n        /* \"#utility.yul\":8957:8958   */\n      0x04\n        /* \"#utility.yul\":8950:8965   */\n      mstore\n        /* \"#utility.yul\":8984:8988   */\n      0x24\n        /* \"#utility.yul\":8981:8982   */\n      0x00\n        /* \"#utility.yul\":8974:8989   */\n      revert\n        /* \"#utility.yul\":9001:9321   */\n    tag_87:\n        /* \"#utility.yul\":9045:9051   */\n      0x00\n        /* \"#utility.yul\":9082:9083   */\n      0x02\n        /* \"#utility.yul\":9076:9080   */\n      dup3\n        /* \"#utility.yul\":9072:9084   */\n      div\n        /* \"#utility.yul\":9062:9084   */\n      swap1\n      pop\n        /* \"#utility.yul\":9129:9130   */\n      0x01\n        /* \"#utility.yul\":9123:9127   */\n      dup3\n        /* \"#utility.yul\":9119:9131   */\n      and\n        /* \"#utility.yul\":9150:9168   */\n      dup1\n        /* \"#utility.yul\":9140:9221   */\n      tag_266\n      jumpi\n        /* \"#utility.yul\":9206:9210   */\n      0x7f\n        /* \"#utility.yul\":9198:9204   */\n      dup3\n        /* \"#utility.yul\":9194:9211   */\n      and\n        /* \"#utility.yul\":9184:9211   */\n      swap2\n      pop\n        /* \"#utility.yul\":9140:9221   */\n    tag_266:\n        /* \"#utility.yul\":9268:9270   */\n      0x20\n        /* \"#utility.yul\":9260:9266   */\n      dup3\n        /* \"#utility.yul\":9257:9271   */\n      lt\n        /* \"#utility.yul\":9237:9255   */\n      dup2\n        /* \"#utility.yul\":9234:9272   */\n      sub\n        /* \"#utility.yul\":9231:9315   */\n      tag_267\n      jumpi\n        /* \"#utility.yul\":9287:9305   */\n      tag_268\n      tag_149\n      jump\t// in\n    tag_268:\n        /* \"#utility.yul\":9231:9315   */\n    tag_267:\n        /* \"#utility.yul\":9052:9321   */\n      pop\n        /* \"#utility.yul\":9001:9321   */\n      swap2\n      swap1\n      pop\n      jump\t// out\n        /* \"#utility.yul\":9327:9424   */\n    tag_150:\n        /* \"#utility.yul\":9386:9392   */\n      0x00\n        /* \"#utility.yul\":9414:9417   */\n      dup3\n        /* \"#utility.yul\":9404:9417   */\n      swap1\n      pop\n        /* \"#utility.yul\":9327:9424   */\n      swap3\n      swap2\n      pop\n      pop\n      jump\t// out\n        /* \"#utility.yul\":9430:9610   */\n    tag_151:\n        /* \"#utility.yul\":9478:9555   */\n      0x4e487b7100000000000000000000000000000000000000000000000000000000\n        /* \"#utility.yul\":9475:9476   */\n      0x00\n        /* \"#utility.yul\":9468:9556   */\n      mstore\n        /* \"#utility.yul\":9575:9579   */\n      0x41\n        /* \"#utility.yul\":9572:9573   */\n      0x04\n        /* \"#utility.yul\":9565:9580   */\n      mstore\n        /* \"#utility.yul\":9599:9603   */\n      0x24\n        /* \"#utility.yul\":9596:9597   */\n      0x00\n        /* \"#utility.yul\":9589:9604   */\n      revert\n        /* \"#utility.yul\":9616:9757   */\n    tag_152:\n        /* \"#utility.yul\":9665:9669   */\n      0x00\n        /* \"#utility.yul\":9688:9691   */\n      dup2\n        /* \"#utility.yul\":9680:9691   */\n      swap1\n      pop\n        /* \"#utility.yul\":9711:9714   */\n      dup2\n        /* \"#utility.yul\":9708:9709   */\n      0x00\n        /* \"#utility.yul\":9701:9715   */\n      mstore\n        /* \"#utility.yul\":9745:9749   */\n      0x20\n        /* \"#utility.yul\":9742:9743   */\n      0x00\n        /* \"#utility.yul\":9732:9750   */\n      keccak256\n        /* \"#utility.yul\":9724:9750   */\n      swap1\n      pop\n        /* \"#utility.yul\":9616:9757   */\n      swap2\n      swap1\n      pop\n      jump\t// out\n        /* \"#utility.yul\":9763:9856   */\n    tag_153:\n        /* \"#utility.yul\":9800:9806   */\n      0x00\n        /* \"#utility.yul\":9847:9849   */\n      0x20\n        /* \"#utility.yul\":9842:9844   */\n      0x1f\n        /* \"#utility.yul\":9835:9840   */\n      dup4\n        /* \"#utility.yul\":9831:9845   */\n      add\n        /* \"#utility.yul\":9827:9850   */\n      div\n        /* \"#utility.yul\":9817:9850   */\n      swap1\n      pop\n        /* \"#utility.yul\":9763:9856   */\n      swap2\n      swap1\n      pop\n      jump\t// out\n        /* \"#utility.yul\":9862:9969   */\n    tag_154:\n        /* \"#utility.yul\":9906:9914   */\n      0x00\n        /* \"#utility.yul\":9956:9961   */\n      dup3\n        /* \"#utility.yul\":9950:9954   */\n      dup3\n        /* \"#utility.yul\":9946:9962   */\n      shl\n        /* \"#utility.yul\":9925:9962   */\n      swap1\n      pop\n        /* \"#utility.yul\":9862:9969   */\n      swap3\n      swap2\n      pop\n      pop\n      jump\t// out\n        /* \"#utility.yul\":9975:10368   */\n    tag_155:\n        /* \"#utility.yul\":10044:10050   */\n      0x00\n        /* \"#utility.yul\":10094:10095   */\n      0x08\n        /* \"#utility.yul\":10082:10092   */\n      dup4\n        /* \"#utility.yul\":10078:10096   */\n      mul\n        /* \"#utility.yul\":10117:10214   */\n      tag_275\n        /* \"#utility.yul\":10147:10213   */\n      0xffffffffffffffffffffffffffffffffffffffffffffffffffffffffffffffff\n        /* \"#utility.yul\":10136:10145   */\n      dup3\n        /* \"#utility.yul\":10117:10214   */\n      tag_154\n      jump\t// in\n    tag_275:\n        /* \"#utility.yul\":10235:10274   */\n      tag_276\n        /* \"#utility.yul\":10265:10273   */\n      dup7\n        /* \"#utility.yul\":10254:10263   */\n      dup4\n        /* \"#utility.yul\":10235:10274   */\n      tag_154\n      jump\t// in\n    tag_276:\n        /* \"#utility.yul\":10223:10274   */\n      swap6\n      pop\n        /* \"#utility.yul\":10307:10311   */\n      dup1\n        /* \"#utility.yul\":10303:10312   */\n      not\n        /* \"#utility.yul\":10296:10301   */\n      dup5\n        /* \"#utility.yul\":10292:10313   */\n      and\n        /* \"#utility.yul\":10283:10313   */\n      swap4\n      pop\n        /* \"#utility.yul\":10356:10360   */\n      dup1\n        /* \"#utility.yul\":10346:10354   */\n      dup7\n        /* \"#utility.yul\":10342:10361   */\n      and\n        /* \"#utility.yul\":10335:10340   */\n      dup5\n        /* \"#utility.yul\":10332:10362   */\n      or\n        /* \"#utility.yul\":10322:10362   */\n      swap3\n      pop\n        /* \"#utility.yul\":10051:10368   */\n      pop\n      pop\n        /* \"#utility.yul\":9975:10368   */\n      swap4\n      swap3\n      pop\n      pop\n      pop\n      jump\t// out\n        /* \"#utility.yul\":10374:10434   */\n    tag_156:\n        /* \"#utility.yul\":10402:10405   */\n      0x00\n        /* \"#utility.yul\":10423:10428   */\n      dup2\n        /* \"#utility.yul\":10416:10428   */\n      swap1\n      pop\n        /* \"#utility.yul\":10374:10434   */\n      swap2\n      swap1\n      pop\n      jump\t// out\n        /* \"#utility.yul\":10440:10582   */\n    tag_157:\n        /* \"#utility.yul\":10490:10499   */\n      0x00\n        /* \"#utility.yul\":10523:10576   */\n      tag_279\n        /* \"#utility.yul\":10541:10575   */\n      tag_280\n        /* \"#utility.yul\":10550:10574   */\n      tag_281\n        /* \"#utility.yul\":10568:10573   */\n      dup5\n        /* \"#utility.yul\":10550:10574   */\n      tag_125\n      jump\t// in\n    tag_281:\n        /* \"#utility.yul\":10541:10575   */\n      tag_156\n      jump\t// in\n    tag_280:\n        /* \"#utility.yul\":10523:10576   */\n      tag_125\n      jump\t// in\n    tag_279:\n        /* \"#utility.yul\":10510:10576   */\n      swap1\n      pop\n        /* \"#utility.yul\":10440:10582   */\n      swap2\n      swap1\n      pop\n      jump\t// out\n        /* \"#utility.yul\":10588:10663   */\n    tag_158:\n        /* \"#utility.yul\":10631:10634   */\n      0x00\n        /* \"#utility.yul\":10652:10657   */\n      dup2\n        /* \"#utility.yul\":10645:10657   */\n      swap1\n      pop\n        /* \"#utility.yul\":10588:10663   */\n      swap2\n      swap1\n      pop\n      jump\t// out\n        /* \"#utility.yul\":10669:10938   */\n    tag_159:\n        /* \"#utility.yul\":10779:10818   */\n      tag_284\n        /* \"#utility.yul\":10810:10817   */\n      dup4\n        /* \"#utility.yul\":10779:10818   */\n      tag_157\n      jump\t// in\n    tag_284:\n        /* \"#utility.yul\":10840:10931   */\n      tag_285\n        /* \"#utility.yul\":10889:10930   */\n      tag_286\n        /* \"#utility.yul\":10913:10929   */\n      dup3\n        /* \"#utility.yul\":10889:10930   */\n      tag_158\n      jump\t// in\n    tag_286:\n        /* \"#utility.yul\":10881:10887   */\n      dup5\n        /* \"#utility.yul\":10874:10878   */\n      dup5\n        /* \"#utility.yul\":10868:10879   */\n      sload\n        /* \"#utility.yul\":10840:10931   */\n      tag_155\n      jump\t// in\n    tag_285:\n        /* \"#utility.yul\":10834:10838   */\n      dup3\n        /* \"#utility.yul\":10827:10932   */\n      sstore\n        /* \"#utility.yul\":10745:10938   */\n      pop\n        /* \"#utility.yul\":10669:10938   */\n      pop\n      pop\n      pop\n      jump\t// out\n        /* \"#utility.yul\":10944:11017   */\n    tag_160:\n        /* \"#utility.yul\":10989:10992   */\n      0x00\n        /* \"#utility.yul\":10944:11017   */\n      swap1\n      jump\t// out\n        /* \"#utility.yul\":11023:11212   */\n    tag_161:\n        /* \"#utility.yul\":11100:11132   */\n      tag_289\n      tag_160\n      jump\t// in\n    tag_289:\n        /* \"#utility.yul\":11141:11206   */\n      tag_290\n        /* \"#utility.yul\":11199:11205   */\n      dup2\n        /* \"#utility.yul\":11191:11197   */\n      dup5\n        /* \"#utility.yul\":11185:11189   */\n      dup5\n        /* \"#utility.yul\":11141:11206   */\n      tag_159\n      jump\t// in\n    tag_290:\n        /* \"#utility.yul\":11076:11212   */\n      pop\n        /* \"#utility.yul\":11023:11212   */\n      pop\n      pop\n      jump\t// out\n        /* \"#utility.yul\":11218:11404   */\n    tag_162:\n        /* \"#utility.yul\":11278:11398   */\n    tag_292:\n        /* \"#utility.yul\":11295:11298   */\n      dup2\n        /* \"#utility.yul\":11288:11293   */\n      dup2\n        /* \"#utility.yul\":11285:11299   */\n      lt\n        /* \"#utility.yul\":11278:11398   */\n      iszero\n      tag_294\n      jumpi\n        /* \"#utility.yul\":11349:11388   */\n      tag_295\n        /* \"#utility.yul\":11386:11387   */\n      0x00\n        /* \"#utility.yul\":11379:11384   */\n      dup3\n        /* \"#utility.yul\":11349:11388   */\n      tag_161\n      jump\t// in\n    tag_295:\n        /* \"#utility.yul\":11322:11323   */\n      0x01\n        /* \"#utility.yul\":11315:11320   */\n      dup2\n        /* \"#utility.yul\":11311:11324   */\n      add\n        /* \"#utility.yul\":11302:11324   */\n      swap1\n      pop\n        /* \"#utility.yul\":11278:11398   */\n      jump(tag_292)\n    tag_294:\n        /* \"#utility.yul\":11218:11404   */\n      pop\n      pop\n      jump\t// out\n        /* \"#utility.yul\":11410:11953   */\n    tag_163:\n        /* \"#utility.yul\":11511:11513   */\n      0x1f\n        /* \"#utility.yul\":11506:11509   */\n      dup3\n        /* \"#utility.yul\":11503:11514   */\n      gt\n        /* \"#utility.yul\":11500:11946   */\n      iszero\n      tag_297\n      jumpi\n        /* \"#utility.yul\":11545:11583   */\n      tag_298\n        /* \"#utility.yul\":11577:11582   */\n      dup2\n        /* \"#utility.yul\":11545:11583   */\n      tag_152\n      jump\t// in\n    tag_298:\n        /* \"#utility.yul\":11629:11658   */\n      tag_299\n        /* \"#utility.yul\":11647:11657   */\n      dup5\n        /* \"#utility.yul\":11629:11658   */\n      tag_153\n      jump\t// in\n    tag_299:\n        /* \"#utility.yul\":11619:11627   */\n      dup2\n        /* \"#utility.yul\":11615:11659   */\n      add\n        /* \"#utility.yul\":11812:11814   */\n      0x20\n        /* \"#utility.yul\":11800:11810   */\n      dup6\n        /* \"#utility.yul\":11797:11815   */\n      lt\n        /* \"#utility.yul\":11794:11843   */\n      iszero\n      tag_300\n      jumpi\n        /* \"#utility.yul\":11833:11841   */\n      dup2\n        /* \"#utility.yul\":11818:11841   */\n      swap1\n      pop\n        /* \"#utility.yul\":11794:11843   */\n    tag_300:\n        /* \"#utility.yul\":11856:11936   */\n      tag_301\n        /* \"#utility.yul\":11912:11934   */\n      tag_302\n        /* \"#utility.yul\":11930:11933   */\n      dup6\n        /* \"#utility.yul\":11912:11934   */\n      tag_153\n      jump\t// in\n    tag_302:\n        /* \"#utility.yul\":11902:11910   */\n      dup4\n        /* \"#utility.yul\":11898:11935   */\n      add\n        /* \"#utility.yul\":11885:11896   */\n      dup3\n        /* \"#utility.yul\":11856:11936   */\n      tag_162\n      jump\t// in\n    tag_301:\n        /* \"#utility.yul\":11515:11946   */\n      pop\n      pop\n        /* \"#utility.yul\":11500:11946   */\n    tag_297:\n        /* \"#utility.yul\":11410:11953   */\n      pop\n      pop\n      pop\n      jump\t// out\n        /* \"#utility.yul\":11959:12076   */\n    tag_164:\n        /* \"#utility.yul\":12013:12021   */\n      0x00\n        /* \"#utility.yul\":12063:12068   */\n      dup3\n        /* \"#utility.yul\":12057:12061   */\n      dup3\n        /* \"#utility.yul\":12053:12069   */\n      shr\n        /* \"#utility.yul\":12032:12069   */\n      swap1\n      pop\n        /* \"#utility.yul\":11959:12076   */\n      swap3\n      swap2\n      pop\n      pop\n      jump\t// out\n        /* \"#utility.yul\":12082:12251   */\n    tag_165:\n        /* \"#utility.yul\":12126:12132   */\n      0x00\n        /* \"#utility.yul\":12159:12210   */\n      tag_305\n        /* \"#utility.yul\":12207:12208   */\n      0x00\n        /* \"#utility.yul\":12203:12209   */\n      not\n        /* \"#utility.yul\":12195:12200   */\n      dup5\n        /* \"#utility.yul\":12192:12193   */\n      0x08\n        /* \"#utility.yul\":12188:12201   */\n      mul\n        /* \"#utility.yul\":12159:12210   */\n      tag_164\n      jump\t// in\n    tag_305:\n        /* \"#utility.yul\":12155:12211   */\n      not\n        /* \"#utility.yul\":12240:12244   */\n      dup1\n        /* \"#utility.yul\":12234:12238   */\n      dup4\n        /* \"#utility.yul\":12230:12245   */\n      and\n        /* \"#utility.yul\":12220:12245   */\n      swap2\n      pop\n        /* \"#utility.yul\":12133:12251   */\n      pop\n        /* \"#utility.yul\":12082:12251   */\n      swap3\n      swap2\n      pop\n      pop\n      jump\t// out\n        /* \"#utility.yul\":12256:12551   */\n    tag_166:\n        /* \"#utility.yul\":12332:12336   */\n      0x00\n        /* \"#utility.yul\":12478:12507   */\n      tag_307\n        /* \"#utility.yul\":12503:12506   */\n      dup4\n        /* \"#utility.yul\":12497:12501   */\n      dup4\n        /* \"#utility.yul\":12478:12507   */\n      tag_165\n      jump\t// in\n    tag_307:\n        /* \"#utility.yul\":12470:12507   */\n      swap2\n      pop\n        /* \"#utility.yul\":12540:12543   */\n      dup3\n        /* \"#utility.yul\":12537:12538   */\n      0x02\n        /* \"#utility.yul\":12533:12544   */\n      mul\n        /* \"#utility.yul\":12527:12531   */\n      dup3\n        /* \"#utility.yul\":12524:12545   */\n      or\n        /* \"#utility.yul\":12516:12545   */\n      swap1\n      pop\n        /* \"#utility.yul\":12256:12551   */\n      swap3\n      swap2\n      pop\n      pop\n      jump\t// out\n        /* \"#utility.yul\":12556:13959   */\n    tag_109:\n        /* \"#utility.yul\":12680:12724   */\n      tag_309\n        /* \"#utility.yul\":12720:12723   */\n      dup4\n        /* \"#utility.yul\":12715:12718   */\n      dup4\n        /* \"#utility.yul\":12680:12724   */\n      tag_150\n      jump\t// in\n    tag_309:\n        /* \"#utility.yul\":12789:12807   */\n      0xffffffffffffffff\n        /* \"#utility.yul\":12781:12787   */\n      dup2\n        /* \"#utility.yul\":12778:12808   */\n      gt\n        /* \"#utility.yul\":12775:12831   */\n      iszero\n      tag_310\n      jumpi\n        /* \"#utility.yul\":12811:12829   */\n      tag_311\n      tag_151\n      jump\t// in\n    tag_311:\n        /* \"#utility.yul\":12775:12831   */\n    tag_310:\n        /* \"#utility.yul\":12855:12893   */\n      tag_312\n        /* \"#utility.yul\":12887:12891   */\n      dup3\n        /* \"#utility.yul\":12881:12892   */\n      sload\n        /* \"#utility.yul\":12855:12893   */\n      tag_87\n      jump\t// in\n    tag_312:\n        /* \"#utility.yul\":12940:13007   */\n      tag_313\n        /* \"#utility.yul\":13000:13006   */\n      dup3\n        /* \"#utility.yul\":12992:12998   */\n      dup3\n        /* \"#utility.yul\":12986:12990   */\n      dup6\n        /* \"#utility.yul\":12940:13007   */\n      tag_163\n      jump\t// in\n    tag_313:\n        /* \"#utility.yul\":13034:13035   */\n      0x00\n        /* \"#utility.yul\":13063:13065   */\n      0x1f\n        /* \"#utility.yul\":13055:13061   */\n      dup4\n        /* \"#utility.yul\":13052:13066   */\n      gt\n        /* \"#utility.yul\":13080:13081   */\n      0x01\n        /* \"#utility.yul\":13075:13707   */\n      dup2\n      eq\n      tag_315\n      jumpi\n        /* \"#utility.yul\":13751:13752   */\n      0x00\n        /* \"#utility.yul\":13768:13774   */\n      dup5\n        /* \"#utility.yul\":13765:13849   */\n      iszero\n      tag_316\n      jumpi\n        /* \"#utility.yul\":13824:13833   */\n      dup3\n        /* \"#utility.yul\":13819:13822   */\n      dup8\n        /* \"#utility.yul\":13815:13834   */\n      add\n        /* \"#utility.yul\":13802:13835   */\n      calldataload\n        /* \"#utility.yul\":13793:13835   */\n      swap1\n      pop\n        /* \"#utility.yul\":13765:13849   */\n    tag_316:\n        /* \"#utility.yul\":13875:13942   */\n      tag_317\n        /* \"#utility.yul\":13935:13941   */\n      dup6\n        /* \"#utility.yul\":13928:13933   */\n      dup3\n        /* \"#utility.yul\":13875:13942   */\n      tag_166\n      jump\t// in\n    tag_317:\n        /* \"#utility.yul\":13869:13873   */\n      dup7\n        /* \"#utility.yul\":13862:13943   */\n      sstore\n        /* \"#utility.yul\":13724:13953   */\n      pop\n        /* \"#utility.yul\":13045:13953   */\n      jump(tag_314)\n        /* \"#utility.yul\":13075:13707   */\n    tag_315:\n        /* \"#utility.yul\":13127:13131   */\n      0x1f\n        /* \"#utility.yul\":13123:13132   */\n      not\n        /* \"#utility.yul\":13115:13121   */\n      dup5\n        /* \"#utility.yul\":13111:13133   */\n      and\n        /* \"#utility.yul\":13161:13198   */\n      tag_318\n        /* \"#utility.yul\":13193:13197   */\n      dup7\n        /* \"#utility.yul\":13161:13198   */\n      tag_152\n      jump\t// in\n    tag_318:\n        /* \"#utility.yul\":13220:13221   */\n      0x00\n        /* \"#utility.yul\":13234:13449   */\n    tag_319:\n        /* \"#utility.yul\":13248:13255   */\n      dup3\n        /* \"#utility.yul\":13245:13246   */\n      dup2\n        /* \"#utility.yul\":13242:13256   */\n      lt\n        /* \"#utility.yul\":13234:13449   */\n      iszero\n      tag_321\n      jumpi\n        /* \"#utility.yul\":13334:13343   */\n      dup5\n        /* \"#utility.yul\":13329:13332   */\n      dup10\n        /* \"#utility.yul\":13325:13344   */\n      add\n        /* \"#utility.yul\":13312:13345   */\n      calldataload\n        /* \"#utility.yul\":13304:13310   */\n      dup3\n        /* \"#utility.yul\":13297:13346   */\n      sstore\n        /* \"#utility.yul\":13385:13386   */\n      0x01\n        /* \"#utility.yul\":13377:13383   */\n      dup3\n        /* \"#utility.yul\":13373:13387   */\n      add\n        /* \"#utility.yul\":13363:13387   */\n      swap2\n      pop\n        /* \"#utility.yul\":13432:13434   */\n      0x20\n        /* \"#utility.yul\":13421:13430   */\n      dup6\n        /* \"#utility.yul\":13417:13435   */\n      add\n        /* \"#utility.yul\":13404:13435   */\n      swap5\n      pop\n        /* \"#utility.yul\":13271:13275   */\n      0x20\n        /* \"#utility.yul\":13268:13269   */\n      dup2\n        /* \"#utility.yul\":13264:13276   */\n      add\n        /* \"#utility.yul\":13259:13276   */\n      swap1\n      pop\n        /* \"#utility.yul\":13234:13449   */\n      jump(tag_319)\n    tag_321:\n        /* \"#utility.yul\":13477:13483   */\n      dup7\n        /* \"#utility.yul\":13468:13475   */\n      dup4\n        /* \"#utility.yul\":13465:13484   */\n      lt\n        /* \"#utility.yul\":13462:13648   */\n      iszero\n      tag_322\n      jumpi\n        /* \"#utility.yul\":13542:13551   */\n      dup5\n        /* \"#utility.yul\":13537:13540   */\n      dup10\n        /* \"#utility.yul\":13533:13552   */\n      add\n        /* \"#utility.yul\":13520:13553   */\n      calldataload\n        /* \"#utility.yul\":13585:13633   */\n      tag_323\n        /* \"#utility.yul\":13627:13631   */\n      0x1f\n        /* \"#utility.yul\":13619:13625   */\n      dup10\n        /* \"#utility.yul\":13615:13632   */\n      and\n        /* \"#utility.yul\":13604:13613   */\n      dup3\n        /* \"#utility.yul\":13585:13633   */\n      tag_165\n      jump\t// in\n    tag_323:\n        /* \"#utility.yul\":13577:13583   */\n      dup4\n        /* \"#utility.yul\":13570:13634   */\n      sstore\n        /* \"#utility.yul\":13485:13648   */\n      pop\n        /* \"#utility.yul\":13462:13648   */\n    tag_322:\n        /* \"#utility.yul\":13694:13695   */\n      0x01\n        /* \"#utility.yul\":13690:13691   */\n      0x02\n        /* \"#utility.yul\":13682:13688   */\n      dup9\n        /* \"#utility.yul\":13678:13692   */\n      mul\n        /* \"#utility.yul\":13674:13696   */\n      add\n        /* \"#utility.yul\":13668:13672   */\n      dup9\n        /* \"#utility.yul\":13661:13697   */\n      sstore\n        /* \"#utility.yul\":13082:13707   */\n      pop\n      pop\n      pop\n        /* \"#utility.yul\":13045:13953   */\n    tag_314:\n      pop\n        /* \"#utility.yul\":12655:13959   */\n      pop\n      pop\n      pop\n        /* \"#utility.yul\":12556:13959   */\n      pop\n      pop\n      pop\n      jump\t// out\n        /* \"#utility.yul\":13965:14198   */\n    tag_114:\n        /* \"#utility.yul\":14004:14007   */\n      0x00\n        /* \"#utility.yul\":14027:14051   */\n      tag_325\n        /* \"#utility.yul\":14045:14050   */\n      dup3\n        /* \"#utility.yul\":14027:14051   */\n      tag_125\n      jump\t// in\n    tag_325:\n        /* \"#utility.yul\":14018:14051   */\n      swap2\n      pop\n        /* \"#utility.yul\":14073:14139   */\n      0xffffffffffffffffffffffffffffffffffffffffffffffffffffffffffffffff\n        /* \"#utility.yul\":14066:14071   */\n      dup3\n        /* \"#utility.yul\":14063:14140   */\n      sub\n        /* \"#utility.yul\":14060:14163   */\n      tag_326\n      jumpi\n        /* \"#utility.yul\":14143:14161   */\n      tag_327\n      tag_148\n      jump\t// in\n    tag_327:\n        /* \"#utility.yul\":14060:14163   */\n    tag_326:\n        /* \"#utility.yul\":14190:14191   */\n      0x01\n        /* \"#utility.yul\":14183:14188   */\n      dup3\n        /* \"#utility.yul\":14179:14192   */\n      add\n        /* \"#utility.yul\":14172:14192   */\n      swap1\n      pop\n        /* \"#utility.yul\":13965:14198   */\n      swap2\n      swap1\n      pop\n      jump\t// out\n\n    auxdata: 0xa264697066735822122051d143f4a6f5feb9601d70a13b3a180fc897d0202b11d1e1b04045bf8b8bc6b064736f6c634300080f0033\n}\n","bytecode":{"linkReferences":{},"object":"60806040523480156200001157600080fd5b506040516200186f3803806200186f8339818101604052810190620000379190620002d7565b80600160006101000a81548173ffffffffffffffffffffffffffffffffffffffff021916908373ffffffffffffffffffffffffffffffffffffffff160217905550826002908162000089919062000593565b50816003819055505050506200067a565b6000604051905090565b600080fd5b600080fd5b600080fd5b600080fd5b6000601f19601f8301169050919050565b7f4e487b7100000000000000000000000000000000000000000000000000000000600052604160045260246000fd5b6200010382620000b8565b810181811067ffffffffffffffff82111715620001255762000124620000c9565b5b80604052505050565b60006200013a6200009a565b9050620001488282620000f8565b919050565b600067ffffffffffffffff8211156200016b576200016a620000c9565b5b6200017682620000b8565b9050602081019050919050565b60005b83811015620001a357808201518184015260208101905062000186565b83811115620001b3576000848401525b50505050565b6000620001d0620001ca846200014d565b6200012e565b905082815260208101848484011115620001ef57620001ee620000b3565b5b620001fc84828562000183565b509392505050565b600082601f8301126200021c576200021b620000ae565b5b81516200022e848260208601620001b9565b91505092915050565b6000819050919050565b6200024c8162000237565b81146200025857600080fd5b50565b6000815190506200026c8162000241565b92915050565b600073ffffffffffffffffffffffffffffffffffffffff82169050919050565b60006200029f8262000272565b9050919050565b620002b18162000292565b8114620002bd57600080fd5b50565b600081519050620002d181620002a6565b92915050565b600080600060608486031215620002f357620002f2620000a4565b5b600084015167ffffffffffffffff811115620003145762000313620000a9565b5b620003228682870162000204565b935050602062000335868287016200025b565b92505060406200034886828701620002c0565b9150509250925092565b600081519050919050565b7f4e487b7100000000000000000000000000000000000000000000000000000000600052602260045260246000fd5b60006002820490506001821680620003a557607f821691505b602082108103620003bb57620003ba6200035d565b5b50919050565b60008190508160005260206000209050919050565b60006020601f8301049050919050565b600082821b905092915050565b600060088302620004257fffffffffffffffffffffffffffffffffffffffffffffffffffffffffffffffff82620003e6565b620004318683620003e6565b95508019841693508086168417925050509392505050565b6000819050919050565b6000620004746200046e620004688462000237565b62000449565b62000237565b9050919050565b6000819050919050565b620004908362000453565b620004a86200049f826200047b565b848454620003f3565b825550505050565b600090565b620004bf620004b0565b620004cc81848462000485565b505050565b5b81811015620004f457620004e8600082620004b5565b600181019050620004d2565b5050565b601f82111562000543576200050d81620003c1565b6200051884620003d6565b8101602085101562000528578190505b620005406200053785620003d6565b830182620004d1565b50505b505050565b600082821c905092915050565b6000620005686000198460080262000548565b1980831691505092915050565b600062000583838362000555565b9150826002028217905092915050565b6200059e8262000352565b67ffffffffffffffff811115620005ba57620005b9620000c9565b5b620005c682546200038c565b620005d3828285620004f8565b600060209050601f8311600181146200060b5760008415620005f6578287015190505b62000602858262000575565b86555062000672565b601f1984166200061b86620003c1565b60005b8281101562000645578489015182556001820191506020850194506020810190506200061e565b8683101562000665578489015162000661601f89168262000555565b8355505b6001600288020188555050505b505050505050565b6111e5806200068a6000396000f3fe6080604052600436106100a75760003560e01c80638a9cfd55116100645780638a9cfd55146101d9578063937e09b114610202578063b59d76851461022d578063d7bb99ba14610258578063d7d1bbdb14610262578063e9f146a31461028b576100a7565b806303441006146100ac57806334b66460146100d55780634051ddac14610112578063481c6a75146101425780636af7c3751461016d57806381d12c5814610198575b600080fd5b3480156100b857600080fd5b506100d360048036038101906100ce91906109da565b6102b6565b005b3480156100e157600080fd5b506100fc60048036038101906100f79190610a65565b6103ff565b6040516101099190610aad565b60405180910390f35b34801561011e57600080fd5b5061012761041f565b60405161013996959493929190610b7f565b60405180910390f35b34801561014e57600080fd5b506101576104fb565b6040516101649190610be7565b60405180910390f35b34801561017957600080fd5b50610182610521565b60405161018f9190610c02565b60405180910390f35b3480156101a457600080fd5b506101bf60048036038101906101ba91906109da565b6105af565b6040516101d0959493929190610c45565b60405180910390f35b3480156101e557600080fd5b5061020060048036038101906101fb9190610d04565b6106aa565b005b34801561020e57600080fd5b506102176107b5565b6040516102249190610d78565b60405180910390f35b34801561023957600080fd5b506102426107bb565b60405161024f9190610d78565b60405180910390f35b6102606107c7565b005b34801561026e57600080fd5b50610289600480360381019061028491906109da565b610848565b005b34801561029757600080fd5b506102a0610994565b6040516102ad9190610d78565b60405180910390f35b600160009054906101000a900473ffffffffffffffffffffffffffffffffffffffff1673ffffffffffffffffffffffffffffffffffffffff163373ffffffffffffffffffffffffffffffffffffffff161461031057600080fd5b600080828154811061032557610324610d93565b5b9060005260206000209060050201905060026004546103449190610e20565b81600301541161035357600080fd5b8060020160149054906101000a900460ff161561036f57600080fd5b60018160020160146101000a81548160ff0219169083151502179055508060020160009054906101000a900473ffffffffffffffffffffffffffffffffffffffff1673ffffffffffffffffffffffffffffffffffffffff166108fc82600101549081150290604051600060405180830381858888f193505050501580156103fa573d6000803e3d6000fd5b505050565b60056020528060005260406000206000915054906101000a900460ff1681565b6000806000806000606060035447600080549050600454600160009054906101000a900473ffffffffffffffffffffffffffffffffffffffff16600280805461046790610e80565b80601f016020809104026020016040519081016040528092919081815260200182805461049390610e80565b80156104e05780601f106104b5576101008083540402835291602001916104e0565b820191906000526020600020905b8154815290600101906020018083116104c357829003601f168201915b50505050509050955095509550955095509550909192939495565b600160009054906101000a900473ffffffffffffffffffffffffffffffffffffffff1681565b6002805461052e90610e80565b80601f016020809104026020016040519081016040528092919081815260200182805461055a90610e80565b80156105a75780601f1061057c576101008083540402835291602001916105a7565b820191906000526020600020905b81548152906001019060200180831161058a57829003601f168201915b505050505081565b600081815481106105bf57600080fd5b90600052602060002090600502016000915090508060000180546105e290610e80565b80601f016020809104026020016040519081016040528092919081815260200182805461060e90610e80565b801561065b5780601f106106305761010080835404028352916020019161065b565b820191906000526020600020905b81548152906001019060200180831161063e57829003601f168201915b5050505050908060010154908060020160009054906101000a900473ffffffffffffffffffffffffffffffffffffffff16908060020160149054906101000a900460ff16908060030154905085565b600160009054906101000a900473ffffffffffffffffffffffffffffffffffffffff1673ffffffffffffffffffffffffffffffffffffffff163373ffffffffffffffffffffffffffffffffffffffff161461070457600080fd5b6000806001816001815401808255809150500390600052602060002090600502019050848482600001918261073a929190611097565b50828160010181905550818160020160006101000a81548173ffffffffffffffffffffffffffffffffffffffff021916908373ffffffffffffffffffffffffffffffffffffffff16021790555060008160020160146101000a81548160ff021916908315150217905550600081600301819055505050505050565b60035481565b60008080549050905090565b6003543410156107d657600080fd5b6001600560003373ffffffffffffffffffffffffffffffffffffffff1673ffffffffffffffffffffffffffffffffffffffff16815260200190815260200160002060006101000a81548160ff0219169083151502179055506004600081548092919061084190611167565b9190505550565b600080828154811061085d5761085c610d93565b5b90600052602060002090600502019050600560003373ffffffffffffffffffffffffffffffffffffffff1673ffffffffffffffffffffffffffffffffffffffff16815260200190815260200160002060009054906101000a900460ff166108c357600080fd5b8060040160003373ffffffffffffffffffffffffffffffffffffffff1673ffffffffffffffffffffffffffffffffffffffff16815260200190815260200160002060009054906101000a900460ff161561091c57600080fd5b60018160040160003373ffffffffffffffffffffffffffffffffffffffff1673ffffffffffffffffffffffffffffffffffffffff16815260200190815260200160002060006101000a81548160ff02191690831515021790555080600301600081548092919061098b90611167565b91905055505050565b60045481565b600080fd5b600080fd5b6000819050919050565b6109b7816109a4565b81146109c257600080fd5b50565b6000813590506109d4816109ae565b92915050565b6000602082840312156109f0576109ef61099a565b5b60006109fe848285016109c5565b91505092915050565b600073ffffffffffffffffffffffffffffffffffffffff82169050919050565b6000610a3282610a07565b9050919050565b610a4281610a27565b8114610a4d57600080fd5b50565b600081359050610a5f81610a39565b92915050565b600060208284031215610a7b57610a7a61099a565b5b6000610a8984828501610a50565b91505092915050565b60008115159050919050565b610aa781610a92565b82525050565b6000602082019050610ac26000830184610a9e565b92915050565b610ad1816109a4565b82525050565b610ae081610a27565b82525050565b600081519050919050565b600082825260208201905092915050565b60005b83811015610b20578082015181840152602081019050610b05565b83811115610b2f576000848401525b50505050565b6000601f19601f8301169050919050565b6000610b5182610ae6565b610b5b8185610af1565b9350610b6b818560208601610b02565b610b7481610b35565b840191505092915050565b600060c082019050610b946000830189610ac8565b610ba16020830188610ac8565b610bae6040830187610ac8565b610bbb6060830186610ac8565b610bc86080830185610ad7565b81810360a0830152610bda8184610b46565b9050979650505050505050565b6000602082019050610bfc6000830184610ad7565b92915050565b60006020820190508181036000830152610c1c8184610b46565b905092915050565b6000610c2f82610a07565b9050919050565b610c3f81610c24565b82525050565b600060a0820190508181036000830152610c5f8188610b46565b9050610c6e6020830187610ac8565b610c7b6040830186610c36565b610c886060830185610a9e565b610c956080830184610ac8565b9695505050505050565b600080fd5b600080fd5b600080fd5b60008083601f840112610cc457610cc3610c9f565b5b8235905067ffffffffffffffff811115610ce157610ce0610ca4565b5b602083019150836001820283011115610cfd57610cfc610ca9565b5b9250929050565b60008060008060608587031215610d1e57610d1d61099a565b5b600085013567ffffffffffffffff811115610d3c57610d3b61099f565b5b610d4887828801610cae565b94509450506020610d5b878288016109c5565b9250506040610d6c87828801610a50565b91505092959194509250565b6000602082019050610d8d6000830184610ac8565b92915050565b7f4e487b7100000000000000000000000000000000000000000000000000000000600052603260045260246000fd5b7f4e487b7100000000000000000000000000000000000000000000000000000000600052601260045260246000fd5b7f4e487b7100000000000000000000000000000000000000000000000000000000600052601160045260246000fd5b6000610e2b826109a4565b9150610e36836109a4565b925082610e4657610e45610dc2565b5b828204905092915050565b7f4e487b7100000000000000000000000000000000000000000000000000000000600052602260045260246000fd5b60006002820490506001821680610e9857607f821691505b602082108103610eab57610eaa610e51565b5b50919050565b600082905092915050565b7f4e487b7100000000000000000000000000000000000000000000000000000000600052604160045260246000fd5b60008190508160005260206000209050919050565b60006020601f8301049050919050565b600082821b905092915050565b600060088302610f4d7fffffffffffffffffffffffffffffffffffffffffffffffffffffffffffffffff82610f10565b610f578683610f10565b95508019841693508086168417925050509392505050565b6000819050919050565b6000610f94610f8f610f8a846109a4565b610f6f565b6109a4565b9050919050565b6000819050919050565b610fae83610f79565b610fc2610fba82610f9b565b848454610f1d565b825550505050565b600090565b610fd7610fca565b610fe2818484610fa5565b505050565b5b8181101561100657610ffb600082610fcf565b600181019050610fe8565b5050565b601f82111561104b5761101c81610eeb565b61102584610f00565b81016020851015611034578190505b61104861104085610f00565b830182610fe7565b50505b505050565b600082821c905092915050565b600061106e60001984600802611050565b1980831691505092915050565b6000611087838361105d565b9150826002028217905092915050565b6110a18383610eb1565b67ffffffffffffffff8111156110ba576110b9610ebc565b5b6110c48254610e80565b6110cf82828561100a565b6000601f8311600181146110fe57600084156110ec578287013590505b6110f6858261107b565b86555061115e565b601f19841661110c86610eeb565b60005b828110156111345784890135825560018201915060208501945060208101905061110f565b86831015611151578489013561114d601f89168261105d565b8355505b6001600288020188555050505b50505050505050565b6000611172826109a4565b91507fffffffffffffffffffffffffffffffffffffffffffffffffffffffffffffffff82036111a4576111a3610df1565b5b60018201905091905056fea264697066735822122051d143f4a6f5feb9601d70a13b3a180fc897d0202b11d1e1b04045bf8b8bc6b064736f6c634300080f0033","opcodes":"PUSH1 0x80 PUSH1 0x40 MSTORE CALLVALUE DUP1 ISZERO PUSH3 0x11 JUMPI PUSH1 0x0 DUP1 REVERT JUMPDEST POP PUSH1 0x40 MLOAD PUSH3 0x186F CODESIZE SUB DUP1 PUSH3 0x186F DUP4 CODECOPY DUP2 DUP2 ADD PUSH1 0x40 MSTORE DUP2 ADD SWAP1 PUSH3 0x37 SWAP2 SWAP1 PUSH3 0x2D7 JUMP JUMPDEST DUP1 PUSH1 0x1 PUSH1 0x0 PUSH2 0x100 EXP DUP2 SLOAD DUP2 PUSH20 0xFFFFFFFFFFFFFFFFFFFFFFFFFFFFFFFFFFFFFFFF MUL NOT AND SWAP1 DUP4 PUSH20 0xFFFFFFFFFFFFFFFFFFFFFFFFFFFFFFFFFFFFFFFF AND MUL OR SWAP1 SSTORE POP DUP3 PUSH1 0x2 SWAP1 DUP2 PUSH3 0x89 SWAP2 SWAP1 PUSH3 0x593 JUMP JUMPDEST POP DUP2 PUSH1 0x3 DUP2 SWAP1 SSTORE POP POP POP POP PUSH3 0x67A JUMP JUMPDEST PUSH1 0x0 PUSH1 0x40 MLOAD SWAP1 POP SWAP1 JUMP JUMPDEST PUSH1 0x0 DUP1 REVERT JUMPDEST PUSH1 0x0 DUP1 REVERT JUMPDEST PUSH1 0x0 DUP1 REVERT JUMPDEST PUSH1 0x0 DUP1 REVERT JUMPDEST PUSH1 0x0 PUSH1 0x1F NOT PUSH1 0x1F DUP4 ADD AND SWAP1 POP SWAP2 SWAP1 POP JUMP JUMPDEST PUSH32 0x4E487B7100000000000000000000000000000000000000000000000000000000 PUSH1 0x0 MSTORE PUSH1 0x41 PUSH1 0x4 MSTORE PUSH1 0x24 PUSH1 0x0 REVERT JUMPDEST PUSH3 0x103 DUP3 PUSH3 0xB8 JUMP JUMPDEST DUP2 ADD DUP2 DUP2 LT PUSH8 0xFFFFFFFFFFFFFFFF DUP3 GT OR ISZERO PUSH3 0x125 JUMPI PUSH3 0x124 PUSH3 0xC9 JUMP JUMPDEST JUMPDEST DUP1 PUSH1 0x40 MSTORE POP POP POP JUMP JUMPDEST PUSH1 0x0 PUSH3 0x13A PUSH3 0x9A JUMP JUMPDEST SWAP1 POP PUSH3 0x148 DUP3 DUP3 PUSH3 0xF8 JUMP JUMPDEST SWAP2 SWAP1 POP JUMP JUMPDEST PUSH1 0x0 PUSH8 0xFFFFFFFFFFFFFFFF DUP3 GT ISZERO PUSH3 0x16B JUMPI PUSH3 0x16A PUSH3 0xC9 JUMP JUMPDEST JUMPDEST PUSH3 0x176 DUP3 PUSH3 0xB8 JUMP JUMPDEST SWAP1 POP PUSH1 0x20 DUP2 ADD SWAP1 POP SWAP2 SWAP1 POP JUMP JUMPDEST PUSH1 0x0 JUMPDEST DUP4 DUP2 LT ISZERO PUSH3 0x1A3 JUMPI DUP1 DUP3 ADD MLOAD DUP2 DUP5 ADD MSTORE PUSH1 0x20 DUP2 ADD SWAP1 POP PUSH3 0x186 JUMP JUMPDEST DUP4 DUP2 GT ISZERO PUSH3 0x1B3 JUMPI PUSH1 0x0 DUP5 DUP5 ADD MSTORE JUMPDEST POP POP POP POP JUMP JUMPDEST PUSH1 0x0 PUSH3 0x1D0 PUSH3 0x1CA DUP5 PUSH3 0x14D JUMP JUMPDEST PUSH3 0x12E JUMP JUMPDEST SWAP1 POP DUP3 DUP2 MSTORE PUSH1 0x20 DUP2 ADD DUP5 DUP5 DUP5 ADD GT ISZERO PUSH3 0x1EF JUMPI PUSH3 0x1EE PUSH3 0xB3 JUMP JUMPDEST JUMPDEST PUSH3 0x1FC DUP5 DUP3 DUP6 PUSH3 0x183 JUMP JUMPDEST POP SWAP4 SWAP3 POP POP POP JUMP JUMPDEST PUSH1 0x0 DUP3 PUSH1 0x1F DUP4 ADD SLT PUSH3 0x21C JUMPI PUSH3 0x21B PUSH3 0xAE JUMP JUMPDEST JUMPDEST DUP2 MLOAD PUSH3 0x22E DUP5 DUP3 PUSH1 0x20 DUP7 ADD PUSH3 0x1B9 JUMP JUMPDEST SWAP2 POP POP SWAP3 SWAP2 POP POP JUMP JUMPDEST PUSH1 0x0 DUP2 SWAP1 POP SWAP2 SWAP1 POP JUMP JUMPDEST PUSH3 0x24C DUP2 PUSH3 0x237 JUMP JUMPDEST DUP2 EQ PUSH3 0x258 JUMPI PUSH1 0x0 DUP1 REVERT JUMPDEST POP JUMP JUMPDEST PUSH1 0x0 DUP2 MLOAD SWAP1 POP PUSH3 0x26C DUP2 PUSH3 0x241 JUMP JUMPDEST SWAP3 SWAP2 POP POP JUMP JUMPDEST PUSH1 0x0 PUSH20 0xFFFFFFFFFFFFFFFFFFFFFFFFFFFFFFFFFFFFFFFF DUP3 AND SWAP1 POP SWAP2 SWAP1 POP JUMP JUMPDEST PUSH1 0x0 PUSH3 0x29F DUP3 PUSH3 0x272 JUMP JUMPDEST SWAP1 POP SWAP2 SWAP1 POP JUMP JUMPDEST PUSH3 0x2B1 DUP2 PUSH3 0x292 JUMP JUMPDEST DUP2 EQ PUSH3 0x2BD JUMPI PUSH1 0x0 DUP1 REVERT JUMPDEST POP JUMP JUMPDEST PUSH1 0x0 DUP2 MLOAD SWAP1 POP PUSH3 0x2D1 DUP2 PUSH3 0x2A6 JUMP JUMPDEST SWAP3 SWAP2 POP POP JUMP JUMPDEST PUSH1 0x0 DUP1 PUSH1 0x0 PUSH1 0x60 DUP5 DUP7 SUB SLT ISZERO PUSH3 0x2F3 JUMPI PUSH3 0x2F2 PUSH3 0xA4 JUMP JUMPDEST JUMPDEST PUSH1 0x0 DUP5 ADD MLOAD PUSH8 0xFFFFFFFFFFFFFFFF DUP2 GT ISZERO PUSH3 0x314 JUMPI PUSH3 0x313 PUSH3 0xA9 JUMP JUMPDEST JUMPDEST PUSH3 0x322 DUP7 DUP3 DUP8 ADD PUSH3 0x204 JUMP JUMPDEST SWAP4 POP POP PUSH1 0x20 PUSH3 0x335 DUP7 DUP3 DUP8 ADD PUSH3 0x25B JUMP JUMPDEST SWAP3 POP POP PUSH1 0x40 PUSH3 0x348 DUP7 DUP3 DUP8 ADD PUSH3 0x2C0 JUMP JUMPDEST SWAP2 POP POP SWAP3 POP SWAP3 POP SWAP3 JUMP JUMPDEST PUSH1 0x0 DUP2 MLOAD SWAP1 POP SWAP2 SWAP1 POP JUMP JUMPDEST PUSH32 0x4E487B7100000000000000000000000000000000000000000000000000000000 PUSH1 0x0 MSTORE PUSH1 0x22 PUSH1 0x4 MSTORE PUSH1 0x24 PUSH1 0x0 REVERT JUMPDEST PUSH1 0x0 PUSH1 0x2 DUP3 DIV SWAP1 POP PUSH1 0x1 DUP3 AND DUP1 PUSH3 0x3A5 JUMPI PUSH1 0x7F DUP3 AND SWAP2 POP JUMPDEST PUSH1 0x20 DUP3 LT DUP2 SUB PUSH3 0x3BB JUMPI PUSH3 0x3BA PUSH3 0x35D JUMP JUMPDEST JUMPDEST POP SWAP2 SWAP1 POP JUMP JUMPDEST PUSH1 0x0 DUP2 SWAP1 POP DUP2 PUSH1 0x0 MSTORE PUSH1 0x20 PUSH1 0x0 KECCAK256 SWAP1 POP SWAP2 SWAP1 POP JUMP JUMPDEST PUSH1 0x0 PUSH1 0x20 PUSH1 0x1F DUP4 ADD DIV SWAP1 POP SWAP2 SWAP1 POP JUMP JUMPDEST PUSH1 0x0 DUP3 DUP3 SHL SWAP1 POP SWAP3 SWAP2 POP POP JUMP JUMPDEST PUSH1 0x0 PUSH1 0x8 DUP4 MUL PUSH3 0x425 PUSH32 0xFFFFFFFFFFFFFFFFFFFFFFFFFFFFFFFFFFFFFFFFFFFFFFFFFFFFFFFFFFFFFFFF DUP3 PUSH3 0x3E6 JUMP JUMPDEST PUSH3 0x431 DUP7 DUP4 PUSH3 0x3E6 JUMP JUMPDEST SWAP6 POP DUP1 NOT DUP5 AND SWAP4 POP DUP1 DUP7 AND DUP5 OR SWAP3 POP POP POP SWAP4 SWAP3 POP POP POP JUMP JUMPDEST PUSH1 0x0 DUP2 SWAP1 POP SWAP2 SWAP1 POP JUMP JUMPDEST PUSH1 0x0 PUSH3 0x474 PUSH3 0x46E PUSH3 0x468 DUP5 PUSH3 0x237 JUMP JUMPDEST PUSH3 0x449 JUMP JUMPDEST PUSH3 0x237 JUMP JUMPDEST SWAP1 POP SWAP2 SWAP1 POP JUMP JUMPDEST PUSH1 0x0 DUP2 SWAP1 POP SWAP2 SWAP1 POP JUMP JUMPDEST PUSH3 0x490 DUP4 PUSH3 0x453 JUMP JUMPDEST PUSH3 0x4A8 PUSH3 0x49F DUP3 PUSH3 0x47B JUMP JUMPDEST DUP5 DUP5 SLOAD PUSH3 0x3F3 JUMP JUMPDEST DUP3 SSTORE POP POP POP POP JUMP JUMPDEST PUSH1 0x0 SWAP1 JUMP JUMPDEST PUSH3 0x4BF PUSH3 0x4B0 JUMP JUMPDEST PUSH3 0x4CC DUP2 DUP5 DUP5 PUSH3 0x485 JUMP JUMPDEST POP POP POP JUMP JUMPDEST JUMPDEST DUP2 DUP2 LT ISZERO PUSH3 0x4F4 JUMPI PUSH3 0x4E8 PUSH1 0x0 DUP3 PUSH3 0x4B5 JUMP JUMPDEST PUSH1 0x1 DUP2 ADD SWAP1 POP PUSH3 0x4D2 JUMP JUMPDEST POP POP JUMP JUMPDEST PUSH1 0x1F DUP3 GT ISZERO PUSH3 0x543 JUMPI PUSH3 0x50D DUP2 PUSH3 0x3C1 JUMP JUMPDEST PUSH3 0x518 DUP5 PUSH3 0x3D6 JUMP JUMPDEST DUP2 ADD PUSH1 0x20 DUP6 LT ISZERO PUSH3 0x528 JUMPI DUP2 SWAP1 POP JUMPDEST PUSH3 0x540 PUSH3 0x537 DUP6 PUSH3 0x3D6 JUMP JUMPDEST DUP4 ADD DUP3 PUSH3 0x4D1 JUMP JUMPDEST POP POP JUMPDEST POP POP POP JUMP JUMPDEST PUSH1 0x0 DUP3 DUP3 SHR SWAP1 POP SWAP3 SWAP2 POP POP JUMP JUMPDEST PUSH1 0x0 PUSH3 0x568 PUSH1 0x0 NOT DUP5 PUSH1 0x8 MUL PUSH3 0x548 JUMP JUMPDEST NOT DUP1 DUP4 AND SWAP2 POP POP SWAP3 SWAP2 POP POP JUMP JUMPDEST PUSH1 0x0 PUSH3 0x583 DUP4 DUP4 PUSH3 0x555 JUMP JUMPDEST SWAP2 POP DUP3 PUSH1 0x2 MUL DUP3 OR SWAP1 POP SWAP3 SWAP2 POP POP JUMP JUMPDEST PUSH3 0x59E DUP3 PUSH3 0x352 JUMP JUMPDEST PUSH8 0xFFFFFFFFFFFFFFFF DUP2 GT ISZERO PUSH3 0x5BA JUMPI PUSH3 0x5B9 PUSH3 0xC9 JUMP JUMPDEST JUMPDEST PUSH3 0x5C6 DUP3 SLOAD PUSH3 0x38C JUMP JUMPDEST PUSH3 0x5D3 DUP3 DUP3 DUP6 PUSH3 0x4F8 JUMP JUMPDEST PUSH1 0x0 PUSH1 0x20 SWAP1 POP PUSH1 0x1F DUP4 GT PUSH1 0x1 DUP2 EQ PUSH3 0x60B JUMPI PUSH1 0x0 DUP5 ISZERO PUSH3 0x5F6 JUMPI DUP3 DUP8 ADD MLOAD SWAP1 POP JUMPDEST PUSH3 0x602 DUP6 DUP3 PUSH3 0x575 JUMP JUMPDEST DUP7 SSTORE POP PUSH3 0x672 JUMP JUMPDEST PUSH1 0x1F NOT DUP5 AND PUSH3 0x61B DUP7 PUSH3 0x3C1 JUMP JUMPDEST PUSH1 0x0 JUMPDEST DUP3 DUP2 LT ISZERO PUSH3 0x645 JUMPI DUP5 DUP10 ADD MLOAD DUP3 SSTORE PUSH1 0x1 DUP3 ADD SWAP2 POP PUSH1 0x20 DUP6 ADD SWAP5 POP PUSH1 0x20 DUP2 ADD SWAP1 POP PUSH3 0x61E JUMP JUMPDEST DUP7 DUP4 LT ISZERO PUSH3 0x665 JUMPI DUP5 DUP10 ADD MLOAD PUSH3 0x661 PUSH1 0x1F DUP10 AND DUP3 PUSH3 0x555 JUMP JUMPDEST DUP4 SSTORE POP JUMPDEST PUSH1 0x1 PUSH1 0x2 DUP9 MUL ADD DUP9 SSTORE POP POP POP JUMPDEST POP POP POP POP POP POP JUMP JUMPDEST PUSH2 0x11E5 DUP1 PUSH3 0x68A PUSH1 0x0 CODECOPY PUSH1 0x0 RETURN INVALID PUSH1 0x80 PUSH1 0x40 MSTORE PUSH1 0x4 CALLDATASIZE LT PUSH2 0xA7 JUMPI PUSH1 0x0 CALLDATALOAD PUSH1 0xE0 SHR DUP1 PUSH4 0x8A9CFD55 GT PUSH2 0x64 JUMPI DUP1 PUSH4 0x8A9CFD55 EQ PUSH2 0x1D9 JUMPI DUP1 PUSH4 0x937E09B1 EQ PUSH2 0x202 JUMPI DUP1 PUSH4 0xB59D7685 EQ PUSH2 0x22D JUMPI DUP1 PUSH4 0xD7BB99BA EQ PUSH2 0x258 JUMPI DUP1 PUSH4 0xD7D1BBDB EQ PUSH2 0x262 JUMPI DUP1 PUSH4 0xE9F146A3 EQ PUSH2 0x28B JUMPI PUSH2 0xA7 JUMP JUMPDEST DUP1 PUSH4 0x3441006 EQ PUSH2 0xAC JUMPI DUP1 PUSH4 0x34B66460 EQ PUSH2 0xD5 JUMPI DUP1 PUSH4 0x4051DDAC EQ PUSH2 0x112 JUMPI DUP1 PUSH4 0x481C6A75 EQ PUSH2 0x142 JUMPI DUP1 PUSH4 0x6AF7C375 EQ PUSH2 0x16D JUMPI DUP1 PUSH4 0x81D12C58 EQ PUSH2 0x198 JUMPI JUMPDEST PUSH1 0x0 DUP1 REVERT JUMPDEST CALLVALUE DUP1 ISZERO PUSH2 0xB8 JUMPI PUSH1 0x0 DUP1 REVERT JUMPDEST POP PUSH2 0xD3 PUSH1 0x4 DUP1 CALLDATASIZE SUB DUP2 ADD SWAP1 PUSH2 0xCE SWAP2 SWAP1 PUSH2 0x9DA JUMP JUMPDEST PUSH2 0x2B6 JUMP JUMPDEST STOP JUMPDEST CALLVALUE DUP1 ISZERO PUSH2 0xE1 JUMPI PUSH1 0x0 DUP1 REVERT JUMPDEST POP PUSH2 0xFC PUSH1 0x4 DUP1 CALLDATASIZE SUB DUP2 ADD SWAP1 PUSH2 0xF7 SWAP2 SWAP1 PUSH2 0xA65 JUMP JUMPDEST PUSH2 0x3FF JUMP JUMPDEST PUSH1 0x40 MLOAD PUSH2 0x109 SWAP2 SWAP1 PUSH2 0xAAD JUMP JUMPDEST PUSH1 0x40 MLOAD DUP1 SWAP2 SUB SWAP1 RETURN JUMPDEST CALLVALUE DUP1 ISZERO PUSH2 0x11E JUMPI PUSH1 0x0 DUP1 REVERT JUMPDEST POP PUSH2 0x127 PUSH2 0x41F JUMP JUMPDEST PUSH1 0x40 MLOAD PUSH2 0x139 SWAP7 SWAP6 SWAP5 SWAP4 SWAP3 SWAP2 SWAP1 PUSH2 0xB7F JUMP JUMPDEST PUSH1 0x40 MLOAD DUP1 SWAP2 SUB SWAP1 RETURN JUMPDEST CALLVALUE DUP1 ISZERO PUSH2 0x14E JUMPI PUSH1 0x0 DUP1 REVERT JUMPDEST POP PUSH2 0x157 PUSH2 0x4FB JUMP JUMPDEST PUSH1 0x40 MLOAD PUSH2 0x164 SWAP2 SWAP1 PUSH2 0xBE7 JUMP JUMPDEST PUSH1 0x40 MLOAD DUP1 SWAP2 SUB SWAP1 RETURN JUMPDEST CALLVALUE DUP1 ISZERO PUSH2 0x179 JUMPI PUSH1 0x0 DUP1 REVERT JUMPDEST POP PUSH2 0x182 PUSH2 0x521 JUMP JUMPDEST PUSH1 0x40 MLOAD PUSH2 0x18F SWAP2 SWAP1 PUSH2 0xC02 JUMP JUMPDEST PUSH1 0x40 MLOAD DUP1 SWAP2 SUB SWAP1 RETURN JUMPDEST CALLVALUE DUP1 ISZERO PUSH2 0x1A4 JUMPI PUSH1 0x0 DUP1 REVERT JUMPDEST POP PUSH2 0x1BF PUSH1 0x4 DUP1 CALLDATASIZE SUB DUP2 ADD SWAP1 PUSH2 0x1BA SWAP2 SWAP1 PUSH2 0x9DA JUMP JUMPDEST PUSH2 0x5AF JUMP JUMPDEST PUSH1 0x40 MLOAD PUSH2 0x1D0 SWAP6 SWAP5 SWAP4 SWAP3 SWAP2 SWAP1 PUSH2 0xC45 JUMP JUMPDEST PUSH1 0x40 MLOAD DUP1 SWAP2 SUB SWAP1 RETURN JUMPDEST CALLVALUE DUP1 ISZERO PUSH2 0x1E5 JUMPI PUSH1 0x0 DUP1 REVERT JUMPDEST POP PUSH2 0x200 PUSH1 0x4 DUP1 CALLDATASIZE SUB DUP2 ADD SWAP1 PUSH2 0x1FB SWAP2 SWAP1 PUSH2 0xD04 JUMP JUMPDEST PUSH2 0x6AA JUMP JUMPDEST STOP JUMPDEST CALLVALUE DUP1 ISZERO PUSH2 0x20E JUMPI PUSH1 0x0 DUP1 REVERT JUMPDEST POP PUSH2 0x217 PUSH2 0x7B5 JUMP JUMPDEST PUSH1 0x40 MLOAD PUSH2 0x224 SWAP2 SWAP1 PUSH2 0xD78 JUMP JUMPDEST PUSH1 0x40 MLOAD DUP1 SWAP2 SUB SWAP1 RETURN JUMPDEST CALLVALUE DUP1 ISZERO PUSH2 0x239 JUMPI PUSH1 0x0 DUP1 REVERT JUMPDEST POP PUSH2 0x242 PUSH2 0x7BB JUMP JUMPDEST PUSH1 0x40 MLOAD PUSH2 0x24F SWAP2 SWAP1 PUSH2 0xD78 JUMP JUMPDEST PUSH1 0x40 MLOAD DUP1 SWAP2 SUB SWAP1 RETURN JUMPDEST PUSH2 0x260 PUSH2 0x7C7 JUMP JUMPDEST STOP JUMPDEST CALLVALUE DUP1 ISZERO PUSH2 0x26E JUMPI PUSH1 0x0 DUP1 REVERT JUMPDEST POP PUSH2 0x289 PUSH1 0x4 DUP1 CALLDATASIZE SUB DUP2 ADD SWAP1 PUSH2 0x284 SWAP2 SWAP1 PUSH2 0x9DA JUMP JUMPDEST PUSH2 0x848 JUMP JUMPDEST STOP JUMPDEST CALLVALUE DUP1 ISZERO PUSH2 0x297 JUMPI PUSH1 0x0 DUP1 REVERT JUMPDEST POP PUSH2 0x2A0 PUSH2 0x994 JUMP JUMPDEST PUSH1 0x40 MLOAD PUSH2 0x2AD SWAP2 SWAP1 PUSH2 0xD78 JUMP JUMPDEST PUSH1 0x40 MLOAD DUP1 SWAP2 SUB SWAP1 RETURN JUMPDEST PUSH1 0x1 PUSH1 0x0 SWAP1 SLOAD SWAP1 PUSH2 0x100 EXP SWAP1 DIV PUSH20 0xFFFFFFFFFFFFFFFFFFFFFFFFFFFFFFFFFFFFFFFF AND PUSH20 0xFFFFFFFFFFFFFFFFFFFFFFFFFFFFFFFFFFFFFFFF AND CALLER PUSH20 0xFFFFFFFFFFFFFFFFFFFFFFFFFFFFFFFFFFFFFFFF AND EQ PUSH2 0x310 JUMPI PUSH1 0x0 DUP1 REVERT JUMPDEST PUSH1 0x0 DUP1 DUP3 DUP2 SLOAD DUP2 LT PUSH2 0x325 JUMPI PUSH2 0x324 PUSH2 0xD93 JUMP JUMPDEST JUMPDEST SWAP1 PUSH1 0x0 MSTORE PUSH1 0x20 PUSH1 0x0 KECCAK256 SWAP1 PUSH1 0x5 MUL ADD SWAP1 POP PUSH1 0x2 PUSH1 0x4 SLOAD PUSH2 0x344 SWAP2 SWAP1 PUSH2 0xE20 JUMP JUMPDEST DUP2 PUSH1 0x3 ADD SLOAD GT PUSH2 0x353 JUMPI PUSH1 0x0 DUP1 REVERT JUMPDEST DUP1 PUSH1 0x2 ADD PUSH1 0x14 SWAP1 SLOAD SWAP1 PUSH2 0x100 EXP SWAP1 DIV PUSH1 0xFF AND ISZERO PUSH2 0x36F JUMPI PUSH1 0x0 DUP1 REVERT JUMPDEST PUSH1 0x1 DUP2 PUSH1 0x2 ADD PUSH1 0x14 PUSH2 0x100 EXP DUP2 SLOAD DUP2 PUSH1 0xFF MUL NOT AND SWAP1 DUP4 ISZERO ISZERO MUL OR SWAP1 SSTORE POP DUP1 PUSH1 0x2 ADD PUSH1 0x0 SWAP1 SLOAD SWAP1 PUSH2 0x100 EXP SWAP1 DIV PUSH20 0xFFFFFFFFFFFFFFFFFFFFFFFFFFFFFFFFFFFFFFFF AND PUSH20 0xFFFFFFFFFFFFFFFFFFFFFFFFFFFFFFFFFFFFFFFF AND PUSH2 0x8FC DUP3 PUSH1 0x1 ADD SLOAD SWAP1 DUP2 ISZERO MUL SWAP1 PUSH1 0x40 MLOAD PUSH1 0x0 PUSH1 0x40 MLOAD DUP1 DUP4 SUB DUP2 DUP6 DUP9 DUP9 CALL SWAP4 POP POP POP POP ISZERO DUP1 ISZERO PUSH2 0x3FA JUMPI RETURNDATASIZE PUSH1 0x0 DUP1 RETURNDATACOPY RETURNDATASIZE PUSH1 0x0 REVERT JUMPDEST POP POP POP JUMP JUMPDEST PUSH1 0x5 PUSH1 0x20 MSTORE DUP1 PUSH1 0x0 MSTORE PUSH1 0x40 PUSH1 0x0 KECCAK256 PUSH1 0x0 SWAP2 POP SLOAD SWAP1 PUSH2 0x100 EXP SWAP1 DIV PUSH1 0xFF AND DUP2 JUMP JUMPDEST PUSH1 0x0 DUP1 PUSH1 0x0 DUP1 PUSH1 0x0 PUSH1 0x60 PUSH1 0x3 SLOAD SELFBALANCE PUSH1 0x0 DUP1 SLOAD SWAP1 POP PUSH1 0x4 SLOAD PUSH1 0x1 PUSH1 0x0 SWAP1 SLOAD SWAP1 PUSH2 0x100 EXP SWAP1 DIV PUSH20 0xFFFFFFFFFFFFFFFFFFFFFFFFFFFFFFFFFFFFFFFF AND PUSH1 0x2 DUP1 DUP1 SLOAD PUSH2 0x467 SWAP1 PUSH2 0xE80 JUMP JUMPDEST DUP1 PUSH1 0x1F ADD PUSH1 0x20 DUP1 SWAP2 DIV MUL PUSH1 0x20 ADD PUSH1 0x40 MLOAD SWAP1 DUP2 ADD PUSH1 0x40 MSTORE DUP1 SWAP3 SWAP2 SWAP1 DUP2 DUP2 MSTORE PUSH1 0x20 ADD DUP3 DUP1 SLOAD PUSH2 0x493 SWAP1 PUSH2 0xE80 JUMP JUMPDEST DUP1 ISZERO PUSH2 0x4E0 JUMPI DUP1 PUSH1 0x1F LT PUSH2 0x4B5 JUMPI PUSH2 0x100 DUP1 DUP4 SLOAD DIV MUL DUP4 MSTORE SWAP2 PUSH1 0x20 ADD SWAP2 PUSH2 0x4E0 JUMP JUMPDEST DUP3 ADD SWAP2 SWAP1 PUSH1 0x0 MSTORE PUSH1 0x20 PUSH1 0x0 KECCAK256 SWAP1 JUMPDEST DUP2 SLOAD DUP2 MSTORE SWAP1 PUSH1 0x1 ADD SWAP1 PUSH1 0x20 ADD DUP1 DUP4 GT PUSH2 0x4C3 JUMPI DUP3 SWAP1 SUB PUSH1 0x1F AND DUP3 ADD SWAP2 JUMPDEST POP POP POP POP POP SWAP1 POP SWAP6 POP SWAP6 POP SWAP6 POP SWAP6 POP SWAP6 POP SWAP6 POP SWAP1 SWAP2 SWAP3 SWAP4 SWAP5 SWAP6 JUMP JUMPDEST PUSH1 0x1 PUSH1 0x0 SWAP1 SLOAD SWAP1 PUSH2 0x100 EXP SWAP1 DIV PUSH20 0xFFFFFFFFFFFFFFFFFFFFFFFFFFFFFFFFFFFFFFFF AND DUP2 JUMP JUMPDEST PUSH1 0x2 DUP1 SLOAD PUSH2 0x52E SWAP1 PUSH2 0xE80 JUMP JUMPDEST DUP1 PUSH1 0x1F ADD PUSH1 0x20 DUP1 SWAP2 DIV MUL PUSH1 0x20 ADD PUSH1 0x40 MLOAD SWAP1 DUP2 ADD PUSH1 0x40 MSTORE DUP1 SWAP3 SWAP2 SWAP1 DUP2 DUP2 MSTORE PUSH1 0x20 ADD DUP3 DUP1 SLOAD PUSH2 0x55A SWAP1 PUSH2 0xE80 JUMP JUMPDEST DUP1 ISZERO PUSH2 0x5A7 JUMPI DUP1 PUSH1 0x1F LT PUSH2 0x57C JUMPI PUSH2 0x100 DUP1 DUP4 SLOAD DIV MUL DUP4 MSTORE SWAP2 PUSH1 0x20 ADD SWAP2 PUSH2 0x5A7 JUMP JUMPDEST DUP3 ADD SWAP2 SWAP1 PUSH1 0x0 MSTORE PUSH1 0x20 PUSH1 0x0 KECCAK256 SWAP1 JUMPDEST DUP2 SLOAD DUP2 MSTORE SWAP1 PUSH1 0x1 ADD SWAP1 PUSH1 0x20 ADD DUP1 DUP4 GT PUSH2 0x58A JUMPI DUP3 SWAP1 SUB PUSH1 0x1F AND DUP3 ADD SWAP2 JUMPDEST POP POP POP POP POP DUP2 JUMP JUMPDEST PUSH1 0x0 DUP2 DUP2 SLOAD DUP2 LT PUSH2 0x5BF JUMPI PUSH1 0x0 DUP1 REVERT JUMPDEST SWAP1 PUSH1 0x0 MSTORE PUSH1 0x20 PUSH1 0x0 KECCAK256 SWAP1 PUSH1 0x5 MUL ADD PUSH1 0x0 SWAP2 POP SWAP1 POP DUP1 PUSH1 0x0 ADD DUP1 SLOAD PUSH2 0x5E2 SWAP1 PUSH2 0xE80 JUMP JUMPDEST DUP1 PUSH1 0x1F ADD PUSH1 0x20 DUP1 SWAP2 DIV MUL PUSH1 0x20 ADD PUSH1 0x40 MLOAD SWAP1 DUP2 ADD PUSH1 0x40 MSTORE DUP1 SWAP3 SWAP2 SWAP1 DUP2 DUP2 MSTORE PUSH1 0x20 ADD DUP3 DUP1 SLOAD PUSH2 0x60E SWAP1 PUSH2 0xE80 JUMP JUMPDEST DUP1 ISZERO PUSH2 0x65B JUMPI DUP1 PUSH1 0x1F LT PUSH2 0x630 JUMPI PUSH2 0x100 DUP1 DUP4 SLOAD DIV MUL DUP4 MSTORE SWAP2 PUSH1 0x20 ADD SWAP2 PUSH2 0x65B JUMP JUMPDEST DUP3 ADD SWAP2 SWAP1 PUSH1 0x0 MSTORE PUSH1 0x20 PUSH1 0x0 KECCAK256 SWAP1 JUMPDEST DUP2 SLOAD DUP2 MSTORE SWAP1 PUSH1 0x1 ADD SWAP1 PUSH1 0x20 ADD DUP1 DUP4 GT PUSH2 0x63E JUMPI DUP3 SWAP1 SUB PUSH1 0x1F AND DUP3 ADD SWAP2 JUMPDEST POP POP POP POP POP SWAP1 DUP1 PUSH1 0x1 ADD SLOAD SWAP1 DUP1 PUSH1 0x2 ADD PUSH1 0x0 SWAP1 SLOAD SWAP1 PUSH2 0x100 EXP SWAP1 DIV PUSH20 0xFFFFFFFFFFFFFFFFFFFFFFFFFFFFFFFFFFFFFFFF AND SWAP1 DUP1 PUSH1 0x2 ADD PUSH1 0x14 SWAP1 SLOAD SWAP1 PUSH2 0x100 EXP SWAP1 DIV PUSH1 0xFF AND SWAP1 DUP1 PUSH1 0x3 ADD SLOAD SWAP1 POP DUP6 JUMP JUMPDEST PUSH1 0x1 PUSH1 0x0 SWAP1 SLOAD SWAP1 PUSH2 0x100 EXP SWAP1 DIV PUSH20 0xFFFFFFFFFFFFFFFFFFFFFFFFFFFFFFFFFFFFFFFF AND PUSH20 0xFFFFFFFFFFFFFFFFFFFFFFFFFFFFFFFFFFFFFFFF AND CALLER PUSH20 0xFFFFFFFFFFFFFFFFFFFFFFFFFFFFFFFFFFFFFFFF AND EQ PUSH2 0x704 JUMPI PUSH1 0x0 DUP1 REVERT JUMPDEST PUSH1 0x0 DUP1 PUSH1 0x1 DUP2 PUSH1 0x1 DUP2 SLOAD ADD DUP1 DUP3 SSTORE DUP1 SWAP2 POP POP SUB SWAP1 PUSH1 0x0 MSTORE PUSH1 0x20 PUSH1 0x0 KECCAK256 SWAP1 PUSH1 0x5 MUL ADD SWAP1 POP DUP5 DUP5 DUP3 PUSH1 0x0 ADD SWAP2 DUP3 PUSH2 0x73A SWAP3 SWAP2 SWAP1 PUSH2 0x1097 JUMP JUMPDEST POP DUP3 DUP2 PUSH1 0x1 ADD DUP2 SWAP1 SSTORE POP DUP2 DUP2 PUSH1 0x2 ADD PUSH1 0x0 PUSH2 0x100 EXP DUP2 SLOAD DUP2 PUSH20 0xFFFFFFFFFFFFFFFFFFFFFFFFFFFFFFFFFFFFFFFF MUL NOT AND SWAP1 DUP4 PUSH20 0xFFFFFFFFFFFFFFFFFFFFFFFFFFFFFFFFFFFFFFFF AND MUL OR SWAP1 SSTORE POP PUSH1 0x0 DUP2 PUSH1 0x2 ADD PUSH1 0x14 PUSH2 0x100 EXP DUP2 SLOAD DUP2 PUSH1 0xFF MUL NOT AND SWAP1 DUP4 ISZERO ISZERO MUL OR SWAP1 SSTORE POP PUSH1 0x0 DUP2 PUSH1 0x3 ADD DUP2 SWAP1 SSTORE POP POP POP POP POP POP JUMP JUMPDEST PUSH1 0x3 SLOAD DUP2 JUMP JUMPDEST PUSH1 0x0 DUP1 DUP1 SLOAD SWAP1 POP SWAP1 POP SWAP1 JUMP JUMPDEST PUSH1 0x3 SLOAD CALLVALUE LT ISZERO PUSH2 0x7D6 JUMPI PUSH1 0x0 DUP1 REVERT JUMPDEST PUSH1 0x1 PUSH1 0x5 PUSH1 0x0 CALLER PUSH20 0xFFFFFFFFFFFFFFFFFFFFFFFFFFFFFFFFFFFFFFFF AND PUSH20 0xFFFFFFFFFFFFFFFFFFFFFFFFFFFFFFFFFFFFFFFF AND DUP2 MSTORE PUSH1 0x20 ADD SWAP1 DUP2 MSTORE PUSH1 0x20 ADD PUSH1 0x0 KECCAK256 PUSH1 0x0 PUSH2 0x100 EXP DUP2 SLOAD DUP2 PUSH1 0xFF MUL NOT AND SWAP1 DUP4 ISZERO ISZERO MUL OR SWAP1 SSTORE POP PUSH1 0x4 PUSH1 0x0 DUP2 SLOAD DUP1 SWAP3 SWAP2 SWAP1 PUSH2 0x841 SWAP1 PUSH2 0x1167 JUMP JUMPDEST SWAP2 SWAP1 POP SSTORE POP JUMP JUMPDEST PUSH1 0x0 DUP1 DUP3 DUP2 SLOAD DUP2 LT PUSH2 0x85D JUMPI PUSH2 0x85C PUSH2 0xD93 JUMP JUMPDEST JUMPDEST SWAP1 PUSH1 0x0 MSTORE PUSH1 0x20 PUSH1 0x0 KECCAK256 SWAP1 PUSH1 0x5 MUL ADD SWAP1 POP PUSH1 0x5 PUSH1 0x0 CALLER PUSH20 0xFFFFFFFFFFFFFFFFFFFFFFFFFFFFFFFFFFFFFFFF AND PUSH20 0xFFFFFFFFFFFFFFFFFFFFFFFFFFFFFFFFFFFFFFFF AND DUP2 MSTORE PUSH1 0x20 ADD SWAP1 DUP2 MSTORE PUSH1 0x20 ADD PUSH1 0x0 KECCAK256 PUSH1 0x0 SWAP1 SLOAD SWAP1 PUSH2 0x100 EXP SWAP1 DIV PUSH1 0xFF AND PUSH2 0x8C3 JUMPI PUSH1 0x0 DUP1 REVERT JUMPDEST DUP1 PUSH1 0x4 ADD PUSH1 0x0 CALLER PUSH20 0xFFFFFFFFFFFFFFFFFFFFFFFFFFFFFFFFFFFFFFFF AND PUSH20 0xFFFFFFFFFFFFFFFFFFFFFFFFFFFFFFFFFFFFFFFF AND DUP2 MSTORE PUSH1 0x20 ADD SWAP1 DUP2 MSTORE PUSH1 0x20 ADD PUSH1 0x0 KECCAK256 PUSH1 0x0 SWAP1 SLOAD SWAP1 PUSH2 0x100 EXP SWAP1 DIV PUSH1 0xFF AND ISZERO PUSH2 0x91C JUMPI PUSH1 0x0 DUP1 REVERT JUMPDEST PUSH1 0x1 DUP2 PUSH1 0x4 ADD PUSH1 0x0 CALLER PUSH20 0xFFFFFFFFFFFFFFFFFFFFFFFFFFFFFFFFFFFFFFFF AND PUSH20 0xFFFFFFFFFFFFFFFFFFFFFFFFFFFFFFFFFFFFFFFF AND DUP2 MSTORE PUSH1 0x20 ADD SWAP1 DUP2 MSTORE PUSH1 0x20 ADD PUSH1 0x0 KECCAK256 PUSH1 0x0 PUSH2 0x100 EXP DUP2 SLOAD DUP2 PUSH1 0xFF MUL NOT AND SWAP1 DUP4 ISZERO ISZERO MUL OR SWAP1 SSTORE POP DUP1 PUSH1 0x3 ADD PUSH1 0x0 DUP2 SLOAD DUP1 SWAP3 SWAP2 SWAP1 PUSH2 0x98B SWAP1 PUSH2 0x1167 JUMP JUMPDEST SWAP2 SWAP1 POP SSTORE POP POP POP JUMP JUMPDEST PUSH1 0x4 SLOAD DUP2 JUMP JUMPDEST PUSH1 0x0 DUP1 REVERT JUMPDEST PUSH1 0x0 DUP1 REVERT JUMPDEST PUSH1 0x0 DUP2 SWAP1 POP SWAP2 SWAP1 POP JUMP JUMPDEST PUSH2 0x9B7 DUP2 PUSH2 0x9A4 JUMP JUMPDEST DUP2 EQ PUSH2 0x9C2 JUMPI PUSH1 0x0 DUP1 REVERT JUMPDEST POP JUMP JUMPDEST PUSH1 0x0 DUP2 CALLDATALOAD SWAP1 POP PUSH2 0x9D4 DUP2 PUSH2 0x9AE JUMP JUMPDEST SWAP3 SWAP2 POP POP JUMP JUMPDEST PUSH1 0x0 PUSH1 0x20 DUP3 DUP5 SUB SLT ISZERO PUSH2 0x9F0 JUMPI PUSH2 0x9EF PUSH2 0x99A JUMP JUMPDEST JUMPDEST PUSH1 0x0 PUSH2 0x9FE DUP5 DUP3 DUP6 ADD PUSH2 0x9C5 JUMP JUMPDEST SWAP2 POP POP SWAP3 SWAP2 POP POP JUMP JUMPDEST PUSH1 0x0 PUSH20 0xFFFFFFFFFFFFFFFFFFFFFFFFFFFFFFFFFFFFFFFF DUP3 AND SWAP1 POP SWAP2 SWAP1 POP JUMP JUMPDEST PUSH1 0x0 PUSH2 0xA32 DUP3 PUSH2 0xA07 JUMP JUMPDEST SWAP1 POP SWAP2 SWAP1 POP JUMP JUMPDEST PUSH2 0xA42 DUP2 PUSH2 0xA27 JUMP JUMPDEST DUP2 EQ PUSH2 0xA4D JUMPI PUSH1 0x0 DUP1 REVERT JUMPDEST POP JUMP JUMPDEST PUSH1 0x0 DUP2 CALLDATALOAD SWAP1 POP PUSH2 0xA5F DUP2 PUSH2 0xA39 JUMP JUMPDEST SWAP3 SWAP2 POP POP JUMP JUMPDEST PUSH1 0x0 PUSH1 0x20 DUP3 DUP5 SUB SLT ISZERO PUSH2 0xA7B JUMPI PUSH2 0xA7A PUSH2 0x99A JUMP JUMPDEST JUMPDEST PUSH1 0x0 PUSH2 0xA89 DUP5 DUP3 DUP6 ADD PUSH2 0xA50 JUMP JUMPDEST SWAP2 POP POP SWAP3 SWAP2 POP POP JUMP JUMPDEST PUSH1 0x0 DUP2 ISZERO ISZERO SWAP1 POP SWAP2 SWAP1 POP JUMP JUMPDEST PUSH2 0xAA7 DUP2 PUSH2 0xA92 JUMP JUMPDEST DUP3 MSTORE POP POP JUMP JUMPDEST PUSH1 0x0 PUSH1 0x20 DUP3 ADD SWAP1 POP PUSH2 0xAC2 PUSH1 0x0 DUP4 ADD DUP5 PUSH2 0xA9E JUMP JUMPDEST SWAP3 SWAP2 POP POP JUMP JUMPDEST PUSH2 0xAD1 DUP2 PUSH2 0x9A4 JUMP JUMPDEST DUP3 MSTORE POP POP JUMP JUMPDEST PUSH2 0xAE0 DUP2 PUSH2 0xA27 JUMP JUMPDEST DUP3 MSTORE POP POP JUMP JUMPDEST PUSH1 0x0 DUP2 MLOAD SWAP1 POP SWAP2 SWAP1 POP JUMP JUMPDEST PUSH1 0x0 DUP3 DUP3 MSTORE PUSH1 0x20 DUP3 ADD SWAP1 POP SWAP3 SWAP2 POP POP JUMP JUMPDEST PUSH1 0x0 JUMPDEST DUP4 DUP2 LT ISZERO PUSH2 0xB20 JUMPI DUP1 DUP3 ADD MLOAD DUP2 DUP5 ADD MSTORE PUSH1 0x20 DUP2 ADD SWAP1 POP PUSH2 0xB05 JUMP JUMPDEST DUP4 DUP2 GT ISZERO PUSH2 0xB2F JUMPI PUSH1 0x0 DUP5 DUP5 ADD MSTORE JUMPDEST POP POP POP POP JUMP JUMPDEST PUSH1 0x0 PUSH1 0x1F NOT PUSH1 0x1F DUP4 ADD AND SWAP1 POP SWAP2 SWAP1 POP JUMP JUMPDEST PUSH1 0x0 PUSH2 0xB51 DUP3 PUSH2 0xAE6 JUMP JUMPDEST PUSH2 0xB5B DUP2 DUP6 PUSH2 0xAF1 JUMP JUMPDEST SWAP4 POP PUSH2 0xB6B DUP2 DUP6 PUSH1 0x20 DUP7 ADD PUSH2 0xB02 JUMP JUMPDEST PUSH2 0xB74 DUP2 PUSH2 0xB35 JUMP JUMPDEST DUP5 ADD SWAP2 POP POP SWAP3 SWAP2 POP POP JUMP JUMPDEST PUSH1 0x0 PUSH1 0xC0 DUP3 ADD SWAP1 POP PUSH2 0xB94 PUSH1 0x0 DUP4 ADD DUP10 PUSH2 0xAC8 JUMP JUMPDEST PUSH2 0xBA1 PUSH1 0x20 DUP4 ADD DUP9 PUSH2 0xAC8 JUMP JUMPDEST PUSH2 0xBAE PUSH1 0x40 DUP4 ADD DUP8 PUSH2 0xAC8 JUMP JUMPDEST PUSH2 0xBBB PUSH1 0x60 DUP4 ADD DUP7 PUSH2 0xAC8 JUMP JUMPDEST PUSH2 0xBC8 PUSH1 0x80 DUP4 ADD DUP6 PUSH2 0xAD7 JUMP JUMPDEST DUP2 DUP2 SUB PUSH1 0xA0 DUP4 ADD MSTORE PUSH2 0xBDA DUP2 DUP5 PUSH2 0xB46 JUMP JUMPDEST SWAP1 POP SWAP8 SWAP7 POP POP POP POP POP POP POP JUMP JUMPDEST PUSH1 0x0 PUSH1 0x20 DUP3 ADD SWAP1 POP PUSH2 0xBFC PUSH1 0x0 DUP4 ADD DUP5 PUSH2 0xAD7 JUMP JUMPDEST SWAP3 SWAP2 POP POP JUMP JUMPDEST PUSH1 0x0 PUSH1 0x20 DUP3 ADD SWAP1 POP DUP2 DUP2 SUB PUSH1 0x0 DUP4 ADD MSTORE PUSH2 0xC1C DUP2 DUP5 PUSH2 0xB46 JUMP JUMPDEST SWAP1 POP SWAP3 SWAP2 POP POP JUMP JUMPDEST PUSH1 0x0 PUSH2 0xC2F DUP3 PUSH2 0xA07 JUMP JUMPDEST SWAP1 POP SWAP2 SWAP1 POP JUMP JUMPDEST PUSH2 0xC3F DUP2 PUSH2 0xC24 JUMP JUMPDEST DUP3 MSTORE POP POP JUMP JUMPDEST PUSH1 0x0 PUSH1 0xA0 DUP3 ADD SWAP1 POP DUP2 DUP2 SUB PUSH1 0x0 DUP4 ADD MSTORE PUSH2 0xC5F DUP2 DUP9 PUSH2 0xB46 JUMP JUMPDEST SWAP1 POP PUSH2 0xC6E PUSH1 0x20 DUP4 ADD DUP8 PUSH2 0xAC8 JUMP JUMPDEST PUSH2 0xC7B PUSH1 0x40 DUP4 ADD DUP7 PUSH2 0xC36 JUMP JUMPDEST PUSH2 0xC88 PUSH1 0x60 DUP4 ADD DUP6 PUSH2 0xA9E JUMP JUMPDEST PUSH2 0xC95 PUSH1 0x80 DUP4 ADD DUP5 PUSH2 0xAC8 JUMP JUMPDEST SWAP7 SWAP6 POP POP POP POP POP POP JUMP JUMPDEST PUSH1 0x0 DUP1 REVERT JUMPDEST PUSH1 0x0 DUP1 REVERT JUMPDEST PUSH1 0x0 DUP1 REVERT JUMPDEST PUSH1 0x0 DUP1 DUP4 PUSH1 0x1F DUP5 ADD SLT PUSH2 0xCC4 JUMPI PUSH2 0xCC3 PUSH2 0xC9F JUMP JUMPDEST JUMPDEST DUP3 CALLDATALOAD SWAP1 POP PUSH8 0xFFFFFFFFFFFFFFFF DUP2 GT ISZERO PUSH2 0xCE1 JUMPI PUSH2 0xCE0 PUSH2 0xCA4 JUMP JUMPDEST JUMPDEST PUSH1 0x20 DUP4 ADD SWAP2 POP DUP4 PUSH1 0x1 DUP3 MUL DUP4 ADD GT ISZERO PUSH2 0xCFD JUMPI PUSH2 0xCFC PUSH2 0xCA9 JUMP JUMPDEST JUMPDEST SWAP3 POP SWAP3 SWAP1 POP JUMP JUMPDEST PUSH1 0x0 DUP1 PUSH1 0x0 DUP1 PUSH1 0x60 DUP6 DUP8 SUB SLT ISZERO PUSH2 0xD1E JUMPI PUSH2 0xD1D PUSH2 0x99A JUMP JUMPDEST JUMPDEST PUSH1 0x0 DUP6 ADD CALLDATALOAD PUSH8 0xFFFFFFFFFFFFFFFF DUP2 GT ISZERO PUSH2 0xD3C JUMPI PUSH2 0xD3B PUSH2 0x99F JUMP JUMPDEST JUMPDEST PUSH2 0xD48 DUP8 DUP3 DUP9 ADD PUSH2 0xCAE JUMP JUMPDEST SWAP5 POP SWAP5 POP POP PUSH1 0x20 PUSH2 0xD5B DUP8 DUP3 DUP9 ADD PUSH2 0x9C5 JUMP JUMPDEST SWAP3 POP POP PUSH1 0x40 PUSH2 0xD6C DUP8 DUP3 DUP9 ADD PUSH2 0xA50 JUMP JUMPDEST SWAP2 POP POP SWAP3 SWAP6 SWAP2 SWAP5 POP SWAP3 POP JUMP JUMPDEST PUSH1 0x0 PUSH1 0x20 DUP3 ADD SWAP1 POP PUSH2 0xD8D PUSH1 0x0 DUP4 ADD DUP5 PUSH2 0xAC8 JUMP JUMPDEST SWAP3 SWAP2 POP POP JUMP JUMPDEST PUSH32 0x4E487B7100000000000000000000000000000000000000000000000000000000 PUSH1 0x0 MSTORE PUSH1 0x32 PUSH1 0x4 MSTORE PUSH1 0x24 PUSH1 0x0 REVERT JUMPDEST PUSH32 0x4E487B7100000000000000000000000000000000000000000000000000000000 PUSH1 0x0 MSTORE PUSH1 0x12 PUSH1 0x4 MSTORE PUSH1 0x24 PUSH1 0x0 REVERT JUMPDEST PUSH32 0x4E487B7100000000000000000000000000000000000000000000000000000000 PUSH1 0x0 MSTORE PUSH1 0x11 PUSH1 0x4 MSTORE PUSH1 0x24 PUSH1 0x0 REVERT JUMPDEST PUSH1 0x0 PUSH2 0xE2B DUP3 PUSH2 0x9A4 JUMP JUMPDEST SWAP2 POP PUSH2 0xE36 DUP4 PUSH2 0x9A4 JUMP JUMPDEST SWAP3 POP DUP3 PUSH2 0xE46 JUMPI PUSH2 0xE45 PUSH2 0xDC2 JUMP JUMPDEST JUMPDEST DUP3 DUP3 DIV SWAP1 POP SWAP3 SWAP2 POP POP JUMP JUMPDEST PUSH32 0x4E487B7100000000000000000000000000000000000000000000000000000000 PUSH1 0x0 MSTORE PUSH1 0x22 PUSH1 0x4 MSTORE PUSH1 0x24 PUSH1 0x0 REVERT JUMPDEST PUSH1 0x0 PUSH1 0x2 DUP3 DIV SWAP1 POP PUSH1 0x1 DUP3 AND DUP1 PUSH2 0xE98 JUMPI PUSH1 0x7F DUP3 AND SWAP2 POP JUMPDEST PUSH1 0x20 DUP3 LT DUP2 SUB PUSH2 0xEAB JUMPI PUSH2 0xEAA PUSH2 0xE51 JUMP JUMPDEST JUMPDEST POP SWAP2 SWAP1 POP JUMP JUMPDEST PUSH1 0x0 DUP3 SWAP1 POP SWAP3 SWAP2 POP POP JUMP JUMPDEST PUSH32 0x4E487B7100000000000000000000000000000000000000000000000000000000 PUSH1 0x0 MSTORE PUSH1 0x41 PUSH1 0x4 MSTORE PUSH1 0x24 PUSH1 0x0 REVERT JUMPDEST PUSH1 0x0 DUP2 SWAP1 POP DUP2 PUSH1 0x0 MSTORE PUSH1 0x20 PUSH1 0x0 KECCAK256 SWAP1 POP SWAP2 SWAP1 POP JUMP JUMPDEST PUSH1 0x0 PUSH1 0x20 PUSH1 0x1F DUP4 ADD DIV SWAP1 POP SWAP2 SWAP1 POP JUMP JUMPDEST PUSH1 0x0 DUP3 DUP3 SHL SWAP1 POP SWAP3 SWAP2 POP POP JUMP JUMPDEST PUSH1 0x0 PUSH1 0x8 DUP4 MUL PUSH2 0xF4D PUSH32 0xFFFFFFFFFFFFFFFFFFFFFFFFFFFFFFFFFFFFFFFFFFFFFFFFFFFFFFFFFFFFFFFF DUP3 PUSH2 0xF10 JUMP JUMPDEST PUSH2 0xF57 DUP7 DUP4 PUSH2 0xF10 JUMP JUMPDEST SWAP6 POP DUP1 NOT DUP5 AND SWAP4 POP DUP1 DUP7 AND DUP5 OR SWAP3 POP POP POP SWAP4 SWAP3 POP POP POP JUMP JUMPDEST PUSH1 0x0 DUP2 SWAP1 POP SWAP2 SWAP1 POP JUMP JUMPDEST PUSH1 0x0 PUSH2 0xF94 PUSH2 0xF8F PUSH2 0xF8A DUP5 PUSH2 0x9A4 JUMP JUMPDEST PUSH2 0xF6F JUMP JUMPDEST PUSH2 0x9A4 JUMP JUMPDEST SWAP1 POP SWAP2 SWAP1 POP JUMP JUMPDEST PUSH1 0x0 DUP2 SWAP1 POP SWAP2 SWAP1 POP JUMP JUMPDEST PUSH2 0xFAE DUP4 PUSH2 0xF79 JUMP JUMPDEST PUSH2 0xFC2 PUSH2 0xFBA DUP3 PUSH2 0xF9B JUMP JUMPDEST DUP5 DUP5 SLOAD PUSH2 0xF1D JUMP JUMPDEST DUP3 SSTORE POP POP POP POP JUMP JUMPDEST PUSH1 0x0 SWAP1 JUMP JUMPDEST PUSH2 0xFD7 PUSH2 0xFCA JUMP JUMPDEST PUSH2 0xFE2 DUP2 DUP5 DUP5 PUSH2 0xFA5 JUMP JUMPDEST POP POP POP JUMP JUMPDEST JUMPDEST DUP2 DUP2 LT ISZERO PUSH2 0x1006 JUMPI PUSH2 0xFFB PUSH1 0x0 DUP3 PUSH2 0xFCF JUMP JUMPDEST PUSH1 0x1 DUP2 ADD SWAP1 POP PUSH2 0xFE8 JUMP JUMPDEST POP POP JUMP JUMPDEST PUSH1 0x1F DUP3 GT ISZERO PUSH2 0x104B JUMPI PUSH2 0x101C DUP2 PUSH2 0xEEB JUMP JUMPDEST PUSH2 0x1025 DUP5 PUSH2 0xF00 JUMP JUMPDEST DUP2 ADD PUSH1 0x20 DUP6 LT ISZERO PUSH2 0x1034 JUMPI DUP2 SWAP1 POP JUMPDEST PUSH2 0x1048 PUSH2 0x1040 DUP6 PUSH2 0xF00 JUMP JUMPDEST DUP4 ADD DUP3 PUSH2 0xFE7 JUMP JUMPDEST POP POP JUMPDEST POP POP POP JUMP JUMPDEST PUSH1 0x0 DUP3 DUP3 SHR SWAP1 POP SWAP3 SWAP2 POP POP JUMP JUMPDEST PUSH1 0x0 PUSH2 0x106E PUSH1 0x0 NOT DUP5 PUSH1 0x8 MUL PUSH2 0x1050 JUMP JUMPDEST NOT DUP1 DUP4 AND SWAP2 POP POP SWAP3 SWAP2 POP POP JUMP JUMPDEST PUSH1 0x0 PUSH2 0x1087 DUP4 DUP4 PUSH2 0x105D JUMP JUMPDEST SWAP2 POP DUP3 PUSH1 0x2 MUL DUP3 OR SWAP1 POP SWAP3 SWAP2 POP POP JUMP JUMPDEST PUSH2 0x10A1 DUP4 DUP4 PUSH2 0xEB1 JUMP JUMPDEST PUSH8 0xFFFFFFFFFFFFFFFF DUP2 GT ISZERO PUSH2 0x10BA JUMPI PUSH2 0x10B9 PUSH2 0xEBC JUMP JUMPDEST JUMPDEST PUSH2 0x10C4 DUP3 SLOAD PUSH2 0xE80 JUMP JUMPDEST PUSH2 0x10CF DUP3 DUP3 DUP6 PUSH2 0x100A JUMP JUMPDEST PUSH1 0x0 PUSH1 0x1F DUP4 GT PUSH1 0x1 DUP2 EQ PUSH2 0x10FE JUMPI PUSH1 0x0 DUP5 ISZERO PUSH2 0x10EC JUMPI DUP3 DUP8 ADD CALLDATALOAD SWAP1 POP JUMPDEST PUSH2 0x10F6 DUP6 DUP3 PUSH2 0x107B JUMP JUMPDEST DUP7 SSTORE POP PUSH2 0x115E JUMP JUMPDEST PUSH1 0x1F NOT DUP5 AND PUSH2 0x110C DUP7 PUSH2 0xEEB JUMP JUMPDEST PUSH1 0x0 JUMPDEST DUP3 DUP2 LT ISZERO PUSH2 0x1134 JUMPI DUP5 DUP10 ADD CALLDATALOAD DUP3 SSTORE PUSH1 0x1 DUP3 ADD SWAP2 POP PUSH1 0x20 DUP6 ADD SWAP5 POP PUSH1 0x20 DUP2 ADD SWAP1 POP PUSH2 0x110F JUMP JUMPDEST DUP7 DUP4 LT ISZERO PUSH2 0x1151 JUMPI DUP5 DUP10 ADD CALLDATALOAD PUSH2 0x114D PUSH1 0x1F DUP10 AND DUP3 PUSH2 0x105D JUMP JUMPDEST DUP4 SSTORE POP JUMPDEST PUSH1 0x1 PUSH1 0x2 DUP9 MUL ADD DUP9 SSTORE POP POP POP JUMPDEST POP POP POP POP POP POP POP JUMP JUMPDEST PUSH1 0x0 PUSH2 0x1172 DUP3 PUSH2 0x9A4 JUMP JUMPDEST SWAP2 POP PUSH32 0xFFFFFFFFFFFFFFFFFFFFFFFFFFFFFFFFFFFFFFFFFFFFFFFFFFFFFFFFFFFFFFFF DUP3 SUB PUSH2 0x11A4 JUMPI PUSH2 0x11A3 PUSH2 0xDF1 JUMP JUMPDEST JUMPDEST PUSH1 0x1 DUP3 ADD SWAP1 POP SWAP2 SWAP1 POP JUMP INVALID LOG2 PUSH5 0x6970667358 0x22 SLT KECCAK256 MLOAD 0xD1 NUMBER DELEGATECALL 0xA6 CREATE2 INVALID 0xB9 PUSH1 0x1D PUSH17 0xA13B3A180FC897D0202B11D1E1B04045BF DUP12 DUP12 0xC6 0xB0 PUSH5 0x736F6C6343 STOP ADDMOD 0xF STOP CALLER "},"gasEstimates":{"creation":{"codeDepositCost":"916200","executionCost":"infinite","totalCost":"infinite"},"external":{"approveRequest(uint256)":"infinite","contribute()":"51024","contributers(address)":"2868","contributersCount()":"2539","createRequest(string,uint256,address)":"infinite","finalizeRequest(uint256)":"infinite","getRequestcount()":"2489","getSummary()":"infinite","ideaDescription()":"infinite","manager()":"2581","minimumContribution()":"2451","requests(uint256)":"infinite"}},"methodIdentifiers":{"approveRequest(uint256)":"d7d1bbdb","contribute()":"d7bb99ba","contributers(address)":"34b66460","contributersCount()":"e9f146a3","createRequest(string,uint256,address)":"8a9cfd55","finalizeRequest(uint256)":"03441006","getRequestcount()":"b59d7685","getSummary()":"4051ddac","ideaDescription()":"6af7c375","manager()":"481c6a75","minimumContribution()":"937e09b1","requests(uint256)":"81d12c58"}},"storageLayout":{"storage":[{"astId":61,"contract":"Campaign.sol:Idea","label":"requests","offset":0,"slot":"0","type":"t_array(t_struct(Request)57_storage)dyn_storage"},{"astId":63,"contract":"Campaign.sol:Idea","label":"manager","offset":0,"slot":"1","type":"t_address"},{"astId":65,"contract":"Campaign.sol:Idea","label":"ideaDescription","offset":0,"slot":"2","type":"t_string_storage"},{"astId":67,"contract":"Campaign.sol:Idea","label":"minimumContribution","offset":0,"slot":"3","type":"t_uint256"},{"astId":69,"contract":"Campaign.sol:Idea","label":"contributersCount","offset":0,"slot":"4","type":"t_uint256"},{"astId":73,"contract":"Campaign.sol:Idea","label":"contributers","offset":0,"slot":"5","type":"t_mapping(t_address,t_bool)"}],"types":{"t_address":{"encoding":"inplace","label":"address","numberOfBytes":"20"},"t_address_payable":{"encoding":"inplace","label":"address payable","numberOfBytes":"20"},"t_array(t_struct(Request)57_storage)dyn_storage":{"base":"t_struct(Request)57_storage","encoding":"dynamic_array","label":"struct Idea.Request[]","numberOfBytes":"32"},"t_bool":{"encoding":"inplace","label":"bool","numberOfBytes":"1"},"t_mapping(t_address,t_bool)":{"encoding":"mapping","key":"t_address","label":"mapping(address => bool)","numberOfBytes":"32","value":"t_bool"},"t_string_storage":{"encoding":"bytes","label":"string","numberOfBytes":"32"},"t_struct(Request)57_storage":{"encoding":"inplace","label":"struct Idea.Request","members":[{"astId":44,"contract":"Campaign.sol:Idea","label":"description","offset":0,"slot":"0","type":"t_string_storage"},{"astId":46,"contract":"Campaign.sol:Idea","label":"value","offset":0,"slot":"1","type":"t_uint256"},{"astId":48,"contract":"Campaign.sol:Idea","label":"recipient","offset":0,"slot":"2","type":"t_address_payable"},{"astId":50,"contract":"Campaign.sol:Idea","label":"complete","offset":20,"slot":"2","type":"t_bool"},{"astId":52,"contract":"Campaign.sol:Idea","label":"approvalCount","offset":0,"slot":"3","type":"t_uint256"},{"astId":56,"contract":"Campaign.sol:Idea","label":"approvals","offset":0,"slot":"4","type":"t_mapping(t_address,t_bool)"}],"numberOfBytes":"160"},"t_uint256":{"encoding":"inplace","label":"uint256","numberOfBytes":"32"}}},"userdoc":{"kind":"user","methods":{},"version":1}}